{
  "_format": "hh-sol-artifact-1",
  "contractName": "Lottery",
  "sourceName": "contracts/Lottery.sol",
  "abi": [
    {
      "inputs": [
        {
          "internalType": "uint256",
          "name": "_s_subscriptionId",
          "type": "uint256"
        },
        {
          "internalType": "address",
          "name": "_s_vrfCoordinator",
          "type": "address"
        },
        {
          "internalType": "bytes32",
          "name": "_keyHash",
          "type": "bytes32"
        }
      ],
      "stateMutability": "nonpayable",
      "type": "constructor"
    },
    {
      "inputs": [],
      "name": "EnforcedPause",
      "type": "error"
    },
    {
      "inputs": [],
      "name": "ExpectedPause",
      "type": "error"
    },
    {
      "inputs": [
        {
          "internalType": "address",
          "name": "have",
          "type": "address"
        },
        {
          "internalType": "address",
          "name": "want",
          "type": "address"
        }
      ],
      "name": "OnlyCoordinatorCanFulfill",
      "type": "error"
    },
    {
      "inputs": [
        {
          "internalType": "address",
          "name": "have",
          "type": "address"
        },
        {
          "internalType": "address",
          "name": "owner",
          "type": "address"
        },
        {
          "internalType": "address",
          "name": "coordinator",
          "type": "address"
        }
      ],
      "name": "OnlyOwnerOrCoordinator",
      "type": "error"
    },
    {
      "inputs": [],
      "name": "ZeroAddress",
      "type": "error"
    },
    {
      "anonymous": false,
      "inputs": [
        {
          "indexed": false,
          "internalType": "uint32",
          "name": "callbackGasLimit",
          "type": "uint32"
        }
      ],
      "name": "ChainlinkVRFCallbackGasLimitSet",
      "type": "event"
    },
    {
      "anonymous": false,
      "inputs": [
        {
          "indexed": false,
          "internalType": "uint256",
          "name": "subscriptionId",
          "type": "uint256"
        },
        {
          "indexed": false,
          "internalType": "bytes32",
          "name": "keyHash",
          "type": "bytes32"
        },
        {
          "indexed": false,
          "internalType": "uint32",
          "name": "callbackGasLimit",
          "type": "uint32"
        },
        {
          "indexed": false,
          "internalType": "uint16",
          "name": "requestConfirmations",
          "type": "uint16"
        },
        {
          "indexed": false,
          "internalType": "uint32",
          "name": "numWords",
          "type": "uint32"
        }
      ],
      "name": "ChainlinkVRFConfigurationSet",
      "type": "event"
    },
    {
      "anonymous": false,
      "inputs": [
        {
          "indexed": false,
          "internalType": "bytes32",
          "name": "keyHash",
          "type": "bytes32"
        }
      ],
      "name": "ChainlinkVRFKeyHashSet",
      "type": "event"
    },
    {
      "anonymous": false,
      "inputs": [
        {
          "indexed": false,
          "internalType": "bool",
          "name": "nativePayment",
          "type": "bool"
        }
      ],
      "name": "ChainlinkVRFNativePaymentSet",
      "type": "event"
    },
    {
      "anonymous": false,
      "inputs": [
        {
          "indexed": false,
          "internalType": "uint32",
          "name": "numWords",
          "type": "uint32"
        }
      ],
      "name": "ChainlinkVRFNumWordsSet",
      "type": "event"
    },
    {
      "anonymous": false,
      "inputs": [
        {
          "indexed": false,
          "internalType": "uint16",
          "name": "requestConfirmations",
          "type": "uint16"
        }
      ],
      "name": "ChainlinkVRFRequestConfirmationsSet",
      "type": "event"
    },
    {
      "anonymous": false,
      "inputs": [
        {
          "indexed": false,
          "internalType": "uint256",
          "name": "subscriptionId",
          "type": "uint256"
        }
      ],
      "name": "ChainlinkVRFSubscriptionIdSet",
      "type": "event"
    },
    {
      "anonymous": false,
      "inputs": [
        {
          "indexed": false,
          "internalType": "address",
          "name": "vrfCoordinator",
          "type": "address"
        }
      ],
      "name": "CoordinatorSet",
      "type": "event"
    },
    {
      "anonymous": false,
      "inputs": [
        {
          "indexed": false,
          "internalType": "uint256",
          "name": "amount",
          "type": "uint256"
        },
        {
          "indexed": false,
          "internalType": "bytes32",
          "name": "lotteryId",
          "type": "bytes32"
        }
      ],
      "name": "LotteryCreated",
      "type": "event"
    },
    {
      "anonymous": false,
      "inputs": [
        {
          "indexed": true,
          "internalType": "address",
          "name": "from",
          "type": "address"
        },
        {
          "indexed": true,
          "internalType": "address",
          "name": "to",
          "type": "address"
        }
      ],
      "name": "OwnershipTransferRequested",
      "type": "event"
    },
    {
      "anonymous": false,
      "inputs": [
        {
          "indexed": true,
          "internalType": "address",
          "name": "from",
          "type": "address"
        },
        {
          "indexed": true,
          "internalType": "address",
          "name": "to",
          "type": "address"
        }
      ],
      "name": "OwnershipTransferred",
      "type": "event"
    },
    {
      "anonymous": false,
      "inputs": [
        {
          "indexed": false,
          "internalType": "address",
          "name": "account",
          "type": "address"
        }
      ],
      "name": "Paused",
      "type": "event"
    },
    {
      "anonymous": false,
      "inputs": [
        {
          "indexed": false,
          "internalType": "uint256",
          "name": "requestId",
          "type": "uint256"
        },
        {
          "indexed": false,
          "internalType": "uint256[]",
          "name": "randomWords",
          "type": "uint256[]"
        }
      ],
      "name": "RequestFulfilled",
      "type": "event"
    },
    {
      "anonymous": false,
      "inputs": [
        {
          "indexed": false,
          "internalType": "uint256",
          "name": "requestId",
          "type": "uint256"
        },
        {
          "indexed": false,
          "internalType": "uint32",
          "name": "numWords",
          "type": "uint32"
        }
      ],
      "name": "RequestSent",
      "type": "event"
    },
    {
      "anonymous": false,
      "inputs": [
        {
          "indexed": false,
          "internalType": "address",
          "name": "account",
          "type": "address"
        }
      ],
      "name": "Unpaused",
      "type": "event"
    },
    {
      "anonymous": false,
      "inputs": [
        {
          "indexed": false,
          "internalType": "bytes32",
          "name": "lotteryId",
          "type": "bytes32"
        },
        {
          "indexed": false,
          "internalType": "address[]",
          "name": "winners",
          "type": "address[]"
        }
      ],
      "name": "WinnersSelected",
      "type": "event"
    },
    {
      "inputs": [],
      "name": "acceptOwnership",
      "outputs": [],
      "stateMutability": "nonpayable",
      "type": "function"
    },
    {
      "inputs": [
        {
          "internalType": "address[]",
          "name": "_participants",
          "type": "address[]"
        },
        {
          "internalType": "bytes32",
          "name": "_lotteryId",
          "type": "bytes32"
        }
      ],
      "name": "addParticipants",
      "outputs": [],
      "stateMutability": "nonpayable",
      "type": "function"
    },
    {
      "inputs": [],
      "name": "callbackGasLimit",
      "outputs": [
        {
          "internalType": "uint32",
          "name": "",
          "type": "uint32"
        }
      ],
      "stateMutability": "view",
      "type": "function"
    },
    {
      "inputs": [
        {
          "internalType": "uint256",
          "name": "_amount",
          "type": "uint256"
        }
      ],
      "name": "createLottery",
      "outputs": [
        {
          "internalType": "bytes32",
          "name": "",
          "type": "bytes32"
        }
      ],
      "stateMutability": "payable",
      "type": "function"
    },
    {
      "inputs": [],
      "name": "deposit",
      "outputs": [],
      "stateMutability": "payable",
      "type": "function"
    },
    {
      "inputs": [
        {
          "internalType": "uint256",
          "name": "_requestId",
          "type": "uint256"
        }
      ],
      "name": "getRequestStatus",
      "outputs": [
        {
          "internalType": "bool",
          "name": "fulfilled",
          "type": "bool"
        },
        {
          "internalType": "uint256[]",
          "name": "randomWords",
          "type": "uint256[]"
        }
      ],
      "stateMutability": "view",
      "type": "function"
    },
    {
      "inputs": [],
      "name": "isLotteryActive",
      "outputs": [
        {
          "internalType": "bool",
          "name": "",
          "type": "bool"
        }
      ],
      "stateMutability": "view",
      "type": "function"
    },
    {
      "inputs": [],
      "name": "keyHash",
      "outputs": [
        {
          "internalType": "bytes32",
          "name": "",
          "type": "bytes32"
        }
      ],
      "stateMutability": "view",
      "type": "function"
    },
    {
      "inputs": [],
      "name": "lastRequestId",
      "outputs": [
        {
          "internalType": "uint256",
          "name": "",
          "type": "uint256"
        }
      ],
      "stateMutability": "view",
      "type": "function"
    },
    {
      "inputs": [
        {
          "internalType": "bytes32",
          "name": "",
          "type": "bytes32"
        }
      ],
      "name": "lotteries",
      "outputs": [
        {
          "internalType": "bool",
          "name": "exists",
          "type": "bool"
        },
        {
          "internalType": "uint256",
          "name": "amount",
          "type": "uint256"
        },
        {
          "internalType": "bool",
          "name": "isFulfilled",
          "type": "bool"
        }
      ],
      "stateMutability": "view",
      "type": "function"
    },
    {
      "inputs": [],
      "name": "nativePayment",
      "outputs": [
        {
          "internalType": "bool",
          "name": "",
          "type": "bool"
        }
      ],
      "stateMutability": "view",
      "type": "function"
    },
    {
      "inputs": [],
      "name": "numWords",
      "outputs": [
        {
          "internalType": "uint32",
          "name": "",
          "type": "uint32"
        }
      ],
      "stateMutability": "view",
      "type": "function"
    },
    {
      "inputs": [],
      "name": "owner",
      "outputs": [
        {
          "internalType": "address",
          "name": "",
          "type": "address"
        }
      ],
      "stateMutability": "view",
      "type": "function"
    },
    {
      "inputs": [
        {
          "internalType": "bytes32",
          "name": "",
          "type": "bytes32"
        },
        {
          "internalType": "uint256",
          "name": "",
          "type": "uint256"
        }
      ],
      "name": "participants",
      "outputs": [
        {
          "internalType": "address",
          "name": "",
          "type": "address"
        }
      ],
      "stateMutability": "view",
      "type": "function"
    },
    {
      "inputs": [],
      "name": "pause",
      "outputs": [],
      "stateMutability": "nonpayable",
      "type": "function"
    },
    {
      "inputs": [],
      "name": "paused",
      "outputs": [
        {
          "internalType": "bool",
          "name": "",
          "type": "bool"
        }
      ],
      "stateMutability": "view",
      "type": "function"
    },
    {
      "inputs": [
        {
          "internalType": "uint256",
          "name": "requestId",
          "type": "uint256"
        },
        {
          "internalType": "uint256[]",
          "name": "randomWords",
          "type": "uint256[]"
        }
      ],
      "name": "rawFulfillRandomWords",
      "outputs": [],
      "stateMutability": "nonpayable",
      "type": "function"
    },
    {
      "inputs": [],
      "name": "requestConfirmations",
      "outputs": [
        {
          "internalType": "uint16",
          "name": "",
          "type": "uint16"
        }
      ],
      "stateMutability": "view",
      "type": "function"
    },
    {
      "inputs": [
        {
          "internalType": "uint256",
          "name": "",
          "type": "uint256"
        }
      ],
      "name": "requestIds",
      "outputs": [
        {
          "internalType": "uint256",
          "name": "",
          "type": "uint256"
        }
      ],
      "stateMutability": "view",
      "type": "function"
    },
    {
      "inputs": [
        {
          "internalType": "uint32",
          "name": "_winners",
          "type": "uint32"
        },
        {
          "internalType": "bytes32",
          "name": "_lotteryId",
          "type": "bytes32"
        }
      ],
      "name": "requestRandomWords",
      "outputs": [
        {
          "internalType": "uint256",
          "name": "requestId",
          "type": "uint256"
        }
      ],
      "stateMutability": "nonpayable",
      "type": "function"
    },
    {
      "inputs": [
        {
          "internalType": "uint256",
          "name": "",
          "type": "uint256"
        }
      ],
      "name": "s_requests",
      "outputs": [
        {
          "internalType": "bool",
          "name": "fulfilled",
          "type": "bool"
        },
        {
          "internalType": "bool",
          "name": "exists",
          "type": "bool"
        },
        {
          "internalType": "bytes32",
          "name": "lotteryId",
          "type": "bytes32"
        }
      ],
      "stateMutability": "view",
      "type": "function"
    },
    {
      "inputs": [],
      "name": "s_subscriptionId",
      "outputs": [
        {
          "internalType": "uint256",
          "name": "",
          "type": "uint256"
        }
      ],
      "stateMutability": "view",
      "type": "function"
    },
    {
      "inputs": [],
      "name": "s_vrfCoordinator",
      "outputs": [
        {
          "internalType": "contract IVRFCoordinatorV2Plus",
          "name": "",
          "type": "address"
        }
      ],
      "stateMutability": "view",
      "type": "function"
    },
    {
      "inputs": [
        {
          "internalType": "uint32",
          "name": "_callbackGasLimit",
          "type": "uint32"
        }
      ],
      "name": "setCallbackGasLimit",
      "outputs": [],
      "stateMutability": "nonpayable",
      "type": "function"
    },
    {
      "inputs": [
        {
          "internalType": "address",
          "name": "_vrfCoordinator",
          "type": "address"
        }
      ],
      "name": "setCoordinator",
      "outputs": [],
      "stateMutability": "nonpayable",
      "type": "function"
    },
    {
      "inputs": [
        {
          "internalType": "bytes32",
          "name": "_keyHash",
          "type": "bytes32"
        }
      ],
      "name": "setKeyHash",
      "outputs": [],
      "stateMutability": "nonpayable",
      "type": "function"
    },
    {
      "inputs": [
        {
          "internalType": "bool",
          "name": "_nativePayment",
          "type": "bool"
        }
      ],
      "name": "setNativePayment",
      "outputs": [],
      "stateMutability": "nonpayable",
      "type": "function"
    },
    {
      "inputs": [
        {
          "internalType": "uint32",
          "name": "_numWords",
          "type": "uint32"
        }
      ],
      "name": "setNumWords",
      "outputs": [],
      "stateMutability": "nonpayable",
      "type": "function"
    },
    {
      "inputs": [
        {
          "internalType": "uint16",
          "name": "_requestConfirmations",
          "type": "uint16"
        }
      ],
      "name": "setRequestConfirmations",
      "outputs": [],
      "stateMutability": "nonpayable",
      "type": "function"
    },
    {
      "inputs": [
        {
          "internalType": "uint256",
          "name": "_subscriptionId",
          "type": "uint256"
        }
      ],
      "name": "setSubscriptionId",
      "outputs": [],
      "stateMutability": "nonpayable",
      "type": "function"
    },
    {
      "inputs": [
        {
          "internalType": "uint256",
          "name": "_subscriptionId",
          "type": "uint256"
        },
        {
          "internalType": "bytes32",
          "name": "_keyHash",
          "type": "bytes32"
        },
        {
          "internalType": "uint32",
          "name": "_callbackGasLimit",
          "type": "uint32"
        },
        {
          "internalType": "uint16",
          "name": "_requestConfirmations",
          "type": "uint16"
        },
        {
          "internalType": "uint32",
          "name": "_numWords",
          "type": "uint32"
        }
      ],
      "name": "setVRFConfiguration",
      "outputs": [],
      "stateMutability": "nonpayable",
      "type": "function"
    },
    {
      "inputs": [
        {
          "internalType": "address",
          "name": "to",
          "type": "address"
        }
      ],
      "name": "transferOwnership",
      "outputs": [],
      "stateMutability": "nonpayable",
      "type": "function"
    },
    {
      "inputs": [],
      "name": "unpause",
      "outputs": [],
      "stateMutability": "nonpayable",
      "type": "function"
    },
    {
      "inputs": [],
      "name": "withdraw",
      "outputs": [],
      "stateMutability": "nonpayable",
      "type": "function"
    }
  ],
  "bytecode": "0x6080604052600580546001600160581b03191667020003000186a0011790556009805460ff1916905534801561003457600080fd5b506040516122793803806122798339810160408190526100539161026b565b6000805460ff19168155829033908190816100b55760405162461bcd60e51b815260206004820152601860248201527f43616e6e6f7420736574206f776e657220746f207a65726f000000000000000060448201526064015b60405180910390fd5b600080546001600160a01b0380851661010002610100600160a81b0319909216919091179091558116156100ec576100ec816101bc565b5050506001600160a01b0381166101165760405163d92e233d60e01b815260040160405180910390fd5b600280546001600160a01b03929092166001600160a01b031990921691909117905560038390556004819055600554604080518581526020810184905263ffffffff610100840481168284015261ffff6501000000000085041660608301526701000000000000009093049092166080830152517f236f85804337f10833db499a7d20933e43d67d0b7836bc7059966334f8b510779181900360a00190a15050506102b1565b336001600160a01b038216036102145760405162461bcd60e51b815260206004820152601760248201527f43616e6e6f74207472616e7366657220746f2073656c6600000000000000000060448201526064016100ac565b600180546001600160a01b0319166001600160a01b0383811691821790925560008054604051929361010090910416917fed8889f560326eb138920d842192f0eb3dd22b4f139c87a2c57538e05bae12789190a350565b60008060006060848603121561028057600080fd5b835160208501519093506001600160a01b038116811461029f57600080fd5b80925050604084015190509250925092565b611fb9806102c06000396000f3fe6080604052600436106101f95760003560e01c80638da5cb5b1161010d578063b0fb162f116100a0578063d8a4676f1161006f578063d8a4676f14610613578063f2fde38b14610641578063f30c07d314610661578063f6f35d1314610681578063fc2a88c3146106a157600080fd5b8063b0fb162f1461059c578063c1e0d236146105d1578063c3b69ebb146105f1578063d0e30db01461060b57600080fd5b806398544710116100dc57806398544710146104de5780639eccacf6146104fe578063a168fa891461051e578063a4eb718c1461057c57600080fd5b80638da5cb5b146104285780638dd8c56d1461044b5780638ea981171461045e578063915c72c71461047e57600080fd5b80635a175710116101905780637ccfd7fc1161015f5780637ccfd7fc146103995780638456cb59146103bd5780638796ba8c146103d25780638824f5a7146103f25780638ac000211461041257600080fd5b80635a1757101461031e5780635c975abb1461034857806361728f391461036057806379ba50971461038457600080fd5b80633ccfd60b116101cc5780633ccfd60b1461029c5780633f4ba83a146102b1578063414d47f4146102c65780634e4f3017146102fe57600080fd5b8063037b3e80146101fe5780630c6dcd31146102205780631fe543e31461024057806324f7469714610260575b600080fd5b34801561020a57600080fd5b5061021e610219366004611b3a565b6106b7565b005b34801561022c57600080fd5b5061021e61023b366004611c12565b6107c5565b34801561024c57600080fd5b5061021e61025b366004611c3b565b610815565b34801561026c57600080fd5b5060055461028290610100900463ffffffff1681565b60405163ffffffff90911681526020015b60405180910390f35b3480156102a857600080fd5b5061021e610860565b3480156102bd57600080fd5b5061021e6108f5565b3480156102d257600080fd5b506102e66102e1366004611cbc565b610907565b6040516001600160a01b039091168152602001610293565b34801561030a57600080fd5b5061021e610319366004611d04565b61093f565b34801561032a57600080fd5b506005546103389060ff1681565b6040519015158152602001610293565b34801561035457600080fd5b5060005460ff16610338565b34801561036c57600080fd5b5061037660045481565b604051908152602001610293565b34801561039057600080fd5b5061021e610b7f565b3480156103a557600080fd5b5060055461028290600160381b900463ffffffff1681565b3480156103c957600080fd5b5061021e610c37565b3480156103de57600080fd5b506103766103ed366004611d5b565b610c47565b3480156103fe57600080fd5b5061021e61040d366004611d74565b610c68565b34801561041e57600080fd5b5061037660035481565b34801561043457600080fd5b5060005461010090046001600160a01b03166102e6565b610376610459366004611d5b565b610d16565b34801561046a57600080fd5b5061021e610479366004611d8f565b610f24565b34801561048a57600080fd5b506104bf610499366004611d5b565b600a6020526000908152604090208054600182015460029092015460ff91821692911683565b6040805193151584526020840192909252151590820152606001610293565b3480156104ea57600080fd5b5061021e6104f9366004611d5b565b611018565b34801561050a57600080fd5b506002546102e6906001600160a01b031681565b34801561052a57600080fd5b5061055f610539366004611d5b565b6006602052600090815260409020805460029091015460ff808316926101009004169083565b604080519315158452911515602084015290820152606001610293565b34801561058857600080fd5b5061021e610597366004611daa565b611095565b3480156105a857600080fd5b506005546105be90600160281b900461ffff1681565b60405161ffff9091168152602001610293565b3480156105dd57600080fd5b5061021e6105ec366004611d5b565b611143565b3480156105fd57600080fd5b506009546103389060ff1681565b61021e6111ca565b34801561061f57600080fd5b5061063361062e366004611d5b565b6111d2565b604051610293929190611dc5565b34801561064d57600080fd5b5061021e61065c366004611d8f565b6112d0565b34801561066d57600080fd5b5061021e61067c366004611daa565b6112e1565b34801561068d57600080fd5b5061037661069c366004611e16565b61138d565b3480156106ad57600080fd5b5061037660085481565b6106bf61168a565b6000818152600a602052604090205460ff1661071b5760405162461bcd60e51b8152602060048201526016602482015275131bdd1d195c9e48191bd95cc81b9bdd08195e1a5cdd60521b60448201526064015b60405180910390fd5b6000818152600a602052604090206002015460ff161561074d5760405162461bcd60e51b815260040161071290611e40565b60005b82518110156107c0576000828152600b60205260409020835184908390811061077b5761077b611e77565b60209081029190910181015182546001808201855560009485529290932090920180546001600160a01b0319166001600160a01b039093169290921790915501610750565b505050565b6107cd61168a565b6005805460ff19168215159081179091556040519081527f25659c24394778e792f547db614a797b6e5d70c5dd274055022a35ff92f52083906020015b60405180910390a150565b6002546001600160a01b031633146108555760025460405163073e64fd60e21b81523360048201526001600160a01b039091166024820152604401610712565b6107c08383836116e2565b61086861168a565b604051600090339047908381818185875af1925050503d80600081146108aa576040519150601f19603f3d011682016040523d82523d6000602084013e6108af565b606091505b50509050806108f25760405162461bcd60e51b815260206004820152600f60248201526e4661696c656420776974686472617760881b6044820152606401610712565b50565b6108fd61168a565b610905611827565b565b600b602052816000526040600020818154811061092357600080fd5b6000918252602090912001546001600160a01b03169150829050565b61094761168a565b600085116109915760405162461bcd60e51b8152602060048201526017602482015276125b9d985b1a59081cdd589cd8dc9a5c1d1a5bdb881251604a1b6044820152606401610712565b836109d15760405162461bcd60e51b815260206004820152601060248201526f092dcecc2d8d2c840d6caf240d0c2e6d60831b6044820152606401610712565b60008363ffffffff1611610a275760405162461bcd60e51b815260206004820152601a60248201527f496e76616c69642063616c6c6261636b20676173206c696d69740000000000006044820152606401610712565b60008261ffff1611610a7b5760405162461bcd60e51b815260206004820152601d60248201527f496e76616c6964207265717565737420636f6e6669726d6174696f6e730000006044820152606401610712565b60008163ffffffff1611610acb5760405162461bcd60e51b8152602060048201526017602482015276496e76616c6964206e756d626572206f6620776f72647360481b6044820152606401610712565b600385905560048490556005805466ffffffffffff00191661010063ffffffff86811691820266ffff0000000000191692909217600160281b61ffff87169081029190911763ffffffff60381b1916600160381b93861693840217909355604080518981526020810189905290810191909152606081019290925260808201527f236f85804337f10833db499a7d20933e43d67d0b7836bc7059966334f8b510779060a00160405180910390a15050505050565b6001546001600160a01b03163314610bd25760405162461bcd60e51b815260206004820152601660248201527526bab9ba10313290383937b837b9b2b21037bbb732b960511b6044820152606401610712565b6000805433610100818102610100600160a81b03198416178455600180546001600160a01b03191690556040516001600160a01b03919093041692909183917f8be0079c531659141344cd1fd0a4f28419497f9722a3daafe3b4186f6b6457e091a350565b610c3f61168a565b610905611879565b60078181548110610c5757600080fd5b600091825260209091200154905081565b610c7061168a565b60008161ffff1611610cc45760405162461bcd60e51b815260206004820152601d60248201527f496e76616c6964207265717565737420636f6e6669726d6174696f6e730000006044820152606401610712565b6005805466ffff00000000001916600160281b61ffff8416908102919091179091556040519081527f78d4876dae9e48a9c681a25123c1238c64adbeb7f55b74b07fd1f3755f04b7a49060200161080a565b6000610d2061168a565b60008211610d705760405162461bcd60e51b815260206004820152601d60248201527f416d6f756e74206d7573742062652067726561746572207468616e20300000006044820152606401610712565b813414610dd95760405162461bcd60e51b815260206004820152603160248201527f416d6f756e74206d75737420626520657175616c20746f207468652076616c7560448201527019481cd95b9d081d1bc81899481c185a59607a1b6064820152608401610712565b60408051426020808301919091523360601b6bffffffffffffffffffffffff19168284015260548083018690528351808403909101815260748301808552815191830191909120610114840185526001825260948401879052600060b485018190528551818152808501875260d4860152855181815293840190955293909260f40191905090526000828152600a60209081526040918290208351815490151560ff1991821617825584830151600183015592840151600282018054911515919094161790925560608301518051610eb79260038501920190611a1d565b5060808201518051610ed3916004840191602090910190611a68565b50506009805460ff191660011790555060408051848152602081018390527f0c8d9ee2d30adddcafd021a9cb3feddd742482ce8b7e06971d4747725b70a7d7910160405180910390a190505b919050565b60005461010090046001600160a01b03166001600160a01b0316336001600160a01b031614158015610f6157506002546001600160a01b03163314155b15610fa35760005460025460405163061db9c160e01b81523360048201526001600160a01b036101009093048316602482015291166044820152606401610712565b6001600160a01b038116610fca5760405163d92e233d60e01b815260040160405180910390fd5b600280546001600160a01b0319166001600160a01b0383169081179091556040519081527fd1a6a14209a385a964d036e404cb5cfb71f4000cdb03c9366292430787261be69060200161080a565b61102061168a565b806110605760405162461bcd60e51b815260206004820152601060248201526f092dcecc2d8d2c840d6caf240d0c2e6d60831b6044820152606401610712565b60048190556040518181527fe3f5f3924185797e0adf504bea2de12feb2fc665dea9f8f6d049a7954c6eb0b59060200161080a565b61109d61168a565b60008163ffffffff16116110f35760405162461bcd60e51b815260206004820152601a60248201527f496e76616c69642063616c6c6261636b20676173206c696d69740000000000006044820152606401610712565b6005805464ffffffff00191661010063ffffffff8416908102919091179091556040519081527f8ddf8616698889ed0733e6f86f38523227af37fba2554037b7a4b153e7b514569060200161080a565b61114b61168a565b600081116111955760405162461bcd60e51b8152602060048201526017602482015276125b9d985b1a59081cdd589cd8dc9a5c1d1a5bdb881251604a1b6044820152606401610712565b60038190556040518181527f345db99ccc4e8f24cc5807f730720ca60ce9c1a5ff8cbad6e47d17d29954b8329060200161080a565b61090561168a565b600081815260066020526040812054606090610100900460ff1661122c5760405162461bcd60e51b815260206004820152601160248201527014995c5d595cdd081b9bdd08199bdd5b99607a1b6044820152606401610712565b60008381526006602090815260408083208151608081018352815460ff80821615158352610100909104161515818501526001820180548451818702810187018652818152929593948601938301828280156112a757602002820191906000526020600020905b815481526020019060010190808311611293575b505050505081526020016002820154815250509050806000015181604001519250925050915091565b6112d861168a565b6108f2816118b6565b6112e961168a565b60008163ffffffff16116113395760405162461bcd60e51b8152602060048201526017602482015276496e76616c6964206e756d626572206f6620776f72647360481b6044820152606401610712565b6005805463ffffffff60381b1916600160381b63ffffffff8416908102919091179091556040519081527f487488fc744814b752f7c8589aabbf398f44a2fb5eb88185b23b693756537bb99060200161080a565b600061139761168a565b6000828152600a602052604090205460ff166113ee5760405162461bcd60e51b8152602060048201526016602482015275131bdd1d195c9e48191bd95cc81b9bdd08195e1a5cdd60521b6044820152606401610712565b6000828152600a602052604090206002015460ff16156114205760405162461bcd60e51b815260040161071290611e40565b6000828152600b602052604090205461147b5760405162461bcd60e51b815260206004820152601e60248201527f4e6f207061727469636970616e747320696e20746865206c6f747465727900006044820152606401610712565b60055463ffffffff600160381b9091048116906001908516111561149c5750825b6002546040805160c081018252600454815260035460208083019190915260055461ffff600160281b8204168385015263ffffffff61010082048116606085015286166080840152835191820190935260ff909216151582526001600160a01b0390921691639b1c385e9160a082019061151590611965565b8152506040518263ffffffff1660e01b81526004016115349190611e8d565b6020604051808303816000875af1158015611553573d6000803e3d6000fd5b505050506040513d601f19601f820116820180604052508101906115779190611f29565b6040805160808101825260008082526001602080840182815285518481528083018752858701908152606086018b9052878552600683529590932084518154945161ffff1990951690151561ff001916176101009415159490940293909317835593518051959750929491936115f39391850192910190611a1d565b5060609190910151600290910155600780546001810182556000919091527fa66cc928b5edb82af9bd49922954155ab7b0942694bea4ce44661d9a8736c68801829055600882905560055460408051848152600160381b90920463ffffffff1660208301527fcc58b13ad3eab50626c6a6300b1d139cd6ebb1688a7cced9461c2f7e762665ee910160405180910390a15092915050565b60005461010090046001600160a01b031633146109055760405162461bcd60e51b815260206004820152601660248201527527b7363c9031b0b63630b1363290313c9037bbb732b960511b6044820152606401610712565b600083815260066020526040902054610100900460ff166117395760405162461bcd60e51b815260206004820152601160248201527014995c5d595cdd081b9bdd08199bdd5b99607a1b6044820152606401610712565b60008381526006602090815260408083206002908101548452600a909252909120015460ff161561177c5760405162461bcd60e51b815260040161071290611e40565b6000838152600660205260409020805460ff1916600190811782556117a391018383611abd565b506000838152600660209081526040808320600290810180548552600a90935281842001805460ff191660011790559054825290206117e6906003018383611abd565b507ffe2e2d779dba245964d4e3ef9b994be63856fd568bf7d3ca9e224755cb1bd54d83838360405161181a93929190611f42565b60405180910390a1505050565b61182f6119d6565b6000805460ff191690557f5db9ee0a495bf2e6ff9c91a7834c1ba4fdd244a5e8aa4e537bd38aeae4b073aa335b6040516001600160a01b03909116815260200160405180910390a1565b6118816119f9565b6000805460ff191660011790557f62e78cea01bee320cd4e420270b5ea74000d11b0c9f74754ebdbfc544b05a25861185c3390565b336001600160a01b0382160361190e5760405162461bcd60e51b815260206004820152601760248201527f43616e6e6f74207472616e7366657220746f2073656c660000000000000000006044820152606401610712565b600180546001600160a01b0319166001600160a01b0383811691821790925560008054604051929361010090910416917fed8889f560326eb138920d842192f0eb3dd22b4f139c87a2c57538e05bae12789190a350565b60607f92fd13387c7fe7befbc38d303d6468778fb9731bc4583f17d92989c6fcfdeaaa8260405160240161199e91511515815260200190565b60408051601f198184030181529190526020810180516001600160e01b03166001600160e01b03199093169290921790915292915050565b60005460ff1661090557604051638dfc202b60e01b815260040160405180910390fd5b60005460ff16156109055760405163d93c066560e01b815260040160405180910390fd5b828054828255906000526020600020908101928215611a58579160200282015b82811115611a58578251825591602001919060010190611a3d565b50611a64929150611af8565b5090565b828054828255906000526020600020908101928215611a58579160200282015b82811115611a5857825182546001600160a01b0319166001600160a01b03909116178255602090920191600190910190611a88565b828054828255906000526020600020908101928215611a58579160200282015b82811115611a58578235825591602001919060010190611add565b5b80821115611a645760008155600101611af9565b634e487b7160e01b600052604160045260246000fd5b80356001600160a01b0381168114610f1f57600080fd5b60008060408385031215611b4d57600080fd5b823567ffffffffffffffff811115611b6457600080fd5b8301601f81018513611b7557600080fd5b803567ffffffffffffffff811115611b8f57611b8f611b0d565b8060051b604051601f19603f830116810181811067ffffffffffffffff82111715611bbc57611bbc611b0d565b604052918252602081840181019290810188841115611bda57600080fd5b6020850194505b83851015611c0057611bf285611b23565b815260209485019401611be1565b50976020969096013596505050505050565b600060208284031215611c2457600080fd5b81358015158114611c3457600080fd5b9392505050565b600080600060408486031215611c5057600080fd5b83359250602084013567ffffffffffffffff811115611c6e57600080fd5b8401601f81018613611c7f57600080fd5b803567ffffffffffffffff811115611c9657600080fd5b8660208260051b8401011115611cab57600080fd5b939660209190910195509293505050565b60008060408385031215611ccf57600080fd5b50508035926020909101359150565b803563ffffffff81168114610f1f57600080fd5b803561ffff81168114610f1f57600080fd5b600080600080600060a08688031215611d1c57600080fd5b8535945060208601359350611d3360408701611cde565b9250611d4160608701611cf2565b9150611d4f60808701611cde565b90509295509295909350565b600060208284031215611d6d57600080fd5b5035919050565b600060208284031215611d8657600080fd5b611c3482611cf2565b600060208284031215611da157600080fd5b611c3482611b23565b600060208284031215611dbc57600080fd5b611c3482611cde565b60006040820184151583526040602084015280845180835260608501915060208601925060005b81811015611e0a578351835260209384019390920191600101611dec565b50909695505050505050565b60008060408385031215611e2957600080fd5b611e3283611cde565b946020939093013593505050565b6020808252601c908201527f4c6f747465727920697320616c72656164792066756c66696c6c656400000000604082015260600190565b634e487b7160e01b600052603260045260246000fd5b60208152815160208201526020820151604082015261ffff604083015116606082015263ffffffff606083015116608082015263ffffffff60808301511660a0820152600060a083015160c08084015280518060e085015260005b81811015611f06576020818401810151610100878401015201611ee8565b5060006101008286010152610100601f19601f8301168501019250505092915050565b600060208284031215611f3b57600080fd5b5051919050565b838152604060208201819052810182905260006001600160fb1b03831115611f6957600080fd5b8260051b808560608501379190910160600194935050505056fea2646970667358221220fd6a5705207600b42aebc8f8123cf5bac07b13e93c5fd2c04804420af18f0b4364736f6c634300081a0033",
  "linkReferences": {},
  "deployedLinkReferences": {}
}