{"contracts/Lottery.sol":{"Lottery":{"abi":[{"inputs":[{"internalType":"uint256","name":"_s_subscriptionId","type":"uint256"},{"internalType":"address","name":"_s_vrfCoordinator","type":"address"},{"internalType":"bytes32","name":"_keyHash","type":"bytes32"}],"stateMutability":"nonpayable","type":"constructor"},{"inputs":[],"name":"EnforcedPause","type":"error"},{"inputs":[],"name":"ExpectedPause","type":"error"},{"inputs":[{"internalType":"address","name":"have","type":"address"},{"internalType":"address","name":"want","type":"address"}],"name":"OnlyCoordinatorCanFulfill","type":"error"},{"inputs":[{"internalType":"address","name":"have","type":"address"},{"internalType":"address","name":"owner","type":"address"},{"internalType":"address","name":"coordinator","type":"address"}],"name":"OnlyOwnerOrCoordinator","type":"error"},{"inputs":[],"name":"ZeroAddress","type":"error"},{"anonymous":false,"inputs":[{"indexed":false,"internalType":"uint32","name":"callbackGasLimit","type":"uint32"}],"name":"ChainlinkVRFCallbackGasLimitSet","type":"event"},{"anonymous":false,"inputs":[{"indexed":false,"internalType":"uint256","name":"subscriptionId","type":"uint256"},{"indexed":false,"internalType":"bytes32","name":"keyHash","type":"bytes32"},{"indexed":false,"internalType":"uint32","name":"callbackGasLimit","type":"uint32"},{"indexed":false,"internalType":"uint16","name":"requestConfirmations","type":"uint16"},{"indexed":false,"internalType":"uint32","name":"numWords","type":"uint32"}],"name":"ChainlinkVRFConfigurationSet","type":"event"},{"anonymous":false,"inputs":[{"indexed":false,"internalType":"bytes32","name":"keyHash","type":"bytes32"}],"name":"ChainlinkVRFKeyHashSet","type":"event"},{"anonymous":false,"inputs":[{"indexed":false,"internalType":"bool","name":"nativePayment","type":"bool"}],"name":"ChainlinkVRFNativePaymentSet","type":"event"},{"anonymous":false,"inputs":[{"indexed":false,"internalType":"uint32","name":"numWords","type":"uint32"}],"name":"ChainlinkVRFNumWordsSet","type":"event"},{"anonymous":false,"inputs":[{"indexed":false,"internalType":"uint16","name":"requestConfirmations","type":"uint16"}],"name":"ChainlinkVRFRequestConfirmationsSet","type":"event"},{"anonymous":false,"inputs":[{"indexed":false,"internalType":"uint256","name":"subscriptionId","type":"uint256"}],"name":"ChainlinkVRFSubscriptionIdSet","type":"event"},{"anonymous":false,"inputs":[{"indexed":false,"internalType":"address","name":"vrfCoordinator","type":"address"}],"name":"CoordinatorSet","type":"event"},{"anonymous":false,"inputs":[{"indexed":false,"internalType":"uint256","name":"amount","type":"uint256"},{"indexed":false,"internalType":"bytes32","name":"lotteryId","type":"bytes32"}],"name":"LotteryCreated","type":"event"},{"anonymous":false,"inputs":[{"indexed":true,"internalType":"address","name":"from","type":"address"},{"indexed":true,"internalType":"address","name":"to","type":"address"}],"name":"OwnershipTransferRequested","type":"event"},{"anonymous":false,"inputs":[{"indexed":true,"internalType":"address","name":"from","type":"address"},{"indexed":true,"internalType":"address","name":"to","type":"address"}],"name":"OwnershipTransferred","type":"event"},{"anonymous":false,"inputs":[{"indexed":false,"internalType":"address","name":"account","type":"address"}],"name":"Paused","type":"event"},{"anonymous":false,"inputs":[{"indexed":false,"internalType":"uint256","name":"requestId","type":"uint256"},{"indexed":false,"internalType":"uint256[]","name":"randomWords","type":"uint256[]"}],"name":"RequestFulfilled","type":"event"},{"anonymous":false,"inputs":[{"indexed":false,"internalType":"uint256","name":"requestId","type":"uint256"},{"indexed":false,"internalType":"uint32","name":"numWords","type":"uint32"}],"name":"RequestSent","type":"event"},{"anonymous":false,"inputs":[{"indexed":false,"internalType":"address","name":"account","type":"address"}],"name":"Unpaused","type":"event"},{"anonymous":false,"inputs":[{"indexed":false,"internalType":"bytes32","name":"lotteryId","type":"bytes32"},{"indexed":false,"internalType":"address[]","name":"winners","type":"address[]"}],"name":"WinnersSelected","type":"event"},{"inputs":[],"name":"acceptOwnership","outputs":[],"stateMutability":"nonpayable","type":"function"},{"inputs":[{"internalType":"address[]","name":"_participants","type":"address[]"},{"internalType":"bytes32","name":"_lotteryId","type":"bytes32"}],"name":"addParticipants","outputs":[],"stateMutability":"nonpayable","type":"function"},{"inputs":[],"name":"callbackGasLimit","outputs":[{"internalType":"uint32","name":"","type":"uint32"}],"stateMutability":"view","type":"function"},{"inputs":[{"internalType":"uint256","name":"_amount","type":"uint256"}],"name":"createLottery","outputs":[{"internalType":"bytes32","name":"","type":"bytes32"}],"stateMutability":"payable","type":"function"},{"inputs":[],"name":"deposit","outputs":[],"stateMutability":"payable","type":"function"},{"inputs":[{"internalType":"uint256","name":"_requestId","type":"uint256"}],"name":"getRequestStatus","outputs":[{"internalType":"bool","name":"fulfilled","type":"bool"},{"internalType":"uint256[]","name":"randomWords","type":"uint256[]"}],"stateMutability":"view","type":"function"},{"inputs":[],"name":"isLotteryActive","outputs":[{"internalType":"bool","name":"","type":"bool"}],"stateMutability":"view","type":"function"},{"inputs":[],"name":"keyHash","outputs":[{"internalType":"bytes32","name":"","type":"bytes32"}],"stateMutability":"view","type":"function"},{"inputs":[],"name":"lastRequestId","outputs":[{"internalType":"uint256","name":"","type":"uint256"}],"stateMutability":"view","type":"function"},{"inputs":[{"internalType":"bytes32","name":"","type":"bytes32"}],"name":"lotteries","outputs":[{"internalType":"bool","name":"exists","type":"bool"},{"internalType":"uint256","name":"amount","type":"uint256"},{"internalType":"bool","name":"isFulfilled","type":"bool"}],"stateMutability":"view","type":"function"},{"inputs":[],"name":"nativePayment","outputs":[{"internalType":"bool","name":"","type":"bool"}],"stateMutability":"view","type":"function"},{"inputs":[],"name":"numWords","outputs":[{"internalType":"uint32","name":"","type":"uint32"}],"stateMutability":"view","type":"function"},{"inputs":[],"name":"owner","outputs":[{"internalType":"address","name":"","type":"address"}],"stateMutability":"view","type":"function"},{"inputs":[{"internalType":"bytes32","name":"","type":"bytes32"},{"internalType":"uint256","name":"","type":"uint256"}],"name":"participants","outputs":[{"internalType":"address","name":"","type":"address"}],"stateMutability":"view","type":"function"},{"inputs":[],"name":"pause","outputs":[],"stateMutability":"nonpayable","type":"function"},{"inputs":[],"name":"paused","outputs":[{"internalType":"bool","name":"","type":"bool"}],"stateMutability":"view","type":"function"},{"inputs":[{"internalType":"uint256","name":"requestId","type":"uint256"},{"internalType":"uint256[]","name":"randomWords","type":"uint256[]"}],"name":"rawFulfillRandomWords","outputs":[],"stateMutability":"nonpayable","type":"function"},{"inputs":[],"name":"requestConfirmations","outputs":[{"internalType":"uint16","name":"","type":"uint16"}],"stateMutability":"view","type":"function"},{"inputs":[{"internalType":"uint256","name":"","type":"uint256"}],"name":"requestIds","outputs":[{"internalType":"uint256","name":"","type":"uint256"}],"stateMutability":"view","type":"function"},{"inputs":[{"internalType":"uint32","name":"_winners","type":"uint32"},{"internalType":"bytes32","name":"_lotteryId","type":"bytes32"}],"name":"requestRandomWords","outputs":[{"internalType":"uint256","name":"requestId","type":"uint256"}],"stateMutability":"nonpayable","type":"function"},{"inputs":[{"internalType":"uint256","name":"","type":"uint256"}],"name":"s_requests","outputs":[{"internalType":"bool","name":"fulfilled","type":"bool"},{"internalType":"bool","name":"exists","type":"bool"},{"internalType":"bytes32","name":"lotteryId","type":"bytes32"}],"stateMutability":"view","type":"function"},{"inputs":[],"name":"s_subscriptionId","outputs":[{"internalType":"uint256","name":"","type":"uint256"}],"stateMutability":"view","type":"function"},{"inputs":[],"name":"s_vrfCoordinator","outputs":[{"internalType":"contract IVRFCoordinatorV2Plus","name":"","type":"address"}],"stateMutability":"view","type":"function"},{"inputs":[{"internalType":"uint32","name":"_callbackGasLimit","type":"uint32"}],"name":"setCallbackGasLimit","outputs":[],"stateMutability":"nonpayable","type":"function"},{"inputs":[{"internalType":"address","name":"_vrfCoordinator","type":"address"}],"name":"setCoordinator","outputs":[],"stateMutability":"nonpayable","type":"function"},{"inputs":[{"internalType":"bytes32","name":"_keyHash","type":"bytes32"}],"name":"setKeyHash","outputs":[],"stateMutability":"nonpayable","type":"function"},{"inputs":[{"internalType":"bool","name":"_nativePayment","type":"bool"}],"name":"setNativePayment","outputs":[],"stateMutability":"nonpayable","type":"function"},{"inputs":[{"internalType":"uint32","name":"_numWords","type":"uint32"}],"name":"setNumWords","outputs":[],"stateMutability":"nonpayable","type":"function"},{"inputs":[{"internalType":"uint16","name":"_requestConfirmations","type":"uint16"}],"name":"setRequestConfirmations","outputs":[],"stateMutability":"nonpayable","type":"function"},{"inputs":[{"internalType":"uint256","name":"_subscriptionId","type":"uint256"}],"name":"setSubscriptionId","outputs":[],"stateMutability":"nonpayable","type":"function"},{"inputs":[{"internalType":"uint256","name":"_subscriptionId","type":"uint256"},{"internalType":"bytes32","name":"_keyHash","type":"bytes32"},{"internalType":"uint32","name":"_callbackGasLimit","type":"uint32"},{"internalType":"uint16","name":"_requestConfirmations","type":"uint16"},{"internalType":"uint32","name":"_numWords","type":"uint32"}],"name":"setVRFConfiguration","outputs":[],"stateMutability":"nonpayable","type":"function"},{"inputs":[{"internalType":"address","name":"to","type":"address"}],"name":"transferOwnership","outputs":[],"stateMutability":"nonpayable","type":"function"},{"inputs":[],"name":"unpause","outputs":[],"stateMutability":"nonpayable","type":"function"},{"inputs":[],"name":"withdraw","outputs":[],"stateMutability":"nonpayable","type":"function"}],"evm":{"bytecode":{"linkReferences":{},"object":"6080604052600580546001600160581b03191667020003000186a0011790556009805460ff1916905534801561003457600080fd5b506040516122793803806122798339810160408190526100539161026b565b6000805460ff19168155829033908190816100b55760405162461bcd60e51b815260206004820152601860248201527f43616e6e6f7420736574206f776e657220746f207a65726f000000000000000060448201526064015b60405180910390fd5b600080546001600160a01b0380851661010002610100600160a81b0319909216919091179091558116156100ec576100ec816101bc565b5050506001600160a01b0381166101165760405163d92e233d60e01b815260040160405180910390fd5b600280546001600160a01b03929092166001600160a01b031990921691909117905560038390556004819055600554604080518581526020810184905263ffffffff610100840481168284015261ffff6501000000000085041660608301526701000000000000009093049092166080830152517f236f85804337f10833db499a7d20933e43d67d0b7836bc7059966334f8b510779181900360a00190a15050506102b1565b336001600160a01b038216036102145760405162461bcd60e51b815260206004820152601760248201527f43616e6e6f74207472616e7366657220746f2073656c6600000000000000000060448201526064016100ac565b600180546001600160a01b0319166001600160a01b0383811691821790925560008054604051929361010090910416917fed8889f560326eb138920d842192f0eb3dd22b4f139c87a2c57538e05bae12789190a350565b60008060006060848603121561028057600080fd5b835160208501519093506001600160a01b038116811461029f57600080fd5b80925050604084015190509250925092565b611fb9806102c06000396000f3fe6080604052600436106101f95760003560e01c80638da5cb5b1161010d578063b0fb162f116100a0578063d8a4676f1161006f578063d8a4676f14610613578063f2fde38b14610641578063f30c07d314610661578063f6f35d1314610681578063fc2a88c3146106a157600080fd5b8063b0fb162f1461059c578063c1e0d236146105d1578063c3b69ebb146105f1578063d0e30db01461060b57600080fd5b806398544710116100dc57806398544710146104de5780639eccacf6146104fe578063a168fa891461051e578063a4eb718c1461057c57600080fd5b80638da5cb5b146104285780638dd8c56d1461044b5780638ea981171461045e578063915c72c71461047e57600080fd5b80635a175710116101905780637ccfd7fc1161015f5780637ccfd7fc146103995780638456cb59146103bd5780638796ba8c146103d25780638824f5a7146103f25780638ac000211461041257600080fd5b80635a1757101461031e5780635c975abb1461034857806361728f391461036057806379ba50971461038457600080fd5b80633ccfd60b116101cc5780633ccfd60b1461029c5780633f4ba83a146102b1578063414d47f4146102c65780634e4f3017146102fe57600080fd5b8063037b3e80146101fe5780630c6dcd31146102205780631fe543e31461024057806324f7469714610260575b600080fd5b34801561020a57600080fd5b5061021e610219366004611b3a565b6106b7565b005b34801561022c57600080fd5b5061021e61023b366004611c12565b6107c5565b34801561024c57600080fd5b5061021e61025b366004611c3b565b610815565b34801561026c57600080fd5b5060055461028290610100900463ffffffff1681565b60405163ffffffff90911681526020015b60405180910390f35b3480156102a857600080fd5b5061021e610860565b3480156102bd57600080fd5b5061021e6108f5565b3480156102d257600080fd5b506102e66102e1366004611cbc565b610907565b6040516001600160a01b039091168152602001610293565b34801561030a57600080fd5b5061021e610319366004611d04565b61093f565b34801561032a57600080fd5b506005546103389060ff1681565b6040519015158152602001610293565b34801561035457600080fd5b5060005460ff16610338565b34801561036c57600080fd5b5061037660045481565b604051908152602001610293565b34801561039057600080fd5b5061021e610b7f565b3480156103a557600080fd5b5060055461028290600160381b900463ffffffff1681565b3480156103c957600080fd5b5061021e610c37565b3480156103de57600080fd5b506103766103ed366004611d5b565b610c47565b3480156103fe57600080fd5b5061021e61040d366004611d74565b610c68565b34801561041e57600080fd5b5061037660035481565b34801561043457600080fd5b5060005461010090046001600160a01b03166102e6565b610376610459366004611d5b565b610d16565b34801561046a57600080fd5b5061021e610479366004611d8f565b610f24565b34801561048a57600080fd5b506104bf610499366004611d5b565b600a6020526000908152604090208054600182015460029092015460ff91821692911683565b6040805193151584526020840192909252151590820152606001610293565b3480156104ea57600080fd5b5061021e6104f9366004611d5b565b611018565b34801561050a57600080fd5b506002546102e6906001600160a01b031681565b34801561052a57600080fd5b5061055f610539366004611d5b565b6006602052600090815260409020805460029091015460ff808316926101009004169083565b604080519315158452911515602084015290820152606001610293565b34801561058857600080fd5b5061021e610597366004611daa565b611095565b3480156105a857600080fd5b506005546105be90600160281b900461ffff1681565b60405161ffff9091168152602001610293565b3480156105dd57600080fd5b5061021e6105ec366004611d5b565b611143565b3480156105fd57600080fd5b506009546103389060ff1681565b61021e6111ca565b34801561061f57600080fd5b5061063361062e366004611d5b565b6111d2565b604051610293929190611dc5565b34801561064d57600080fd5b5061021e61065c366004611d8f565b6112d0565b34801561066d57600080fd5b5061021e61067c366004611daa565b6112e1565b34801561068d57600080fd5b5061037661069c366004611e16565b61138d565b3480156106ad57600080fd5b5061037660085481565b6106bf61168a565b6000818152600a602052604090205460ff1661071b5760405162461bcd60e51b8152602060048201526016602482015275131bdd1d195c9e48191bd95cc81b9bdd08195e1a5cdd60521b60448201526064015b60405180910390fd5b6000818152600a602052604090206002015460ff161561074d5760405162461bcd60e51b815260040161071290611e40565b60005b82518110156107c0576000828152600b60205260409020835184908390811061077b5761077b611e77565b60209081029190910181015182546001808201855560009485529290932090920180546001600160a01b0319166001600160a01b039093169290921790915501610750565b505050565b6107cd61168a565b6005805460ff19168215159081179091556040519081527f25659c24394778e792f547db614a797b6e5d70c5dd274055022a35ff92f52083906020015b60405180910390a150565b6002546001600160a01b031633146108555760025460405163073e64fd60e21b81523360048201526001600160a01b039091166024820152604401610712565b6107c08383836116e2565b61086861168a565b604051600090339047908381818185875af1925050503d80600081146108aa576040519150601f19603f3d011682016040523d82523d6000602084013e6108af565b606091505b50509050806108f25760405162461bcd60e51b815260206004820152600f60248201526e4661696c656420776974686472617760881b6044820152606401610712565b50565b6108fd61168a565b610905611827565b565b600b602052816000526040600020818154811061092357600080fd5b6000918252602090912001546001600160a01b03169150829050565b61094761168a565b600085116109915760405162461bcd60e51b8152602060048201526017602482015276125b9d985b1a59081cdd589cd8dc9a5c1d1a5bdb881251604a1b6044820152606401610712565b836109d15760405162461bcd60e51b815260206004820152601060248201526f092dcecc2d8d2c840d6caf240d0c2e6d60831b6044820152606401610712565b60008363ffffffff1611610a275760405162461bcd60e51b815260206004820152601a60248201527f496e76616c69642063616c6c6261636b20676173206c696d69740000000000006044820152606401610712565b60008261ffff1611610a7b5760405162461bcd60e51b815260206004820152601d60248201527f496e76616c6964207265717565737420636f6e6669726d6174696f6e730000006044820152606401610712565b60008163ffffffff1611610acb5760405162461bcd60e51b8152602060048201526017602482015276496e76616c6964206e756d626572206f6620776f72647360481b6044820152606401610712565b600385905560048490556005805466ffffffffffff00191661010063ffffffff86811691820266ffff0000000000191692909217600160281b61ffff87169081029190911763ffffffff60381b1916600160381b93861693840217909355604080518981526020810189905290810191909152606081019290925260808201527f236f85804337f10833db499a7d20933e43d67d0b7836bc7059966334f8b510779060a00160405180910390a15050505050565b6001546001600160a01b03163314610bd25760405162461bcd60e51b815260206004820152601660248201527526bab9ba10313290383937b837b9b2b21037bbb732b960511b6044820152606401610712565b6000805433610100818102610100600160a81b03198416178455600180546001600160a01b03191690556040516001600160a01b03919093041692909183917f8be0079c531659141344cd1fd0a4f28419497f9722a3daafe3b4186f6b6457e091a350565b610c3f61168a565b610905611879565b60078181548110610c5757600080fd5b600091825260209091200154905081565b610c7061168a565b60008161ffff1611610cc45760405162461bcd60e51b815260206004820152601d60248201527f496e76616c6964207265717565737420636f6e6669726d6174696f6e730000006044820152606401610712565b6005805466ffff00000000001916600160281b61ffff8416908102919091179091556040519081527f78d4876dae9e48a9c681a25123c1238c64adbeb7f55b74b07fd1f3755f04b7a49060200161080a565b6000610d2061168a565b60008211610d705760405162461bcd60e51b815260206004820152601d60248201527f416d6f756e74206d7573742062652067726561746572207468616e20300000006044820152606401610712565b813414610dd95760405162461bcd60e51b815260206004820152603160248201527f416d6f756e74206d75737420626520657175616c20746f207468652076616c7560448201527019481cd95b9d081d1bc81899481c185a59607a1b6064820152608401610712565b60408051426020808301919091523360601b6bffffffffffffffffffffffff19168284015260548083018690528351808403909101815260748301808552815191830191909120610114840185526001825260948401879052600060b485018190528551818152808501875260d4860152855181815293840190955293909260f40191905090526000828152600a60209081526040918290208351815490151560ff1991821617825584830151600183015592840151600282018054911515919094161790925560608301518051610eb79260038501920190611a1d565b5060808201518051610ed3916004840191602090910190611a68565b50506009805460ff191660011790555060408051848152602081018390527f0c8d9ee2d30adddcafd021a9cb3feddd742482ce8b7e06971d4747725b70a7d7910160405180910390a190505b919050565b60005461010090046001600160a01b03166001600160a01b0316336001600160a01b031614158015610f6157506002546001600160a01b03163314155b15610fa35760005460025460405163061db9c160e01b81523360048201526001600160a01b036101009093048316602482015291166044820152606401610712565b6001600160a01b038116610fca5760405163d92e233d60e01b815260040160405180910390fd5b600280546001600160a01b0319166001600160a01b0383169081179091556040519081527fd1a6a14209a385a964d036e404cb5cfb71f4000cdb03c9366292430787261be69060200161080a565b61102061168a565b806110605760405162461bcd60e51b815260206004820152601060248201526f092dcecc2d8d2c840d6caf240d0c2e6d60831b6044820152606401610712565b60048190556040518181527fe3f5f3924185797e0adf504bea2de12feb2fc665dea9f8f6d049a7954c6eb0b59060200161080a565b61109d61168a565b60008163ffffffff16116110f35760405162461bcd60e51b815260206004820152601a60248201527f496e76616c69642063616c6c6261636b20676173206c696d69740000000000006044820152606401610712565b6005805464ffffffff00191661010063ffffffff8416908102919091179091556040519081527f8ddf8616698889ed0733e6f86f38523227af37fba2554037b7a4b153e7b514569060200161080a565b61114b61168a565b600081116111955760405162461bcd60e51b8152602060048201526017602482015276125b9d985b1a59081cdd589cd8dc9a5c1d1a5bdb881251604a1b6044820152606401610712565b60038190556040518181527f345db99ccc4e8f24cc5807f730720ca60ce9c1a5ff8cbad6e47d17d29954b8329060200161080a565b61090561168a565b600081815260066020526040812054606090610100900460ff1661122c5760405162461bcd60e51b815260206004820152601160248201527014995c5d595cdd081b9bdd08199bdd5b99607a1b6044820152606401610712565b60008381526006602090815260408083208151608081018352815460ff80821615158352610100909104161515818501526001820180548451818702810187018652818152929593948601938301828280156112a757602002820191906000526020600020905b815481526020019060010190808311611293575b505050505081526020016002820154815250509050806000015181604001519250925050915091565b6112d861168a565b6108f2816118b6565b6112e961168a565b60008163ffffffff16116113395760405162461bcd60e51b8152602060048201526017602482015276496e76616c6964206e756d626572206f6620776f72647360481b6044820152606401610712565b6005805463ffffffff60381b1916600160381b63ffffffff8416908102919091179091556040519081527f487488fc744814b752f7c8589aabbf398f44a2fb5eb88185b23b693756537bb99060200161080a565b600061139761168a565b6000828152600a602052604090205460ff166113ee5760405162461bcd60e51b8152602060048201526016602482015275131bdd1d195c9e48191bd95cc81b9bdd08195e1a5cdd60521b6044820152606401610712565b6000828152600a602052604090206002015460ff16156114205760405162461bcd60e51b815260040161071290611e40565b6000828152600b602052604090205461147b5760405162461bcd60e51b815260206004820152601e60248201527f4e6f207061727469636970616e747320696e20746865206c6f747465727900006044820152606401610712565b60055463ffffffff600160381b9091048116906001908516111561149c5750825b6002546040805160c081018252600454815260035460208083019190915260055461ffff600160281b8204168385015263ffffffff61010082048116606085015286166080840152835191820190935260ff909216151582526001600160a01b0390921691639b1c385e9160a082019061151590611965565b8152506040518263ffffffff1660e01b81526004016115349190611e8d565b6020604051808303816000875af1158015611553573d6000803e3d6000fd5b505050506040513d601f19601f820116820180604052508101906115779190611f29565b6040805160808101825260008082526001602080840182815285518481528083018752858701908152606086018b9052878552600683529590932084518154945161ffff1990951690151561ff001916176101009415159490940293909317835593518051959750929491936115f39391850192910190611a1d565b5060609190910151600290910155600780546001810182556000919091527fa66cc928b5edb82af9bd49922954155ab7b0942694bea4ce44661d9a8736c68801829055600882905560055460408051848152600160381b90920463ffffffff1660208301527fcc58b13ad3eab50626c6a6300b1d139cd6ebb1688a7cced9461c2f7e762665ee910160405180910390a15092915050565b60005461010090046001600160a01b031633146109055760405162461bcd60e51b815260206004820152601660248201527527b7363c9031b0b63630b1363290313c9037bbb732b960511b6044820152606401610712565b600083815260066020526040902054610100900460ff166117395760405162461bcd60e51b815260206004820152601160248201527014995c5d595cdd081b9bdd08199bdd5b99607a1b6044820152606401610712565b60008381526006602090815260408083206002908101548452600a909252909120015460ff161561177c5760405162461bcd60e51b815260040161071290611e40565b6000838152600660205260409020805460ff1916600190811782556117a391018383611abd565b506000838152600660209081526040808320600290810180548552600a90935281842001805460ff191660011790559054825290206117e6906003018383611abd565b507ffe2e2d779dba245964d4e3ef9b994be63856fd568bf7d3ca9e224755cb1bd54d83838360405161181a93929190611f42565b60405180910390a1505050565b61182f6119d6565b6000805460ff191690557f5db9ee0a495bf2e6ff9c91a7834c1ba4fdd244a5e8aa4e537bd38aeae4b073aa335b6040516001600160a01b03909116815260200160405180910390a1565b6118816119f9565b6000805460ff191660011790557f62e78cea01bee320cd4e420270b5ea74000d11b0c9f74754ebdbfc544b05a25861185c3390565b336001600160a01b0382160361190e5760405162461bcd60e51b815260206004820152601760248201527f43616e6e6f74207472616e7366657220746f2073656c660000000000000000006044820152606401610712565b600180546001600160a01b0319166001600160a01b0383811691821790925560008054604051929361010090910416917fed8889f560326eb138920d842192f0eb3dd22b4f139c87a2c57538e05bae12789190a350565b60607f92fd13387c7fe7befbc38d303d6468778fb9731bc4583f17d92989c6fcfdeaaa8260405160240161199e91511515815260200190565b60408051601f198184030181529190526020810180516001600160e01b03166001600160e01b03199093169290921790915292915050565b60005460ff1661090557604051638dfc202b60e01b815260040160405180910390fd5b60005460ff16156109055760405163d93c066560e01b815260040160405180910390fd5b828054828255906000526020600020908101928215611a58579160200282015b82811115611a58578251825591602001919060010190611a3d565b50611a64929150611af8565b5090565b828054828255906000526020600020908101928215611a58579160200282015b82811115611a5857825182546001600160a01b0319166001600160a01b03909116178255602090920191600190910190611a88565b828054828255906000526020600020908101928215611a58579160200282015b82811115611a58578235825591602001919060010190611add565b5b80821115611a645760008155600101611af9565b634e487b7160e01b600052604160045260246000fd5b80356001600160a01b0381168114610f1f57600080fd5b60008060408385031215611b4d57600080fd5b823567ffffffffffffffff811115611b6457600080fd5b8301601f81018513611b7557600080fd5b803567ffffffffffffffff811115611b8f57611b8f611b0d565b8060051b604051601f19603f830116810181811067ffffffffffffffff82111715611bbc57611bbc611b0d565b604052918252602081840181019290810188841115611bda57600080fd5b6020850194505b83851015611c0057611bf285611b23565b815260209485019401611be1565b50976020969096013596505050505050565b600060208284031215611c2457600080fd5b81358015158114611c3457600080fd5b9392505050565b600080600060408486031215611c5057600080fd5b83359250602084013567ffffffffffffffff811115611c6e57600080fd5b8401601f81018613611c7f57600080fd5b803567ffffffffffffffff811115611c9657600080fd5b8660208260051b8401011115611cab57600080fd5b939660209190910195509293505050565b60008060408385031215611ccf57600080fd5b50508035926020909101359150565b803563ffffffff81168114610f1f57600080fd5b803561ffff81168114610f1f57600080fd5b600080600080600060a08688031215611d1c57600080fd5b8535945060208601359350611d3360408701611cde565b9250611d4160608701611cf2565b9150611d4f60808701611cde565b90509295509295909350565b600060208284031215611d6d57600080fd5b5035919050565b600060208284031215611d8657600080fd5b611c3482611cf2565b600060208284031215611da157600080fd5b611c3482611b23565b600060208284031215611dbc57600080fd5b611c3482611cde565b60006040820184151583526040602084015280845180835260608501915060208601925060005b81811015611e0a578351835260209384019390920191600101611dec565b50909695505050505050565b60008060408385031215611e2957600080fd5b611e3283611cde565b946020939093013593505050565b6020808252601c908201527f4c6f747465727920697320616c72656164792066756c66696c6c656400000000604082015260600190565b634e487b7160e01b600052603260045260246000fd5b60208152815160208201526020820151604082015261ffff604083015116606082015263ffffffff606083015116608082015263ffffffff60808301511660a0820152600060a083015160c08084015280518060e085015260005b81811015611f06576020818401810151610100878401015201611ee8565b5060006101008286010152610100601f19601f8301168501019250505092915050565b600060208284031215611f3b57600080fd5b5051919050565b838152604060208201819052810182905260006001600160fb1b03831115611f6957600080fd5b8260051b808560608501379190910160600194935050505056fea2646970667358221220fd6a5705207600b42aebc8f8123cf5bac07b13e93c5fd2c04804420af18f0b4364736f6c634300081a0033","opcodes":"PUSH1 0x80 PUSH1 0x40 MSTORE PUSH1 0x5 DUP1 SLOAD PUSH1 0x1 PUSH1 0x1 PUSH1 0x58 SHL SUB NOT AND PUSH8 0x20003000186A001 OR SWAP1 SSTORE PUSH1 0x9 DUP1 SLOAD PUSH1 0xFF NOT AND SWAP1 SSTORE CALLVALUE DUP1 ISZERO PUSH2 0x34 JUMPI PUSH1 0x0 DUP1 REVERT JUMPDEST POP PUSH1 0x40 MLOAD PUSH2 0x2279 CODESIZE SUB DUP1 PUSH2 0x2279 DUP4 CODECOPY DUP2 ADD PUSH1 0x40 DUP2 SWAP1 MSTORE PUSH2 0x53 SWAP2 PUSH2 0x26B JUMP JUMPDEST PUSH1 0x0 DUP1 SLOAD PUSH1 0xFF NOT AND DUP2 SSTORE DUP3 SWAP1 CALLER SWAP1 DUP2 SWAP1 DUP2 PUSH2 0xB5 JUMPI PUSH1 0x40 MLOAD PUSH3 0x461BCD PUSH1 0xE5 SHL DUP2 MSTORE PUSH1 0x20 PUSH1 0x4 DUP3 ADD MSTORE PUSH1 0x18 PUSH1 0x24 DUP3 ADD MSTORE PUSH32 0x43616E6E6F7420736574206F776E657220746F207A65726F0000000000000000 PUSH1 0x44 DUP3 ADD MSTORE PUSH1 0x64 ADD JUMPDEST PUSH1 0x40 MLOAD DUP1 SWAP2 SUB SWAP1 REVERT JUMPDEST PUSH1 0x0 DUP1 SLOAD PUSH1 0x1 PUSH1 0x1 PUSH1 0xA0 SHL SUB DUP1 DUP6 AND PUSH2 0x100 MUL PUSH2 0x100 PUSH1 0x1 PUSH1 0xA8 SHL SUB NOT SWAP1 SWAP3 AND SWAP2 SWAP1 SWAP2 OR SWAP1 SWAP2 SSTORE DUP2 AND ISZERO PUSH2 0xEC JUMPI PUSH2 0xEC DUP2 PUSH2 0x1BC JUMP JUMPDEST POP POP POP PUSH1 0x1 PUSH1 0x1 PUSH1 0xA0 SHL SUB DUP2 AND PUSH2 0x116 JUMPI PUSH1 0x40 MLOAD PUSH4 0xD92E233D PUSH1 0xE0 SHL DUP2 MSTORE PUSH1 0x4 ADD PUSH1 0x40 MLOAD DUP1 SWAP2 SUB SWAP1 REVERT JUMPDEST PUSH1 0x2 DUP1 SLOAD PUSH1 0x1 PUSH1 0x1 PUSH1 0xA0 SHL SUB SWAP3 SWAP1 SWAP3 AND PUSH1 0x1 PUSH1 0x1 PUSH1 0xA0 SHL SUB NOT SWAP1 SWAP3 AND SWAP2 SWAP1 SWAP2 OR SWAP1 SSTORE PUSH1 0x3 DUP4 SWAP1 SSTORE PUSH1 0x4 DUP2 SWAP1 SSTORE PUSH1 0x5 SLOAD PUSH1 0x40 DUP1 MLOAD DUP6 DUP2 MSTORE PUSH1 0x20 DUP2 ADD DUP5 SWAP1 MSTORE PUSH4 0xFFFFFFFF PUSH2 0x100 DUP5 DIV DUP2 AND DUP3 DUP5 ADD MSTORE PUSH2 0xFFFF PUSH6 0x10000000000 DUP6 DIV AND PUSH1 0x60 DUP4 ADD MSTORE PUSH8 0x100000000000000 SWAP1 SWAP4 DIV SWAP1 SWAP3 AND PUSH1 0x80 DUP4 ADD MSTORE MLOAD PUSH32 0x236F85804337F10833DB499A7D20933E43D67D0B7836BC7059966334F8B51077 SWAP2 DUP2 SWAP1 SUB PUSH1 0xA0 ADD SWAP1 LOG1 POP POP POP PUSH2 0x2B1 JUMP JUMPDEST CALLER PUSH1 0x1 PUSH1 0x1 PUSH1 0xA0 SHL SUB DUP3 AND SUB PUSH2 0x214 JUMPI PUSH1 0x40 MLOAD PUSH3 0x461BCD PUSH1 0xE5 SHL DUP2 MSTORE PUSH1 0x20 PUSH1 0x4 DUP3 ADD MSTORE PUSH1 0x17 PUSH1 0x24 DUP3 ADD MSTORE PUSH32 0x43616E6E6F74207472616E7366657220746F2073656C66000000000000000000 PUSH1 0x44 DUP3 ADD MSTORE PUSH1 0x64 ADD PUSH2 0xAC JUMP JUMPDEST PUSH1 0x1 DUP1 SLOAD PUSH1 0x1 PUSH1 0x1 PUSH1 0xA0 SHL SUB NOT AND PUSH1 0x1 PUSH1 0x1 PUSH1 0xA0 SHL SUB DUP4 DUP2 AND SWAP2 DUP3 OR SWAP1 SWAP3 SSTORE PUSH1 0x0 DUP1 SLOAD PUSH1 0x40 MLOAD SWAP3 SWAP4 PUSH2 0x100 SWAP1 SWAP2 DIV AND SWAP2 PUSH32 0xED8889F560326EB138920D842192F0EB3DD22B4F139C87A2C57538E05BAE1278 SWAP2 SWAP1 LOG3 POP JUMP JUMPDEST PUSH1 0x0 DUP1 PUSH1 0x0 PUSH1 0x60 DUP5 DUP7 SUB SLT ISZERO PUSH2 0x280 JUMPI PUSH1 0x0 DUP1 REVERT JUMPDEST DUP4 MLOAD PUSH1 0x20 DUP6 ADD MLOAD SWAP1 SWAP4 POP PUSH1 0x1 PUSH1 0x1 PUSH1 0xA0 SHL SUB DUP2 AND DUP2 EQ PUSH2 0x29F JUMPI PUSH1 0x0 DUP1 REVERT JUMPDEST DUP1 SWAP3 POP POP PUSH1 0x40 DUP5 ADD MLOAD SWAP1 POP SWAP3 POP SWAP3 POP SWAP3 JUMP JUMPDEST PUSH2 0x1FB9 DUP1 PUSH2 0x2C0 PUSH1 0x0 CODECOPY PUSH1 0x0 RETURN INVALID PUSH1 0x80 PUSH1 0x40 MSTORE PUSH1 0x4 CALLDATASIZE LT PUSH2 0x1F9 JUMPI PUSH1 0x0 CALLDATALOAD PUSH1 0xE0 SHR DUP1 PUSH4 0x8DA5CB5B GT PUSH2 0x10D JUMPI DUP1 PUSH4 0xB0FB162F GT PUSH2 0xA0 JUMPI DUP1 PUSH4 0xD8A4676F GT PUSH2 0x6F JUMPI DUP1 PUSH4 0xD8A4676F EQ PUSH2 0x613 JUMPI DUP1 PUSH4 0xF2FDE38B EQ PUSH2 0x641 JUMPI DUP1 PUSH4 0xF30C07D3 EQ PUSH2 0x661 JUMPI DUP1 PUSH4 0xF6F35D13 EQ PUSH2 0x681 JUMPI DUP1 PUSH4 0xFC2A88C3 EQ PUSH2 0x6A1 JUMPI PUSH1 0x0 DUP1 REVERT JUMPDEST DUP1 PUSH4 0xB0FB162F EQ PUSH2 0x59C JUMPI DUP1 PUSH4 0xC1E0D236 EQ PUSH2 0x5D1 JUMPI DUP1 PUSH4 0xC3B69EBB EQ PUSH2 0x5F1 JUMPI DUP1 PUSH4 0xD0E30DB0 EQ PUSH2 0x60B JUMPI PUSH1 0x0 DUP1 REVERT JUMPDEST DUP1 PUSH4 0x98544710 GT PUSH2 0xDC JUMPI DUP1 PUSH4 0x98544710 EQ PUSH2 0x4DE JUMPI DUP1 PUSH4 0x9ECCACF6 EQ PUSH2 0x4FE JUMPI DUP1 PUSH4 0xA168FA89 EQ PUSH2 0x51E JUMPI DUP1 PUSH4 0xA4EB718C EQ PUSH2 0x57C JUMPI PUSH1 0x0 DUP1 REVERT JUMPDEST DUP1 PUSH4 0x8DA5CB5B EQ PUSH2 0x428 JUMPI DUP1 PUSH4 0x8DD8C56D EQ PUSH2 0x44B JUMPI DUP1 PUSH4 0x8EA98117 EQ PUSH2 0x45E JUMPI DUP1 PUSH4 0x915C72C7 EQ PUSH2 0x47E JUMPI PUSH1 0x0 DUP1 REVERT JUMPDEST DUP1 PUSH4 0x5A175710 GT PUSH2 0x190 JUMPI DUP1 PUSH4 0x7CCFD7FC GT PUSH2 0x15F JUMPI DUP1 PUSH4 0x7CCFD7FC EQ PUSH2 0x399 JUMPI DUP1 PUSH4 0x8456CB59 EQ PUSH2 0x3BD JUMPI DUP1 PUSH4 0x8796BA8C EQ PUSH2 0x3D2 JUMPI DUP1 PUSH4 0x8824F5A7 EQ PUSH2 0x3F2 JUMPI DUP1 PUSH4 0x8AC00021 EQ PUSH2 0x412 JUMPI PUSH1 0x0 DUP1 REVERT JUMPDEST DUP1 PUSH4 0x5A175710 EQ PUSH2 0x31E JUMPI DUP1 PUSH4 0x5C975ABB EQ PUSH2 0x348 JUMPI DUP1 PUSH4 0x61728F39 EQ PUSH2 0x360 JUMPI DUP1 PUSH4 0x79BA5097 EQ PUSH2 0x384 JUMPI PUSH1 0x0 DUP1 REVERT JUMPDEST DUP1 PUSH4 0x3CCFD60B GT PUSH2 0x1CC JUMPI DUP1 PUSH4 0x3CCFD60B EQ PUSH2 0x29C JUMPI DUP1 PUSH4 0x3F4BA83A EQ PUSH2 0x2B1 JUMPI DUP1 PUSH4 0x414D47F4 EQ PUSH2 0x2C6 JUMPI DUP1 PUSH4 0x4E4F3017 EQ PUSH2 0x2FE JUMPI PUSH1 0x0 DUP1 REVERT JUMPDEST DUP1 PUSH4 0x37B3E80 EQ PUSH2 0x1FE JUMPI DUP1 PUSH4 0xC6DCD31 EQ PUSH2 0x220 JUMPI DUP1 PUSH4 0x1FE543E3 EQ PUSH2 0x240 JUMPI DUP1 PUSH4 0x24F74697 EQ PUSH2 0x260 JUMPI JUMPDEST PUSH1 0x0 DUP1 REVERT JUMPDEST CALLVALUE DUP1 ISZERO PUSH2 0x20A JUMPI PUSH1 0x0 DUP1 REVERT JUMPDEST POP PUSH2 0x21E PUSH2 0x219 CALLDATASIZE PUSH1 0x4 PUSH2 0x1B3A JUMP JUMPDEST PUSH2 0x6B7 JUMP JUMPDEST STOP JUMPDEST CALLVALUE DUP1 ISZERO PUSH2 0x22C JUMPI PUSH1 0x0 DUP1 REVERT JUMPDEST POP PUSH2 0x21E PUSH2 0x23B CALLDATASIZE PUSH1 0x4 PUSH2 0x1C12 JUMP JUMPDEST PUSH2 0x7C5 JUMP JUMPDEST CALLVALUE DUP1 ISZERO PUSH2 0x24C JUMPI PUSH1 0x0 DUP1 REVERT JUMPDEST POP PUSH2 0x21E PUSH2 0x25B CALLDATASIZE PUSH1 0x4 PUSH2 0x1C3B JUMP JUMPDEST PUSH2 0x815 JUMP JUMPDEST CALLVALUE DUP1 ISZERO PUSH2 0x26C JUMPI PUSH1 0x0 DUP1 REVERT JUMPDEST POP PUSH1 0x5 SLOAD PUSH2 0x282 SWAP1 PUSH2 0x100 SWAP1 DIV PUSH4 0xFFFFFFFF AND DUP2 JUMP JUMPDEST PUSH1 0x40 MLOAD PUSH4 0xFFFFFFFF SWAP1 SWAP2 AND DUP2 MSTORE PUSH1 0x20 ADD JUMPDEST PUSH1 0x40 MLOAD DUP1 SWAP2 SUB SWAP1 RETURN JUMPDEST CALLVALUE DUP1 ISZERO PUSH2 0x2A8 JUMPI PUSH1 0x0 DUP1 REVERT JUMPDEST POP PUSH2 0x21E PUSH2 0x860 JUMP JUMPDEST CALLVALUE DUP1 ISZERO PUSH2 0x2BD JUMPI PUSH1 0x0 DUP1 REVERT JUMPDEST POP PUSH2 0x21E PUSH2 0x8F5 JUMP JUMPDEST CALLVALUE DUP1 ISZERO PUSH2 0x2D2 JUMPI PUSH1 0x0 DUP1 REVERT JUMPDEST POP PUSH2 0x2E6 PUSH2 0x2E1 CALLDATASIZE PUSH1 0x4 PUSH2 0x1CBC JUMP JUMPDEST PUSH2 0x907 JUMP JUMPDEST PUSH1 0x40 MLOAD PUSH1 0x1 PUSH1 0x1 PUSH1 0xA0 SHL SUB SWAP1 SWAP2 AND DUP2 MSTORE PUSH1 0x20 ADD PUSH2 0x293 JUMP JUMPDEST CALLVALUE DUP1 ISZERO PUSH2 0x30A JUMPI PUSH1 0x0 DUP1 REVERT JUMPDEST POP PUSH2 0x21E PUSH2 0x319 CALLDATASIZE PUSH1 0x4 PUSH2 0x1D04 JUMP JUMPDEST PUSH2 0x93F JUMP JUMPDEST CALLVALUE DUP1 ISZERO PUSH2 0x32A JUMPI PUSH1 0x0 DUP1 REVERT JUMPDEST POP PUSH1 0x5 SLOAD PUSH2 0x338 SWAP1 PUSH1 0xFF AND DUP2 JUMP JUMPDEST PUSH1 0x40 MLOAD SWAP1 ISZERO ISZERO DUP2 MSTORE PUSH1 0x20 ADD PUSH2 0x293 JUMP JUMPDEST CALLVALUE DUP1 ISZERO PUSH2 0x354 JUMPI PUSH1 0x0 DUP1 REVERT JUMPDEST POP PUSH1 0x0 SLOAD PUSH1 0xFF AND PUSH2 0x338 JUMP JUMPDEST CALLVALUE DUP1 ISZERO PUSH2 0x36C JUMPI PUSH1 0x0 DUP1 REVERT JUMPDEST POP PUSH2 0x376 PUSH1 0x4 SLOAD DUP2 JUMP JUMPDEST PUSH1 0x40 MLOAD SWAP1 DUP2 MSTORE PUSH1 0x20 ADD PUSH2 0x293 JUMP JUMPDEST CALLVALUE DUP1 ISZERO PUSH2 0x390 JUMPI PUSH1 0x0 DUP1 REVERT JUMPDEST POP PUSH2 0x21E PUSH2 0xB7F JUMP JUMPDEST CALLVALUE DUP1 ISZERO PUSH2 0x3A5 JUMPI PUSH1 0x0 DUP1 REVERT JUMPDEST POP PUSH1 0x5 SLOAD PUSH2 0x282 SWAP1 PUSH1 0x1 PUSH1 0x38 SHL SWAP1 DIV PUSH4 0xFFFFFFFF AND DUP2 JUMP JUMPDEST CALLVALUE DUP1 ISZERO PUSH2 0x3C9 JUMPI PUSH1 0x0 DUP1 REVERT JUMPDEST POP PUSH2 0x21E PUSH2 0xC37 JUMP JUMPDEST CALLVALUE DUP1 ISZERO PUSH2 0x3DE JUMPI PUSH1 0x0 DUP1 REVERT JUMPDEST POP PUSH2 0x376 PUSH2 0x3ED CALLDATASIZE PUSH1 0x4 PUSH2 0x1D5B JUMP JUMPDEST PUSH2 0xC47 JUMP JUMPDEST CALLVALUE DUP1 ISZERO PUSH2 0x3FE JUMPI PUSH1 0x0 DUP1 REVERT JUMPDEST POP PUSH2 0x21E PUSH2 0x40D CALLDATASIZE PUSH1 0x4 PUSH2 0x1D74 JUMP JUMPDEST PUSH2 0xC68 JUMP JUMPDEST CALLVALUE DUP1 ISZERO PUSH2 0x41E JUMPI PUSH1 0x0 DUP1 REVERT JUMPDEST POP PUSH2 0x376 PUSH1 0x3 SLOAD DUP2 JUMP JUMPDEST CALLVALUE DUP1 ISZERO PUSH2 0x434 JUMPI PUSH1 0x0 DUP1 REVERT JUMPDEST POP PUSH1 0x0 SLOAD PUSH2 0x100 SWAP1 DIV PUSH1 0x1 PUSH1 0x1 PUSH1 0xA0 SHL SUB AND PUSH2 0x2E6 JUMP JUMPDEST PUSH2 0x376 PUSH2 0x459 CALLDATASIZE PUSH1 0x4 PUSH2 0x1D5B JUMP JUMPDEST PUSH2 0xD16 JUMP JUMPDEST CALLVALUE DUP1 ISZERO PUSH2 0x46A JUMPI PUSH1 0x0 DUP1 REVERT JUMPDEST POP PUSH2 0x21E PUSH2 0x479 CALLDATASIZE PUSH1 0x4 PUSH2 0x1D8F JUMP JUMPDEST PUSH2 0xF24 JUMP JUMPDEST CALLVALUE DUP1 ISZERO PUSH2 0x48A JUMPI PUSH1 0x0 DUP1 REVERT JUMPDEST POP PUSH2 0x4BF PUSH2 0x499 CALLDATASIZE PUSH1 0x4 PUSH2 0x1D5B JUMP JUMPDEST PUSH1 0xA PUSH1 0x20 MSTORE PUSH1 0x0 SWAP1 DUP2 MSTORE PUSH1 0x40 SWAP1 KECCAK256 DUP1 SLOAD PUSH1 0x1 DUP3 ADD SLOAD PUSH1 0x2 SWAP1 SWAP3 ADD SLOAD PUSH1 0xFF SWAP2 DUP3 AND SWAP3 SWAP2 AND DUP4 JUMP JUMPDEST PUSH1 0x40 DUP1 MLOAD SWAP4 ISZERO ISZERO DUP5 MSTORE PUSH1 0x20 DUP5 ADD SWAP3 SWAP1 SWAP3 MSTORE ISZERO ISZERO SWAP1 DUP3 ADD MSTORE PUSH1 0x60 ADD PUSH2 0x293 JUMP JUMPDEST CALLVALUE DUP1 ISZERO PUSH2 0x4EA JUMPI PUSH1 0x0 DUP1 REVERT JUMPDEST POP PUSH2 0x21E PUSH2 0x4F9 CALLDATASIZE PUSH1 0x4 PUSH2 0x1D5B JUMP JUMPDEST PUSH2 0x1018 JUMP JUMPDEST CALLVALUE DUP1 ISZERO PUSH2 0x50A JUMPI PUSH1 0x0 DUP1 REVERT JUMPDEST POP PUSH1 0x2 SLOAD PUSH2 0x2E6 SWAP1 PUSH1 0x1 PUSH1 0x1 PUSH1 0xA0 SHL SUB AND DUP2 JUMP JUMPDEST CALLVALUE DUP1 ISZERO PUSH2 0x52A JUMPI PUSH1 0x0 DUP1 REVERT JUMPDEST POP PUSH2 0x55F PUSH2 0x539 CALLDATASIZE PUSH1 0x4 PUSH2 0x1D5B JUMP JUMPDEST PUSH1 0x6 PUSH1 0x20 MSTORE PUSH1 0x0 SWAP1 DUP2 MSTORE PUSH1 0x40 SWAP1 KECCAK256 DUP1 SLOAD PUSH1 0x2 SWAP1 SWAP2 ADD SLOAD PUSH1 0xFF DUP1 DUP4 AND SWAP3 PUSH2 0x100 SWAP1 DIV AND SWAP1 DUP4 JUMP JUMPDEST PUSH1 0x40 DUP1 MLOAD SWAP4 ISZERO ISZERO DUP5 MSTORE SWAP2 ISZERO ISZERO PUSH1 0x20 DUP5 ADD MSTORE SWAP1 DUP3 ADD MSTORE PUSH1 0x60 ADD PUSH2 0x293 JUMP JUMPDEST CALLVALUE DUP1 ISZERO PUSH2 0x588 JUMPI PUSH1 0x0 DUP1 REVERT JUMPDEST POP PUSH2 0x21E PUSH2 0x597 CALLDATASIZE PUSH1 0x4 PUSH2 0x1DAA JUMP JUMPDEST PUSH2 0x1095 JUMP JUMPDEST CALLVALUE DUP1 ISZERO PUSH2 0x5A8 JUMPI PUSH1 0x0 DUP1 REVERT JUMPDEST POP PUSH1 0x5 SLOAD PUSH2 0x5BE SWAP1 PUSH1 0x1 PUSH1 0x28 SHL SWAP1 DIV PUSH2 0xFFFF AND DUP2 JUMP JUMPDEST PUSH1 0x40 MLOAD PUSH2 0xFFFF SWAP1 SWAP2 AND DUP2 MSTORE PUSH1 0x20 ADD PUSH2 0x293 JUMP JUMPDEST CALLVALUE DUP1 ISZERO PUSH2 0x5DD JUMPI PUSH1 0x0 DUP1 REVERT JUMPDEST POP PUSH2 0x21E PUSH2 0x5EC CALLDATASIZE PUSH1 0x4 PUSH2 0x1D5B JUMP JUMPDEST PUSH2 0x1143 JUMP JUMPDEST CALLVALUE DUP1 ISZERO PUSH2 0x5FD JUMPI PUSH1 0x0 DUP1 REVERT JUMPDEST POP PUSH1 0x9 SLOAD PUSH2 0x338 SWAP1 PUSH1 0xFF AND DUP2 JUMP JUMPDEST PUSH2 0x21E PUSH2 0x11CA JUMP JUMPDEST CALLVALUE DUP1 ISZERO PUSH2 0x61F JUMPI PUSH1 0x0 DUP1 REVERT JUMPDEST POP PUSH2 0x633 PUSH2 0x62E CALLDATASIZE PUSH1 0x4 PUSH2 0x1D5B JUMP JUMPDEST PUSH2 0x11D2 JUMP JUMPDEST PUSH1 0x40 MLOAD PUSH2 0x293 SWAP3 SWAP2 SWAP1 PUSH2 0x1DC5 JUMP JUMPDEST CALLVALUE DUP1 ISZERO PUSH2 0x64D JUMPI PUSH1 0x0 DUP1 REVERT JUMPDEST POP PUSH2 0x21E PUSH2 0x65C CALLDATASIZE PUSH1 0x4 PUSH2 0x1D8F JUMP JUMPDEST PUSH2 0x12D0 JUMP JUMPDEST CALLVALUE DUP1 ISZERO PUSH2 0x66D JUMPI PUSH1 0x0 DUP1 REVERT JUMPDEST POP PUSH2 0x21E PUSH2 0x67C CALLDATASIZE PUSH1 0x4 PUSH2 0x1DAA JUMP JUMPDEST PUSH2 0x12E1 JUMP JUMPDEST CALLVALUE DUP1 ISZERO PUSH2 0x68D JUMPI PUSH1 0x0 DUP1 REVERT JUMPDEST POP PUSH2 0x376 PUSH2 0x69C CALLDATASIZE PUSH1 0x4 PUSH2 0x1E16 JUMP JUMPDEST PUSH2 0x138D JUMP JUMPDEST CALLVALUE DUP1 ISZERO PUSH2 0x6AD JUMPI PUSH1 0x0 DUP1 REVERT JUMPDEST POP PUSH2 0x376 PUSH1 0x8 SLOAD DUP2 JUMP JUMPDEST PUSH2 0x6BF PUSH2 0x168A JUMP JUMPDEST PUSH1 0x0 DUP2 DUP2 MSTORE PUSH1 0xA PUSH1 0x20 MSTORE PUSH1 0x40 SWAP1 KECCAK256 SLOAD PUSH1 0xFF AND PUSH2 0x71B JUMPI PUSH1 0x40 MLOAD PUSH3 0x461BCD PUSH1 0xE5 SHL DUP2 MSTORE PUSH1 0x20 PUSH1 0x4 DUP3 ADD MSTORE PUSH1 0x16 PUSH1 0x24 DUP3 ADD MSTORE PUSH22 0x131BDD1D195C9E48191BD95CC81B9BDD08195E1A5CDD PUSH1 0x52 SHL PUSH1 0x44 DUP3 ADD MSTORE PUSH1 0x64 ADD JUMPDEST PUSH1 0x40 MLOAD DUP1 SWAP2 SUB SWAP1 REVERT JUMPDEST PUSH1 0x0 DUP2 DUP2 MSTORE PUSH1 0xA PUSH1 0x20 MSTORE PUSH1 0x40 SWAP1 KECCAK256 PUSH1 0x2 ADD SLOAD PUSH1 0xFF AND ISZERO PUSH2 0x74D JUMPI PUSH1 0x40 MLOAD PUSH3 0x461BCD PUSH1 0xE5 SHL DUP2 MSTORE PUSH1 0x4 ADD PUSH2 0x712 SWAP1 PUSH2 0x1E40 JUMP JUMPDEST PUSH1 0x0 JUMPDEST DUP3 MLOAD DUP2 LT ISZERO PUSH2 0x7C0 JUMPI PUSH1 0x0 DUP3 DUP2 MSTORE PUSH1 0xB PUSH1 0x20 MSTORE PUSH1 0x40 SWAP1 KECCAK256 DUP4 MLOAD DUP5 SWAP1 DUP4 SWAP1 DUP2 LT PUSH2 0x77B JUMPI PUSH2 0x77B PUSH2 0x1E77 JUMP JUMPDEST PUSH1 0x20 SWAP1 DUP2 MUL SWAP2 SWAP1 SWAP2 ADD DUP2 ADD MLOAD DUP3 SLOAD PUSH1 0x1 DUP1 DUP3 ADD DUP6 SSTORE PUSH1 0x0 SWAP5 DUP6 MSTORE SWAP3 SWAP1 SWAP4 KECCAK256 SWAP1 SWAP3 ADD DUP1 SLOAD PUSH1 0x1 PUSH1 0x1 PUSH1 0xA0 SHL SUB NOT AND PUSH1 0x1 PUSH1 0x1 PUSH1 0xA0 SHL SUB SWAP1 SWAP4 AND SWAP3 SWAP1 SWAP3 OR SWAP1 SWAP2 SSTORE ADD PUSH2 0x750 JUMP JUMPDEST POP POP POP JUMP JUMPDEST PUSH2 0x7CD PUSH2 0x168A JUMP JUMPDEST PUSH1 0x5 DUP1 SLOAD PUSH1 0xFF NOT AND DUP3 ISZERO ISZERO SWAP1 DUP2 OR SWAP1 SWAP2 SSTORE PUSH1 0x40 MLOAD SWAP1 DUP2 MSTORE PUSH32 0x25659C24394778E792F547DB614A797B6E5D70C5DD274055022A35FF92F52083 SWAP1 PUSH1 0x20 ADD JUMPDEST PUSH1 0x40 MLOAD DUP1 SWAP2 SUB SWAP1 LOG1 POP JUMP JUMPDEST PUSH1 0x2 SLOAD PUSH1 0x1 PUSH1 0x1 PUSH1 0xA0 SHL SUB AND CALLER EQ PUSH2 0x855 JUMPI PUSH1 0x2 SLOAD PUSH1 0x40 MLOAD PUSH4 0x73E64FD PUSH1 0xE2 SHL DUP2 MSTORE CALLER PUSH1 0x4 DUP3 ADD MSTORE PUSH1 0x1 PUSH1 0x1 PUSH1 0xA0 SHL SUB SWAP1 SWAP2 AND PUSH1 0x24 DUP3 ADD MSTORE PUSH1 0x44 ADD PUSH2 0x712 JUMP JUMPDEST PUSH2 0x7C0 DUP4 DUP4 DUP4 PUSH2 0x16E2 JUMP JUMPDEST PUSH2 0x868 PUSH2 0x168A JUMP JUMPDEST PUSH1 0x40 MLOAD PUSH1 0x0 SWAP1 CALLER SWAP1 SELFBALANCE SWAP1 DUP4 DUP2 DUP2 DUP2 DUP6 DUP8 GAS CALL SWAP3 POP POP POP RETURNDATASIZE DUP1 PUSH1 0x0 DUP2 EQ PUSH2 0x8AA JUMPI PUSH1 0x40 MLOAD SWAP2 POP PUSH1 0x1F NOT PUSH1 0x3F RETURNDATASIZE ADD AND DUP3 ADD PUSH1 0x40 MSTORE RETURNDATASIZE DUP3 MSTORE RETURNDATASIZE PUSH1 0x0 PUSH1 0x20 DUP5 ADD RETURNDATACOPY PUSH2 0x8AF JUMP JUMPDEST PUSH1 0x60 SWAP2 POP JUMPDEST POP POP SWAP1 POP DUP1 PUSH2 0x8F2 JUMPI PUSH1 0x40 MLOAD PUSH3 0x461BCD PUSH1 0xE5 SHL DUP2 MSTORE PUSH1 0x20 PUSH1 0x4 DUP3 ADD MSTORE PUSH1 0xF PUSH1 0x24 DUP3 ADD MSTORE PUSH15 0x4661696C6564207769746864726177 PUSH1 0x88 SHL PUSH1 0x44 DUP3 ADD MSTORE PUSH1 0x64 ADD PUSH2 0x712 JUMP JUMPDEST POP JUMP JUMPDEST PUSH2 0x8FD PUSH2 0x168A JUMP JUMPDEST PUSH2 0x905 PUSH2 0x1827 JUMP JUMPDEST JUMP JUMPDEST PUSH1 0xB PUSH1 0x20 MSTORE DUP2 PUSH1 0x0 MSTORE PUSH1 0x40 PUSH1 0x0 KECCAK256 DUP2 DUP2 SLOAD DUP2 LT PUSH2 0x923 JUMPI PUSH1 0x0 DUP1 REVERT JUMPDEST PUSH1 0x0 SWAP2 DUP3 MSTORE PUSH1 0x20 SWAP1 SWAP2 KECCAK256 ADD SLOAD PUSH1 0x1 PUSH1 0x1 PUSH1 0xA0 SHL SUB AND SWAP2 POP DUP3 SWAP1 POP JUMP JUMPDEST PUSH2 0x947 PUSH2 0x168A JUMP JUMPDEST PUSH1 0x0 DUP6 GT PUSH2 0x991 JUMPI PUSH1 0x40 MLOAD PUSH3 0x461BCD PUSH1 0xE5 SHL DUP2 MSTORE PUSH1 0x20 PUSH1 0x4 DUP3 ADD MSTORE PUSH1 0x17 PUSH1 0x24 DUP3 ADD MSTORE PUSH23 0x125B9D985B1A59081CDD589CD8DC9A5C1D1A5BDB881251 PUSH1 0x4A SHL PUSH1 0x44 DUP3 ADD MSTORE PUSH1 0x64 ADD PUSH2 0x712 JUMP JUMPDEST DUP4 PUSH2 0x9D1 JUMPI PUSH1 0x40 MLOAD PUSH3 0x461BCD PUSH1 0xE5 SHL DUP2 MSTORE PUSH1 0x20 PUSH1 0x4 DUP3 ADD MSTORE PUSH1 0x10 PUSH1 0x24 DUP3 ADD MSTORE PUSH16 0x92DCECC2D8D2C840D6CAF240D0C2E6D PUSH1 0x83 SHL PUSH1 0x44 DUP3 ADD MSTORE PUSH1 0x64 ADD PUSH2 0x712 JUMP JUMPDEST PUSH1 0x0 DUP4 PUSH4 0xFFFFFFFF AND GT PUSH2 0xA27 JUMPI PUSH1 0x40 MLOAD PUSH3 0x461BCD PUSH1 0xE5 SHL DUP2 MSTORE PUSH1 0x20 PUSH1 0x4 DUP3 ADD MSTORE PUSH1 0x1A PUSH1 0x24 DUP3 ADD MSTORE PUSH32 0x496E76616C69642063616C6C6261636B20676173206C696D6974000000000000 PUSH1 0x44 DUP3 ADD MSTORE PUSH1 0x64 ADD PUSH2 0x712 JUMP JUMPDEST PUSH1 0x0 DUP3 PUSH2 0xFFFF AND GT PUSH2 0xA7B JUMPI PUSH1 0x40 MLOAD PUSH3 0x461BCD PUSH1 0xE5 SHL DUP2 MSTORE PUSH1 0x20 PUSH1 0x4 DUP3 ADD MSTORE PUSH1 0x1D PUSH1 0x24 DUP3 ADD MSTORE PUSH32 0x496E76616C6964207265717565737420636F6E6669726D6174696F6E73000000 PUSH1 0x44 DUP3 ADD MSTORE PUSH1 0x64 ADD PUSH2 0x712 JUMP JUMPDEST PUSH1 0x0 DUP2 PUSH4 0xFFFFFFFF AND GT PUSH2 0xACB JUMPI PUSH1 0x40 MLOAD PUSH3 0x461BCD PUSH1 0xE5 SHL DUP2 MSTORE PUSH1 0x20 PUSH1 0x4 DUP3 ADD MSTORE PUSH1 0x17 PUSH1 0x24 DUP3 ADD MSTORE PUSH23 0x496E76616C6964206E756D626572206F6620776F726473 PUSH1 0x48 SHL PUSH1 0x44 DUP3 ADD MSTORE PUSH1 0x64 ADD PUSH2 0x712 JUMP JUMPDEST PUSH1 0x3 DUP6 SWAP1 SSTORE PUSH1 0x4 DUP5 SWAP1 SSTORE PUSH1 0x5 DUP1 SLOAD PUSH7 0xFFFFFFFFFFFF00 NOT AND PUSH2 0x100 PUSH4 0xFFFFFFFF DUP7 DUP2 AND SWAP2 DUP3 MUL PUSH7 0xFFFF0000000000 NOT AND SWAP3 SWAP1 SWAP3 OR PUSH1 0x1 PUSH1 0x28 SHL PUSH2 0xFFFF DUP8 AND SWAP1 DUP2 MUL SWAP2 SWAP1 SWAP2 OR PUSH4 0xFFFFFFFF PUSH1 0x38 SHL NOT AND PUSH1 0x1 PUSH1 0x38 SHL SWAP4 DUP7 AND SWAP4 DUP5 MUL OR SWAP1 SWAP4 SSTORE PUSH1 0x40 DUP1 MLOAD DUP10 DUP2 MSTORE PUSH1 0x20 DUP2 ADD DUP10 SWAP1 MSTORE SWAP1 DUP2 ADD SWAP2 SWAP1 SWAP2 MSTORE PUSH1 0x60 DUP2 ADD SWAP3 SWAP1 SWAP3 MSTORE PUSH1 0x80 DUP3 ADD MSTORE PUSH32 0x236F85804337F10833DB499A7D20933E43D67D0B7836BC7059966334F8B51077 SWAP1 PUSH1 0xA0 ADD PUSH1 0x40 MLOAD DUP1 SWAP2 SUB SWAP1 LOG1 POP POP POP POP POP JUMP JUMPDEST PUSH1 0x1 SLOAD PUSH1 0x1 PUSH1 0x1 PUSH1 0xA0 SHL SUB AND CALLER EQ PUSH2 0xBD2 JUMPI PUSH1 0x40 MLOAD PUSH3 0x461BCD PUSH1 0xE5 SHL DUP2 MSTORE PUSH1 0x20 PUSH1 0x4 DUP3 ADD MSTORE PUSH1 0x16 PUSH1 0x24 DUP3 ADD MSTORE PUSH22 0x26BAB9BA10313290383937B837B9B2B21037BBB732B9 PUSH1 0x51 SHL PUSH1 0x44 DUP3 ADD MSTORE PUSH1 0x64 ADD PUSH2 0x712 JUMP JUMPDEST PUSH1 0x0 DUP1 SLOAD CALLER PUSH2 0x100 DUP2 DUP2 MUL PUSH2 0x100 PUSH1 0x1 PUSH1 0xA8 SHL SUB NOT DUP5 AND OR DUP5 SSTORE PUSH1 0x1 DUP1 SLOAD PUSH1 0x1 PUSH1 0x1 PUSH1 0xA0 SHL SUB NOT AND SWAP1 SSTORE PUSH1 0x40 MLOAD PUSH1 0x1 PUSH1 0x1 PUSH1 0xA0 SHL SUB SWAP2 SWAP1 SWAP4 DIV AND SWAP3 SWAP1 SWAP2 DUP4 SWAP2 PUSH32 0x8BE0079C531659141344CD1FD0A4F28419497F9722A3DAAFE3B4186F6B6457E0 SWAP2 LOG3 POP JUMP JUMPDEST PUSH2 0xC3F PUSH2 0x168A JUMP JUMPDEST PUSH2 0x905 PUSH2 0x1879 JUMP JUMPDEST PUSH1 0x7 DUP2 DUP2 SLOAD DUP2 LT PUSH2 0xC57 JUMPI PUSH1 0x0 DUP1 REVERT JUMPDEST PUSH1 0x0 SWAP2 DUP3 MSTORE PUSH1 0x20 SWAP1 SWAP2 KECCAK256 ADD SLOAD SWAP1 POP DUP2 JUMP JUMPDEST PUSH2 0xC70 PUSH2 0x168A JUMP JUMPDEST PUSH1 0x0 DUP2 PUSH2 0xFFFF AND GT PUSH2 0xCC4 JUMPI PUSH1 0x40 MLOAD PUSH3 0x461BCD PUSH1 0xE5 SHL DUP2 MSTORE PUSH1 0x20 PUSH1 0x4 DUP3 ADD MSTORE PUSH1 0x1D PUSH1 0x24 DUP3 ADD MSTORE PUSH32 0x496E76616C6964207265717565737420636F6E6669726D6174696F6E73000000 PUSH1 0x44 DUP3 ADD MSTORE PUSH1 0x64 ADD PUSH2 0x712 JUMP JUMPDEST PUSH1 0x5 DUP1 SLOAD PUSH7 0xFFFF0000000000 NOT AND PUSH1 0x1 PUSH1 0x28 SHL PUSH2 0xFFFF DUP5 AND SWAP1 DUP2 MUL SWAP2 SWAP1 SWAP2 OR SWAP1 SWAP2 SSTORE PUSH1 0x40 MLOAD SWAP1 DUP2 MSTORE PUSH32 0x78D4876DAE9E48A9C681A25123C1238C64ADBEB7F55B74B07FD1F3755F04B7A4 SWAP1 PUSH1 0x20 ADD PUSH2 0x80A JUMP JUMPDEST PUSH1 0x0 PUSH2 0xD20 PUSH2 0x168A JUMP JUMPDEST PUSH1 0x0 DUP3 GT PUSH2 0xD70 JUMPI PUSH1 0x40 MLOAD PUSH3 0x461BCD PUSH1 0xE5 SHL DUP2 MSTORE PUSH1 0x20 PUSH1 0x4 DUP3 ADD MSTORE PUSH1 0x1D PUSH1 0x24 DUP3 ADD MSTORE PUSH32 0x416D6F756E74206D7573742062652067726561746572207468616E2030000000 PUSH1 0x44 DUP3 ADD MSTORE PUSH1 0x64 ADD PUSH2 0x712 JUMP JUMPDEST DUP2 CALLVALUE EQ PUSH2 0xDD9 JUMPI PUSH1 0x40 MLOAD PUSH3 0x461BCD PUSH1 0xE5 SHL DUP2 MSTORE PUSH1 0x20 PUSH1 0x4 DUP3 ADD MSTORE PUSH1 0x31 PUSH1 0x24 DUP3 ADD MSTORE PUSH32 0x416D6F756E74206D75737420626520657175616C20746F207468652076616C75 PUSH1 0x44 DUP3 ADD MSTORE PUSH17 0x19481CD95B9D081D1BC81899481C185A59 PUSH1 0x7A SHL PUSH1 0x64 DUP3 ADD MSTORE PUSH1 0x84 ADD PUSH2 0x712 JUMP JUMPDEST PUSH1 0x40 DUP1 MLOAD TIMESTAMP PUSH1 0x20 DUP1 DUP4 ADD SWAP2 SWAP1 SWAP2 MSTORE CALLER PUSH1 0x60 SHL PUSH12 0xFFFFFFFFFFFFFFFFFFFFFFFF NOT AND DUP3 DUP5 ADD MSTORE PUSH1 0x54 DUP1 DUP4 ADD DUP7 SWAP1 MSTORE DUP4 MLOAD DUP1 DUP5 SUB SWAP1 SWAP2 ADD DUP2 MSTORE PUSH1 0x74 DUP4 ADD DUP1 DUP6 MSTORE DUP2 MLOAD SWAP2 DUP4 ADD SWAP2 SWAP1 SWAP2 KECCAK256 PUSH2 0x114 DUP5 ADD DUP6 MSTORE PUSH1 0x1 DUP3 MSTORE PUSH1 0x94 DUP5 ADD DUP8 SWAP1 MSTORE PUSH1 0x0 PUSH1 0xB4 DUP6 ADD DUP2 SWAP1 MSTORE DUP6 MLOAD DUP2 DUP2 MSTORE DUP1 DUP6 ADD DUP8 MSTORE PUSH1 0xD4 DUP7 ADD MSTORE DUP6 MLOAD DUP2 DUP2 MSTORE SWAP4 DUP5 ADD SWAP1 SWAP6 MSTORE SWAP4 SWAP1 SWAP3 PUSH1 0xF4 ADD SWAP2 SWAP1 POP SWAP1 MSTORE PUSH1 0x0 DUP3 DUP2 MSTORE PUSH1 0xA PUSH1 0x20 SWAP1 DUP2 MSTORE PUSH1 0x40 SWAP2 DUP3 SWAP1 KECCAK256 DUP4 MLOAD DUP2 SLOAD SWAP1 ISZERO ISZERO PUSH1 0xFF NOT SWAP2 DUP3 AND OR DUP3 SSTORE DUP5 DUP4 ADD MLOAD PUSH1 0x1 DUP4 ADD SSTORE SWAP3 DUP5 ADD MLOAD PUSH1 0x2 DUP3 ADD DUP1 SLOAD SWAP2 ISZERO ISZERO SWAP2 SWAP1 SWAP5 AND OR SWAP1 SWAP3 SSTORE PUSH1 0x60 DUP4 ADD MLOAD DUP1 MLOAD PUSH2 0xEB7 SWAP3 PUSH1 0x3 DUP6 ADD SWAP3 ADD SWAP1 PUSH2 0x1A1D JUMP JUMPDEST POP PUSH1 0x80 DUP3 ADD MLOAD DUP1 MLOAD PUSH2 0xED3 SWAP2 PUSH1 0x4 DUP5 ADD SWAP2 PUSH1 0x20 SWAP1 SWAP2 ADD SWAP1 PUSH2 0x1A68 JUMP JUMPDEST POP POP PUSH1 0x9 DUP1 SLOAD PUSH1 0xFF NOT AND PUSH1 0x1 OR SWAP1 SSTORE POP PUSH1 0x40 DUP1 MLOAD DUP5 DUP2 MSTORE PUSH1 0x20 DUP2 ADD DUP4 SWAP1 MSTORE PUSH32 0xC8D9EE2D30ADDDCAFD021A9CB3FEDDD742482CE8B7E06971D4747725B70A7D7 SWAP2 ADD PUSH1 0x40 MLOAD DUP1 SWAP2 SUB SWAP1 LOG1 SWAP1 POP JUMPDEST SWAP2 SWAP1 POP JUMP JUMPDEST PUSH1 0x0 SLOAD PUSH2 0x100 SWAP1 DIV PUSH1 0x1 PUSH1 0x1 PUSH1 0xA0 SHL SUB AND PUSH1 0x1 PUSH1 0x1 PUSH1 0xA0 SHL SUB AND CALLER PUSH1 0x1 PUSH1 0x1 PUSH1 0xA0 SHL SUB AND EQ ISZERO DUP1 ISZERO PUSH2 0xF61 JUMPI POP PUSH1 0x2 SLOAD PUSH1 0x1 PUSH1 0x1 PUSH1 0xA0 SHL SUB AND CALLER EQ ISZERO JUMPDEST ISZERO PUSH2 0xFA3 JUMPI PUSH1 0x0 SLOAD PUSH1 0x2 SLOAD PUSH1 0x40 MLOAD PUSH4 0x61DB9C1 PUSH1 0xE0 SHL DUP2 MSTORE CALLER PUSH1 0x4 DUP3 ADD MSTORE PUSH1 0x1 PUSH1 0x1 PUSH1 0xA0 SHL SUB PUSH2 0x100 SWAP1 SWAP4 DIV DUP4 AND PUSH1 0x24 DUP3 ADD MSTORE SWAP2 AND PUSH1 0x44 DUP3 ADD MSTORE PUSH1 0x64 ADD PUSH2 0x712 JUMP JUMPDEST PUSH1 0x1 PUSH1 0x1 PUSH1 0xA0 SHL SUB DUP2 AND PUSH2 0xFCA JUMPI PUSH1 0x40 MLOAD PUSH4 0xD92E233D PUSH1 0xE0 SHL DUP2 MSTORE PUSH1 0x4 ADD PUSH1 0x40 MLOAD DUP1 SWAP2 SUB SWAP1 REVERT JUMPDEST PUSH1 0x2 DUP1 SLOAD PUSH1 0x1 PUSH1 0x1 PUSH1 0xA0 SHL SUB NOT AND PUSH1 0x1 PUSH1 0x1 PUSH1 0xA0 SHL SUB DUP4 AND SWAP1 DUP2 OR SWAP1 SWAP2 SSTORE PUSH1 0x40 MLOAD SWAP1 DUP2 MSTORE PUSH32 0xD1A6A14209A385A964D036E404CB5CFB71F4000CDB03C9366292430787261BE6 SWAP1 PUSH1 0x20 ADD PUSH2 0x80A JUMP JUMPDEST PUSH2 0x1020 PUSH2 0x168A JUMP JUMPDEST DUP1 PUSH2 0x1060 JUMPI PUSH1 0x40 MLOAD PUSH3 0x461BCD PUSH1 0xE5 SHL DUP2 MSTORE PUSH1 0x20 PUSH1 0x4 DUP3 ADD MSTORE PUSH1 0x10 PUSH1 0x24 DUP3 ADD MSTORE PUSH16 0x92DCECC2D8D2C840D6CAF240D0C2E6D PUSH1 0x83 SHL PUSH1 0x44 DUP3 ADD MSTORE PUSH1 0x64 ADD PUSH2 0x712 JUMP JUMPDEST PUSH1 0x4 DUP2 SWAP1 SSTORE PUSH1 0x40 MLOAD DUP2 DUP2 MSTORE PUSH32 0xE3F5F3924185797E0ADF504BEA2DE12FEB2FC665DEA9F8F6D049A7954C6EB0B5 SWAP1 PUSH1 0x20 ADD PUSH2 0x80A JUMP JUMPDEST PUSH2 0x109D PUSH2 0x168A JUMP JUMPDEST PUSH1 0x0 DUP2 PUSH4 0xFFFFFFFF AND GT PUSH2 0x10F3 JUMPI PUSH1 0x40 MLOAD PUSH3 0x461BCD PUSH1 0xE5 SHL DUP2 MSTORE PUSH1 0x20 PUSH1 0x4 DUP3 ADD MSTORE PUSH1 0x1A PUSH1 0x24 DUP3 ADD MSTORE PUSH32 0x496E76616C69642063616C6C6261636B20676173206C696D6974000000000000 PUSH1 0x44 DUP3 ADD MSTORE PUSH1 0x64 ADD PUSH2 0x712 JUMP JUMPDEST PUSH1 0x5 DUP1 SLOAD PUSH5 0xFFFFFFFF00 NOT AND PUSH2 0x100 PUSH4 0xFFFFFFFF DUP5 AND SWAP1 DUP2 MUL SWAP2 SWAP1 SWAP2 OR SWAP1 SWAP2 SSTORE PUSH1 0x40 MLOAD SWAP1 DUP2 MSTORE PUSH32 0x8DDF8616698889ED0733E6F86F38523227AF37FBA2554037B7A4B153E7B51456 SWAP1 PUSH1 0x20 ADD PUSH2 0x80A JUMP JUMPDEST PUSH2 0x114B PUSH2 0x168A JUMP JUMPDEST PUSH1 0x0 DUP2 GT PUSH2 0x1195 JUMPI PUSH1 0x40 MLOAD PUSH3 0x461BCD PUSH1 0xE5 SHL DUP2 MSTORE PUSH1 0x20 PUSH1 0x4 DUP3 ADD MSTORE PUSH1 0x17 PUSH1 0x24 DUP3 ADD MSTORE PUSH23 0x125B9D985B1A59081CDD589CD8DC9A5C1D1A5BDB881251 PUSH1 0x4A SHL PUSH1 0x44 DUP3 ADD MSTORE PUSH1 0x64 ADD PUSH2 0x712 JUMP JUMPDEST PUSH1 0x3 DUP2 SWAP1 SSTORE PUSH1 0x40 MLOAD DUP2 DUP2 MSTORE PUSH32 0x345DB99CCC4E8F24CC5807F730720CA60CE9C1A5FF8CBAD6E47D17D29954B832 SWAP1 PUSH1 0x20 ADD PUSH2 0x80A JUMP JUMPDEST PUSH2 0x905 PUSH2 0x168A JUMP JUMPDEST PUSH1 0x0 DUP2 DUP2 MSTORE PUSH1 0x6 PUSH1 0x20 MSTORE PUSH1 0x40 DUP2 KECCAK256 SLOAD PUSH1 0x60 SWAP1 PUSH2 0x100 SWAP1 DIV PUSH1 0xFF AND PUSH2 0x122C JUMPI PUSH1 0x40 MLOAD PUSH3 0x461BCD PUSH1 0xE5 SHL DUP2 MSTORE PUSH1 0x20 PUSH1 0x4 DUP3 ADD MSTORE PUSH1 0x11 PUSH1 0x24 DUP3 ADD MSTORE PUSH17 0x14995C5D595CDD081B9BDD08199BDD5B99 PUSH1 0x7A SHL PUSH1 0x44 DUP3 ADD MSTORE PUSH1 0x64 ADD PUSH2 0x712 JUMP JUMPDEST PUSH1 0x0 DUP4 DUP2 MSTORE PUSH1 0x6 PUSH1 0x20 SWAP1 DUP2 MSTORE PUSH1 0x40 DUP1 DUP4 KECCAK256 DUP2 MLOAD PUSH1 0x80 DUP2 ADD DUP4 MSTORE DUP2 SLOAD PUSH1 0xFF DUP1 DUP3 AND ISZERO ISZERO DUP4 MSTORE PUSH2 0x100 SWAP1 SWAP2 DIV AND ISZERO ISZERO DUP2 DUP6 ADD MSTORE PUSH1 0x1 DUP3 ADD DUP1 SLOAD DUP5 MLOAD DUP2 DUP8 MUL DUP2 ADD DUP8 ADD DUP7 MSTORE DUP2 DUP2 MSTORE SWAP3 SWAP6 SWAP4 SWAP5 DUP7 ADD SWAP4 DUP4 ADD DUP3 DUP3 DUP1 ISZERO PUSH2 0x12A7 JUMPI PUSH1 0x20 MUL DUP3 ADD SWAP2 SWAP1 PUSH1 0x0 MSTORE PUSH1 0x20 PUSH1 0x0 KECCAK256 SWAP1 JUMPDEST DUP2 SLOAD DUP2 MSTORE PUSH1 0x20 ADD SWAP1 PUSH1 0x1 ADD SWAP1 DUP1 DUP4 GT PUSH2 0x1293 JUMPI JUMPDEST POP POP POP POP POP DUP2 MSTORE PUSH1 0x20 ADD PUSH1 0x2 DUP3 ADD SLOAD DUP2 MSTORE POP POP SWAP1 POP DUP1 PUSH1 0x0 ADD MLOAD DUP2 PUSH1 0x40 ADD MLOAD SWAP3 POP SWAP3 POP POP SWAP2 POP SWAP2 JUMP JUMPDEST PUSH2 0x12D8 PUSH2 0x168A JUMP JUMPDEST PUSH2 0x8F2 DUP2 PUSH2 0x18B6 JUMP JUMPDEST PUSH2 0x12E9 PUSH2 0x168A JUMP JUMPDEST PUSH1 0x0 DUP2 PUSH4 0xFFFFFFFF AND GT PUSH2 0x1339 JUMPI PUSH1 0x40 MLOAD PUSH3 0x461BCD PUSH1 0xE5 SHL DUP2 MSTORE PUSH1 0x20 PUSH1 0x4 DUP3 ADD MSTORE PUSH1 0x17 PUSH1 0x24 DUP3 ADD MSTORE PUSH23 0x496E76616C6964206E756D626572206F6620776F726473 PUSH1 0x48 SHL PUSH1 0x44 DUP3 ADD MSTORE PUSH1 0x64 ADD PUSH2 0x712 JUMP JUMPDEST PUSH1 0x5 DUP1 SLOAD PUSH4 0xFFFFFFFF PUSH1 0x38 SHL NOT AND PUSH1 0x1 PUSH1 0x38 SHL PUSH4 0xFFFFFFFF DUP5 AND SWAP1 DUP2 MUL SWAP2 SWAP1 SWAP2 OR SWAP1 SWAP2 SSTORE PUSH1 0x40 MLOAD SWAP1 DUP2 MSTORE PUSH32 0x487488FC744814B752F7C8589AABBF398F44A2FB5EB88185B23B693756537BB9 SWAP1 PUSH1 0x20 ADD PUSH2 0x80A JUMP JUMPDEST PUSH1 0x0 PUSH2 0x1397 PUSH2 0x168A JUMP JUMPDEST PUSH1 0x0 DUP3 DUP2 MSTORE PUSH1 0xA PUSH1 0x20 MSTORE PUSH1 0x40 SWAP1 KECCAK256 SLOAD PUSH1 0xFF AND PUSH2 0x13EE JUMPI PUSH1 0x40 MLOAD PUSH3 0x461BCD PUSH1 0xE5 SHL DUP2 MSTORE PUSH1 0x20 PUSH1 0x4 DUP3 ADD MSTORE PUSH1 0x16 PUSH1 0x24 DUP3 ADD MSTORE PUSH22 0x131BDD1D195C9E48191BD95CC81B9BDD08195E1A5CDD PUSH1 0x52 SHL PUSH1 0x44 DUP3 ADD MSTORE PUSH1 0x64 ADD PUSH2 0x712 JUMP JUMPDEST PUSH1 0x0 DUP3 DUP2 MSTORE PUSH1 0xA PUSH1 0x20 MSTORE PUSH1 0x40 SWAP1 KECCAK256 PUSH1 0x2 ADD SLOAD PUSH1 0xFF AND ISZERO PUSH2 0x1420 JUMPI PUSH1 0x40 MLOAD PUSH3 0x461BCD PUSH1 0xE5 SHL DUP2 MSTORE PUSH1 0x4 ADD PUSH2 0x712 SWAP1 PUSH2 0x1E40 JUMP JUMPDEST PUSH1 0x0 DUP3 DUP2 MSTORE PUSH1 0xB PUSH1 0x20 MSTORE PUSH1 0x40 SWAP1 KECCAK256 SLOAD PUSH2 0x147B JUMPI PUSH1 0x40 MLOAD PUSH3 0x461BCD PUSH1 0xE5 SHL DUP2 MSTORE PUSH1 0x20 PUSH1 0x4 DUP3 ADD MSTORE PUSH1 0x1E PUSH1 0x24 DUP3 ADD MSTORE PUSH32 0x4E6F207061727469636970616E747320696E20746865206C6F74746572790000 PUSH1 0x44 DUP3 ADD MSTORE PUSH1 0x64 ADD PUSH2 0x712 JUMP JUMPDEST PUSH1 0x5 SLOAD PUSH4 0xFFFFFFFF PUSH1 0x1 PUSH1 0x38 SHL SWAP1 SWAP2 DIV DUP2 AND SWAP1 PUSH1 0x1 SWAP1 DUP6 AND GT ISZERO PUSH2 0x149C JUMPI POP DUP3 JUMPDEST PUSH1 0x2 SLOAD PUSH1 0x40 DUP1 MLOAD PUSH1 0xC0 DUP2 ADD DUP3 MSTORE PUSH1 0x4 SLOAD DUP2 MSTORE PUSH1 0x3 SLOAD PUSH1 0x20 DUP1 DUP4 ADD SWAP2 SWAP1 SWAP2 MSTORE PUSH1 0x5 SLOAD PUSH2 0xFFFF PUSH1 0x1 PUSH1 0x28 SHL DUP3 DIV AND DUP4 DUP6 ADD MSTORE PUSH4 0xFFFFFFFF PUSH2 0x100 DUP3 DIV DUP2 AND PUSH1 0x60 DUP6 ADD MSTORE DUP7 AND PUSH1 0x80 DUP5 ADD MSTORE DUP4 MLOAD SWAP2 DUP3 ADD SWAP1 SWAP4 MSTORE PUSH1 0xFF SWAP1 SWAP3 AND ISZERO ISZERO DUP3 MSTORE PUSH1 0x1 PUSH1 0x1 PUSH1 0xA0 SHL SUB SWAP1 SWAP3 AND SWAP2 PUSH4 0x9B1C385E SWAP2 PUSH1 0xA0 DUP3 ADD SWAP1 PUSH2 0x1515 SWAP1 PUSH2 0x1965 JUMP JUMPDEST DUP2 MSTORE POP PUSH1 0x40 MLOAD DUP3 PUSH4 0xFFFFFFFF AND PUSH1 0xE0 SHL DUP2 MSTORE PUSH1 0x4 ADD PUSH2 0x1534 SWAP2 SWAP1 PUSH2 0x1E8D JUMP JUMPDEST PUSH1 0x20 PUSH1 0x40 MLOAD DUP1 DUP4 SUB DUP2 PUSH1 0x0 DUP8 GAS CALL ISZERO DUP1 ISZERO PUSH2 0x1553 JUMPI RETURNDATASIZE PUSH1 0x0 DUP1 RETURNDATACOPY RETURNDATASIZE PUSH1 0x0 REVERT JUMPDEST POP POP POP POP PUSH1 0x40 MLOAD RETURNDATASIZE PUSH1 0x1F NOT PUSH1 0x1F DUP3 ADD AND DUP3 ADD DUP1 PUSH1 0x40 MSTORE POP DUP2 ADD SWAP1 PUSH2 0x1577 SWAP2 SWAP1 PUSH2 0x1F29 JUMP JUMPDEST PUSH1 0x40 DUP1 MLOAD PUSH1 0x80 DUP2 ADD DUP3 MSTORE PUSH1 0x0 DUP1 DUP3 MSTORE PUSH1 0x1 PUSH1 0x20 DUP1 DUP5 ADD DUP3 DUP2 MSTORE DUP6 MLOAD DUP5 DUP2 MSTORE DUP1 DUP4 ADD DUP8 MSTORE DUP6 DUP8 ADD SWAP1 DUP2 MSTORE PUSH1 0x60 DUP7 ADD DUP12 SWAP1 MSTORE DUP8 DUP6 MSTORE PUSH1 0x6 DUP4 MSTORE SWAP6 SWAP1 SWAP4 KECCAK256 DUP5 MLOAD DUP2 SLOAD SWAP5 MLOAD PUSH2 0xFFFF NOT SWAP1 SWAP6 AND SWAP1 ISZERO ISZERO PUSH2 0xFF00 NOT AND OR PUSH2 0x100 SWAP5 ISZERO ISZERO SWAP5 SWAP1 SWAP5 MUL SWAP4 SWAP1 SWAP4 OR DUP4 SSTORE SWAP4 MLOAD DUP1 MLOAD SWAP6 SWAP8 POP SWAP3 SWAP5 SWAP2 SWAP4 PUSH2 0x15F3 SWAP4 SWAP2 DUP6 ADD SWAP3 SWAP2 ADD SWAP1 PUSH2 0x1A1D JUMP JUMPDEST POP PUSH1 0x60 SWAP2 SWAP1 SWAP2 ADD MLOAD PUSH1 0x2 SWAP1 SWAP2 ADD SSTORE PUSH1 0x7 DUP1 SLOAD PUSH1 0x1 DUP2 ADD DUP3 SSTORE PUSH1 0x0 SWAP2 SWAP1 SWAP2 MSTORE PUSH32 0xA66CC928B5EDB82AF9BD49922954155AB7B0942694BEA4CE44661D9A8736C688 ADD DUP3 SWAP1 SSTORE PUSH1 0x8 DUP3 SWAP1 SSTORE PUSH1 0x5 SLOAD PUSH1 0x40 DUP1 MLOAD DUP5 DUP2 MSTORE PUSH1 0x1 PUSH1 0x38 SHL SWAP1 SWAP3 DIV PUSH4 0xFFFFFFFF AND PUSH1 0x20 DUP4 ADD MSTORE PUSH32 0xCC58B13AD3EAB50626C6A6300B1D139CD6EBB1688A7CCED9461C2F7E762665EE SWAP2 ADD PUSH1 0x40 MLOAD DUP1 SWAP2 SUB SWAP1 LOG1 POP SWAP3 SWAP2 POP POP JUMP JUMPDEST PUSH1 0x0 SLOAD PUSH2 0x100 SWAP1 DIV PUSH1 0x1 PUSH1 0x1 PUSH1 0xA0 SHL SUB AND CALLER EQ PUSH2 0x905 JUMPI PUSH1 0x40 MLOAD PUSH3 0x461BCD PUSH1 0xE5 SHL DUP2 MSTORE PUSH1 0x20 PUSH1 0x4 DUP3 ADD MSTORE PUSH1 0x16 PUSH1 0x24 DUP3 ADD MSTORE PUSH22 0x27B7363C9031B0B63630B1363290313C9037BBB732B9 PUSH1 0x51 SHL PUSH1 0x44 DUP3 ADD MSTORE PUSH1 0x64 ADD PUSH2 0x712 JUMP JUMPDEST PUSH1 0x0 DUP4 DUP2 MSTORE PUSH1 0x6 PUSH1 0x20 MSTORE PUSH1 0x40 SWAP1 KECCAK256 SLOAD PUSH2 0x100 SWAP1 DIV PUSH1 0xFF AND PUSH2 0x1739 JUMPI PUSH1 0x40 MLOAD PUSH3 0x461BCD PUSH1 0xE5 SHL DUP2 MSTORE PUSH1 0x20 PUSH1 0x4 DUP3 ADD MSTORE PUSH1 0x11 PUSH1 0x24 DUP3 ADD MSTORE PUSH17 0x14995C5D595CDD081B9BDD08199BDD5B99 PUSH1 0x7A SHL PUSH1 0x44 DUP3 ADD MSTORE PUSH1 0x64 ADD PUSH2 0x712 JUMP JUMPDEST PUSH1 0x0 DUP4 DUP2 MSTORE PUSH1 0x6 PUSH1 0x20 SWAP1 DUP2 MSTORE PUSH1 0x40 DUP1 DUP4 KECCAK256 PUSH1 0x2 SWAP1 DUP2 ADD SLOAD DUP5 MSTORE PUSH1 0xA SWAP1 SWAP3 MSTORE SWAP1 SWAP2 KECCAK256 ADD SLOAD PUSH1 0xFF AND ISZERO PUSH2 0x177C JUMPI PUSH1 0x40 MLOAD PUSH3 0x461BCD PUSH1 0xE5 SHL DUP2 MSTORE PUSH1 0x4 ADD PUSH2 0x712 SWAP1 PUSH2 0x1E40 JUMP JUMPDEST PUSH1 0x0 DUP4 DUP2 MSTORE PUSH1 0x6 PUSH1 0x20 MSTORE PUSH1 0x40 SWAP1 KECCAK256 DUP1 SLOAD PUSH1 0xFF NOT AND PUSH1 0x1 SWAP1 DUP2 OR DUP3 SSTORE PUSH2 0x17A3 SWAP2 ADD DUP4 DUP4 PUSH2 0x1ABD JUMP JUMPDEST POP PUSH1 0x0 DUP4 DUP2 MSTORE PUSH1 0x6 PUSH1 0x20 SWAP1 DUP2 MSTORE PUSH1 0x40 DUP1 DUP4 KECCAK256 PUSH1 0x2 SWAP1 DUP2 ADD DUP1 SLOAD DUP6 MSTORE PUSH1 0xA SWAP1 SWAP4 MSTORE DUP2 DUP5 KECCAK256 ADD DUP1 SLOAD PUSH1 0xFF NOT AND PUSH1 0x1 OR SWAP1 SSTORE SWAP1 SLOAD DUP3 MSTORE SWAP1 KECCAK256 PUSH2 0x17E6 SWAP1 PUSH1 0x3 ADD DUP4 DUP4 PUSH2 0x1ABD JUMP JUMPDEST POP PUSH32 0xFE2E2D779DBA245964D4E3EF9B994BE63856FD568BF7D3CA9E224755CB1BD54D DUP4 DUP4 DUP4 PUSH1 0x40 MLOAD PUSH2 0x181A SWAP4 SWAP3 SWAP2 SWAP1 PUSH2 0x1F42 JUMP JUMPDEST PUSH1 0x40 MLOAD DUP1 SWAP2 SUB SWAP1 LOG1 POP POP POP JUMP JUMPDEST PUSH2 0x182F PUSH2 0x19D6 JUMP JUMPDEST PUSH1 0x0 DUP1 SLOAD PUSH1 0xFF NOT AND SWAP1 SSTORE PUSH32 0x5DB9EE0A495BF2E6FF9C91A7834C1BA4FDD244A5E8AA4E537BD38AEAE4B073AA CALLER JUMPDEST PUSH1 0x40 MLOAD PUSH1 0x1 PUSH1 0x1 PUSH1 0xA0 SHL SUB SWAP1 SWAP2 AND DUP2 MSTORE PUSH1 0x20 ADD PUSH1 0x40 MLOAD DUP1 SWAP2 SUB SWAP1 LOG1 JUMP JUMPDEST PUSH2 0x1881 PUSH2 0x19F9 JUMP JUMPDEST PUSH1 0x0 DUP1 SLOAD PUSH1 0xFF NOT AND PUSH1 0x1 OR SWAP1 SSTORE PUSH32 0x62E78CEA01BEE320CD4E420270B5EA74000D11B0C9F74754EBDBFC544B05A258 PUSH2 0x185C CALLER SWAP1 JUMP JUMPDEST CALLER PUSH1 0x1 PUSH1 0x1 PUSH1 0xA0 SHL SUB DUP3 AND SUB PUSH2 0x190E JUMPI PUSH1 0x40 MLOAD PUSH3 0x461BCD PUSH1 0xE5 SHL DUP2 MSTORE PUSH1 0x20 PUSH1 0x4 DUP3 ADD MSTORE PUSH1 0x17 PUSH1 0x24 DUP3 ADD MSTORE PUSH32 0x43616E6E6F74207472616E7366657220746F2073656C66000000000000000000 PUSH1 0x44 DUP3 ADD MSTORE PUSH1 0x64 ADD PUSH2 0x712 JUMP JUMPDEST PUSH1 0x1 DUP1 SLOAD PUSH1 0x1 PUSH1 0x1 PUSH1 0xA0 SHL SUB NOT AND PUSH1 0x1 PUSH1 0x1 PUSH1 0xA0 SHL SUB DUP4 DUP2 AND SWAP2 DUP3 OR SWAP1 SWAP3 SSTORE PUSH1 0x0 DUP1 SLOAD PUSH1 0x40 MLOAD SWAP3 SWAP4 PUSH2 0x100 SWAP1 SWAP2 DIV AND SWAP2 PUSH32 0xED8889F560326EB138920D842192F0EB3DD22B4F139C87A2C57538E05BAE1278 SWAP2 SWAP1 LOG3 POP JUMP JUMPDEST PUSH1 0x60 PUSH32 0x92FD13387C7FE7BEFBC38D303D6468778FB9731BC4583F17D92989C6FCFDEAAA DUP3 PUSH1 0x40 MLOAD PUSH1 0x24 ADD PUSH2 0x199E SWAP2 MLOAD ISZERO ISZERO DUP2 MSTORE PUSH1 0x20 ADD SWAP1 JUMP JUMPDEST PUSH1 0x40 DUP1 MLOAD PUSH1 0x1F NOT DUP2 DUP5 SUB ADD DUP2 MSTORE SWAP2 SWAP1 MSTORE PUSH1 0x20 DUP2 ADD DUP1 MLOAD PUSH1 0x1 PUSH1 0x1 PUSH1 0xE0 SHL SUB AND PUSH1 0x1 PUSH1 0x1 PUSH1 0xE0 SHL SUB NOT SWAP1 SWAP4 AND SWAP3 SWAP1 SWAP3 OR SWAP1 SWAP2 MSTORE SWAP3 SWAP2 POP POP JUMP JUMPDEST PUSH1 0x0 SLOAD PUSH1 0xFF AND PUSH2 0x905 JUMPI PUSH1 0x40 MLOAD PUSH4 0x8DFC202B PUSH1 0xE0 SHL DUP2 MSTORE PUSH1 0x4 ADD PUSH1 0x40 MLOAD DUP1 SWAP2 SUB SWAP1 REVERT JUMPDEST PUSH1 0x0 SLOAD PUSH1 0xFF AND ISZERO PUSH2 0x905 JUMPI PUSH1 0x40 MLOAD PUSH4 0xD93C0665 PUSH1 0xE0 SHL DUP2 MSTORE PUSH1 0x4 ADD PUSH1 0x40 MLOAD DUP1 SWAP2 SUB SWAP1 REVERT JUMPDEST DUP3 DUP1 SLOAD DUP3 DUP3 SSTORE SWAP1 PUSH1 0x0 MSTORE PUSH1 0x20 PUSH1 0x0 KECCAK256 SWAP1 DUP2 ADD SWAP3 DUP3 ISZERO PUSH2 0x1A58 JUMPI SWAP2 PUSH1 0x20 MUL DUP3 ADD JUMPDEST DUP3 DUP2 GT ISZERO PUSH2 0x1A58 JUMPI DUP3 MLOAD DUP3 SSTORE SWAP2 PUSH1 0x20 ADD SWAP2 SWAP1 PUSH1 0x1 ADD SWAP1 PUSH2 0x1A3D JUMP JUMPDEST POP PUSH2 0x1A64 SWAP3 SWAP2 POP PUSH2 0x1AF8 JUMP JUMPDEST POP SWAP1 JUMP JUMPDEST DUP3 DUP1 SLOAD DUP3 DUP3 SSTORE SWAP1 PUSH1 0x0 MSTORE PUSH1 0x20 PUSH1 0x0 KECCAK256 SWAP1 DUP2 ADD SWAP3 DUP3 ISZERO PUSH2 0x1A58 JUMPI SWAP2 PUSH1 0x20 MUL DUP3 ADD JUMPDEST DUP3 DUP2 GT ISZERO PUSH2 0x1A58 JUMPI DUP3 MLOAD DUP3 SLOAD PUSH1 0x1 PUSH1 0x1 PUSH1 0xA0 SHL SUB NOT AND PUSH1 0x1 PUSH1 0x1 PUSH1 0xA0 SHL SUB SWAP1 SWAP2 AND OR DUP3 SSTORE PUSH1 0x20 SWAP1 SWAP3 ADD SWAP2 PUSH1 0x1 SWAP1 SWAP2 ADD SWAP1 PUSH2 0x1A88 JUMP JUMPDEST DUP3 DUP1 SLOAD DUP3 DUP3 SSTORE SWAP1 PUSH1 0x0 MSTORE PUSH1 0x20 PUSH1 0x0 KECCAK256 SWAP1 DUP2 ADD SWAP3 DUP3 ISZERO PUSH2 0x1A58 JUMPI SWAP2 PUSH1 0x20 MUL DUP3 ADD JUMPDEST DUP3 DUP2 GT ISZERO PUSH2 0x1A58 JUMPI DUP3 CALLDATALOAD DUP3 SSTORE SWAP2 PUSH1 0x20 ADD SWAP2 SWAP1 PUSH1 0x1 ADD SWAP1 PUSH2 0x1ADD JUMP JUMPDEST JUMPDEST DUP1 DUP3 GT ISZERO PUSH2 0x1A64 JUMPI PUSH1 0x0 DUP2 SSTORE PUSH1 0x1 ADD PUSH2 0x1AF9 JUMP JUMPDEST PUSH4 0x4E487B71 PUSH1 0xE0 SHL PUSH1 0x0 MSTORE PUSH1 0x41 PUSH1 0x4 MSTORE PUSH1 0x24 PUSH1 0x0 REVERT JUMPDEST DUP1 CALLDATALOAD PUSH1 0x1 PUSH1 0x1 PUSH1 0xA0 SHL SUB DUP2 AND DUP2 EQ PUSH2 0xF1F JUMPI PUSH1 0x0 DUP1 REVERT JUMPDEST PUSH1 0x0 DUP1 PUSH1 0x40 DUP4 DUP6 SUB SLT ISZERO PUSH2 0x1B4D JUMPI PUSH1 0x0 DUP1 REVERT JUMPDEST DUP3 CALLDATALOAD PUSH8 0xFFFFFFFFFFFFFFFF DUP2 GT ISZERO PUSH2 0x1B64 JUMPI PUSH1 0x0 DUP1 REVERT JUMPDEST DUP4 ADD PUSH1 0x1F DUP2 ADD DUP6 SGT PUSH2 0x1B75 JUMPI PUSH1 0x0 DUP1 REVERT JUMPDEST DUP1 CALLDATALOAD PUSH8 0xFFFFFFFFFFFFFFFF DUP2 GT ISZERO PUSH2 0x1B8F JUMPI PUSH2 0x1B8F PUSH2 0x1B0D JUMP JUMPDEST DUP1 PUSH1 0x5 SHL PUSH1 0x40 MLOAD PUSH1 0x1F NOT PUSH1 0x3F DUP4 ADD AND DUP2 ADD DUP2 DUP2 LT PUSH8 0xFFFFFFFFFFFFFFFF DUP3 GT OR ISZERO PUSH2 0x1BBC JUMPI PUSH2 0x1BBC PUSH2 0x1B0D JUMP JUMPDEST PUSH1 0x40 MSTORE SWAP2 DUP3 MSTORE PUSH1 0x20 DUP2 DUP5 ADD DUP2 ADD SWAP3 SWAP1 DUP2 ADD DUP9 DUP5 GT ISZERO PUSH2 0x1BDA JUMPI PUSH1 0x0 DUP1 REVERT JUMPDEST PUSH1 0x20 DUP6 ADD SWAP5 POP JUMPDEST DUP4 DUP6 LT ISZERO PUSH2 0x1C00 JUMPI PUSH2 0x1BF2 DUP6 PUSH2 0x1B23 JUMP JUMPDEST DUP2 MSTORE PUSH1 0x20 SWAP5 DUP6 ADD SWAP5 ADD PUSH2 0x1BE1 JUMP JUMPDEST POP SWAP8 PUSH1 0x20 SWAP7 SWAP1 SWAP7 ADD CALLDATALOAD SWAP7 POP POP POP POP POP POP JUMP JUMPDEST PUSH1 0x0 PUSH1 0x20 DUP3 DUP5 SUB SLT ISZERO PUSH2 0x1C24 JUMPI PUSH1 0x0 DUP1 REVERT JUMPDEST DUP2 CALLDATALOAD DUP1 ISZERO ISZERO DUP2 EQ PUSH2 0x1C34 JUMPI PUSH1 0x0 DUP1 REVERT JUMPDEST SWAP4 SWAP3 POP POP POP JUMP JUMPDEST PUSH1 0x0 DUP1 PUSH1 0x0 PUSH1 0x40 DUP5 DUP7 SUB SLT ISZERO PUSH2 0x1C50 JUMPI PUSH1 0x0 DUP1 REVERT JUMPDEST DUP4 CALLDATALOAD SWAP3 POP PUSH1 0x20 DUP5 ADD CALLDATALOAD PUSH8 0xFFFFFFFFFFFFFFFF DUP2 GT ISZERO PUSH2 0x1C6E JUMPI PUSH1 0x0 DUP1 REVERT JUMPDEST DUP5 ADD PUSH1 0x1F DUP2 ADD DUP7 SGT PUSH2 0x1C7F JUMPI PUSH1 0x0 DUP1 REVERT JUMPDEST DUP1 CALLDATALOAD PUSH8 0xFFFFFFFFFFFFFFFF DUP2 GT ISZERO PUSH2 0x1C96 JUMPI PUSH1 0x0 DUP1 REVERT JUMPDEST DUP7 PUSH1 0x20 DUP3 PUSH1 0x5 SHL DUP5 ADD ADD GT ISZERO PUSH2 0x1CAB JUMPI PUSH1 0x0 DUP1 REVERT JUMPDEST SWAP4 SWAP7 PUSH1 0x20 SWAP2 SWAP1 SWAP2 ADD SWAP6 POP SWAP3 SWAP4 POP POP POP JUMP JUMPDEST PUSH1 0x0 DUP1 PUSH1 0x40 DUP4 DUP6 SUB SLT ISZERO PUSH2 0x1CCF JUMPI PUSH1 0x0 DUP1 REVERT JUMPDEST POP POP DUP1 CALLDATALOAD SWAP3 PUSH1 0x20 SWAP1 SWAP2 ADD CALLDATALOAD SWAP2 POP JUMP JUMPDEST DUP1 CALLDATALOAD PUSH4 0xFFFFFFFF DUP2 AND DUP2 EQ PUSH2 0xF1F JUMPI PUSH1 0x0 DUP1 REVERT JUMPDEST DUP1 CALLDATALOAD PUSH2 0xFFFF DUP2 AND DUP2 EQ PUSH2 0xF1F JUMPI PUSH1 0x0 DUP1 REVERT JUMPDEST PUSH1 0x0 DUP1 PUSH1 0x0 DUP1 PUSH1 0x0 PUSH1 0xA0 DUP7 DUP9 SUB SLT ISZERO PUSH2 0x1D1C JUMPI PUSH1 0x0 DUP1 REVERT JUMPDEST DUP6 CALLDATALOAD SWAP5 POP PUSH1 0x20 DUP7 ADD CALLDATALOAD SWAP4 POP PUSH2 0x1D33 PUSH1 0x40 DUP8 ADD PUSH2 0x1CDE JUMP JUMPDEST SWAP3 POP PUSH2 0x1D41 PUSH1 0x60 DUP8 ADD PUSH2 0x1CF2 JUMP JUMPDEST SWAP2 POP PUSH2 0x1D4F PUSH1 0x80 DUP8 ADD PUSH2 0x1CDE JUMP JUMPDEST SWAP1 POP SWAP3 SWAP6 POP SWAP3 SWAP6 SWAP1 SWAP4 POP JUMP JUMPDEST PUSH1 0x0 PUSH1 0x20 DUP3 DUP5 SUB SLT ISZERO PUSH2 0x1D6D JUMPI PUSH1 0x0 DUP1 REVERT JUMPDEST POP CALLDATALOAD SWAP2 SWAP1 POP JUMP JUMPDEST PUSH1 0x0 PUSH1 0x20 DUP3 DUP5 SUB SLT ISZERO PUSH2 0x1D86 JUMPI PUSH1 0x0 DUP1 REVERT JUMPDEST PUSH2 0x1C34 DUP3 PUSH2 0x1CF2 JUMP JUMPDEST PUSH1 0x0 PUSH1 0x20 DUP3 DUP5 SUB SLT ISZERO PUSH2 0x1DA1 JUMPI PUSH1 0x0 DUP1 REVERT JUMPDEST PUSH2 0x1C34 DUP3 PUSH2 0x1B23 JUMP JUMPDEST PUSH1 0x0 PUSH1 0x20 DUP3 DUP5 SUB SLT ISZERO PUSH2 0x1DBC JUMPI PUSH1 0x0 DUP1 REVERT JUMPDEST PUSH2 0x1C34 DUP3 PUSH2 0x1CDE JUMP JUMPDEST PUSH1 0x0 PUSH1 0x40 DUP3 ADD DUP5 ISZERO ISZERO DUP4 MSTORE PUSH1 0x40 PUSH1 0x20 DUP5 ADD MSTORE DUP1 DUP5 MLOAD DUP1 DUP4 MSTORE PUSH1 0x60 DUP6 ADD SWAP2 POP PUSH1 0x20 DUP7 ADD SWAP3 POP PUSH1 0x0 JUMPDEST DUP2 DUP2 LT ISZERO PUSH2 0x1E0A JUMPI DUP4 MLOAD DUP4 MSTORE PUSH1 0x20 SWAP4 DUP5 ADD SWAP4 SWAP1 SWAP3 ADD SWAP2 PUSH1 0x1 ADD PUSH2 0x1DEC JUMP JUMPDEST POP SWAP1 SWAP7 SWAP6 POP POP POP POP POP POP JUMP JUMPDEST PUSH1 0x0 DUP1 PUSH1 0x40 DUP4 DUP6 SUB SLT ISZERO PUSH2 0x1E29 JUMPI PUSH1 0x0 DUP1 REVERT JUMPDEST PUSH2 0x1E32 DUP4 PUSH2 0x1CDE JUMP JUMPDEST SWAP5 PUSH1 0x20 SWAP4 SWAP1 SWAP4 ADD CALLDATALOAD SWAP4 POP POP POP JUMP JUMPDEST PUSH1 0x20 DUP1 DUP3 MSTORE PUSH1 0x1C SWAP1 DUP3 ADD MSTORE PUSH32 0x4C6F747465727920697320616C72656164792066756C66696C6C656400000000 PUSH1 0x40 DUP3 ADD MSTORE PUSH1 0x60 ADD SWAP1 JUMP JUMPDEST PUSH4 0x4E487B71 PUSH1 0xE0 SHL PUSH1 0x0 MSTORE PUSH1 0x32 PUSH1 0x4 MSTORE PUSH1 0x24 PUSH1 0x0 REVERT JUMPDEST PUSH1 0x20 DUP2 MSTORE DUP2 MLOAD PUSH1 0x20 DUP3 ADD MSTORE PUSH1 0x20 DUP3 ADD MLOAD PUSH1 0x40 DUP3 ADD MSTORE PUSH2 0xFFFF PUSH1 0x40 DUP4 ADD MLOAD AND PUSH1 0x60 DUP3 ADD MSTORE PUSH4 0xFFFFFFFF PUSH1 0x60 DUP4 ADD MLOAD AND PUSH1 0x80 DUP3 ADD MSTORE PUSH4 0xFFFFFFFF PUSH1 0x80 DUP4 ADD MLOAD AND PUSH1 0xA0 DUP3 ADD MSTORE PUSH1 0x0 PUSH1 0xA0 DUP4 ADD MLOAD PUSH1 0xC0 DUP1 DUP5 ADD MSTORE DUP1 MLOAD DUP1 PUSH1 0xE0 DUP6 ADD MSTORE PUSH1 0x0 JUMPDEST DUP2 DUP2 LT ISZERO PUSH2 0x1F06 JUMPI PUSH1 0x20 DUP2 DUP5 ADD DUP2 ADD MLOAD PUSH2 0x100 DUP8 DUP5 ADD ADD MSTORE ADD PUSH2 0x1EE8 JUMP JUMPDEST POP PUSH1 0x0 PUSH2 0x100 DUP3 DUP7 ADD ADD MSTORE PUSH2 0x100 PUSH1 0x1F NOT PUSH1 0x1F DUP4 ADD AND DUP6 ADD ADD SWAP3 POP POP POP SWAP3 SWAP2 POP POP JUMP JUMPDEST PUSH1 0x0 PUSH1 0x20 DUP3 DUP5 SUB SLT ISZERO PUSH2 0x1F3B JUMPI PUSH1 0x0 DUP1 REVERT JUMPDEST POP MLOAD SWAP2 SWAP1 POP JUMP JUMPDEST DUP4 DUP2 MSTORE PUSH1 0x40 PUSH1 0x20 DUP3 ADD DUP2 SWAP1 MSTORE DUP2 ADD DUP3 SWAP1 MSTORE PUSH1 0x0 PUSH1 0x1 PUSH1 0x1 PUSH1 0xFB SHL SUB DUP4 GT ISZERO PUSH2 0x1F69 JUMPI PUSH1 0x0 DUP1 REVERT JUMPDEST DUP3 PUSH1 0x5 SHL DUP1 DUP6 PUSH1 0x60 DUP6 ADD CALLDATACOPY SWAP2 SWAP1 SWAP2 ADD PUSH1 0x60 ADD SWAP5 SWAP4 POP POP POP POP JUMP INVALID LOG2 PUSH5 0x6970667358 0x22 SLT KECCAK256 REVERT PUSH11 0x5705207600B42AEBC8F812 EXTCODECOPY CREATE2 0xBA 0xC0 PUSH28 0x13E93C5FD2C04804420AF18F0B4364736F6C634300081A0033000000 "},"methodIdentifiers":{"acceptOwnership()":"79ba5097","addParticipants(address[],bytes32)":"037b3e80","callbackGasLimit()":"24f74697","createLottery(uint256)":"8dd8c56d","deposit()":"d0e30db0","getRequestStatus(uint256)":"d8a4676f","isLotteryActive()":"c3b69ebb","keyHash()":"61728f39","lastRequestId()":"fc2a88c3","lotteries(bytes32)":"915c72c7","nativePayment()":"5a175710","numWords()":"7ccfd7fc","owner()":"8da5cb5b","participants(bytes32,uint256)":"414d47f4","pause()":"8456cb59","paused()":"5c975abb","rawFulfillRandomWords(uint256,uint256[])":"1fe543e3","requestConfirmations()":"b0fb162f","requestIds(uint256)":"8796ba8c","requestRandomWords(uint32,bytes32)":"f6f35d13","s_requests(uint256)":"a168fa89","s_subscriptionId()":"8ac00021","s_vrfCoordinator()":"9eccacf6","setCallbackGasLimit(uint32)":"a4eb718c","setCoordinator(address)":"8ea98117","setKeyHash(bytes32)":"98544710","setNativePayment(bool)":"0c6dcd31","setNumWords(uint32)":"f30c07d3","setRequestConfirmations(uint16)":"8824f5a7","setSubscriptionId(uint256)":"c1e0d236","setVRFConfiguration(uint256,bytes32,uint32,uint16,uint32)":"4e4f3017","transferOwnership(address)":"f2fde38b","unpause()":"3f4ba83a","withdraw()":"3ccfd60b"}}}}}