{
  "_format": "hh-sol-artifact-1",
  "contractName": "VRFCoordinatorV2_5Mock",
  "sourceName": "contracts/VRFCoordinatorMock/VRFCoordinatorV2_5Mock.sol",
  "abi": [
    {
      "inputs": [
        {
          "internalType": "uint96",
          "name": "_baseFee",
          "type": "uint96"
        },
        {
          "internalType": "uint96",
          "name": "_gasPrice",
          "type": "uint96"
        },
        {
          "internalType": "int256",
          "name": "_weiPerUnitLink",
          "type": "int256"
        }
      ],
      "stateMutability": "nonpayable",
      "type": "constructor"
    },
    {
      "inputs": [
        {
          "internalType": "uint256",
          "name": "internalBalance",
          "type": "uint256"
        },
        {
          "internalType": "uint256",
          "name": "externalBalance",
          "type": "uint256"
        }
      ],
      "name": "BalanceInvariantViolated",
      "type": "error"
    },
    {
      "inputs": [],
      "name": "FailedToSendNative",
      "type": "error"
    },
    {
      "inputs": [],
      "name": "FailedToTransferLink",
      "type": "error"
    },
    {
      "inputs": [],
      "name": "IndexOutOfRange",
      "type": "error"
    },
    {
      "inputs": [],
      "name": "InsufficientBalance",
      "type": "error"
    },
    {
      "inputs": [],
      "name": "InvalidCalldata",
      "type": "error"
    },
    {
      "inputs": [
        {
          "internalType": "uint256",
          "name": "subId",
          "type": "uint256"
        },
        {
          "internalType": "address",
          "name": "consumer",
          "type": "address"
        }
      ],
      "name": "InvalidConsumer",
      "type": "error"
    },
    {
      "inputs": [],
      "name": "InvalidExtraArgsTag",
      "type": "error"
    },
    {
      "inputs": [],
      "name": "InvalidRandomWords",
      "type": "error"
    },
    {
      "inputs": [],
      "name": "InvalidRequest",
      "type": "error"
    },
    {
      "inputs": [],
      "name": "InvalidSubscription",
      "type": "error"
    },
    {
      "inputs": [],
      "name": "LinkAlreadySet",
      "type": "error"
    },
    {
      "inputs": [],
      "name": "LinkNotSet",
      "type": "error"
    },
    {
      "inputs": [
        {
          "internalType": "address",
          "name": "proposedOwner",
          "type": "address"
        }
      ],
      "name": "MustBeRequestedOwner",
      "type": "error"
    },
    {
      "inputs": [
        {
          "internalType": "address",
          "name": "owner",
          "type": "address"
        }
      ],
      "name": "MustBeSubOwner",
      "type": "error"
    },
    {
      "inputs": [],
      "name": "NotImplemented",
      "type": "error"
    },
    {
      "inputs": [],
      "name": "OnlyCallableFromLink",
      "type": "error"
    },
    {
      "inputs": [],
      "name": "PendingRequestExists",
      "type": "error"
    },
    {
      "inputs": [],
      "name": "Reentrant",
      "type": "error"
    },
    {
      "inputs": [],
      "name": "TooManyConsumers",
      "type": "error"
    },
    {
      "anonymous": false,
      "inputs": [],
      "name": "ConfigSet",
      "type": "event"
    },
    {
      "anonymous": false,
      "inputs": [
        {
          "indexed": false,
          "internalType": "address",
          "name": "to",
          "type": "address"
        },
        {
          "indexed": false,
          "internalType": "uint256",
          "name": "amount",
          "type": "uint256"
        }
      ],
      "name": "FundsRecovered",
      "type": "event"
    },
    {
      "anonymous": false,
      "inputs": [
        {
          "indexed": false,
          "internalType": "address",
          "name": "to",
          "type": "address"
        },
        {
          "indexed": false,
          "internalType": "uint256",
          "name": "amount",
          "type": "uint256"
        }
      ],
      "name": "NativeFundsRecovered",
      "type": "event"
    },
    {
      "anonymous": false,
      "inputs": [
        {
          "indexed": true,
          "internalType": "address",
          "name": "from",
          "type": "address"
        },
        {
          "indexed": true,
          "internalType": "address",
          "name": "to",
          "type": "address"
        }
      ],
      "name": "OwnershipTransferRequested",
      "type": "event"
    },
    {
      "anonymous": false,
      "inputs": [
        {
          "indexed": true,
          "internalType": "address",
          "name": "from",
          "type": "address"
        },
        {
          "indexed": true,
          "internalType": "address",
          "name": "to",
          "type": "address"
        }
      ],
      "name": "OwnershipTransferred",
      "type": "event"
    },
    {
      "anonymous": false,
      "inputs": [
        {
          "indexed": true,
          "internalType": "uint256",
          "name": "requestId",
          "type": "uint256"
        },
        {
          "indexed": false,
          "internalType": "uint256",
          "name": "outputSeed",
          "type": "uint256"
        },
        {
          "indexed": true,
          "internalType": "uint256",
          "name": "subId",
          "type": "uint256"
        },
        {
          "indexed": false,
          "internalType": "uint96",
          "name": "payment",
          "type": "uint96"
        },
        {
          "indexed": false,
          "internalType": "bool",
          "name": "nativePayment",
          "type": "bool"
        },
        {
          "indexed": false,
          "internalType": "bool",
          "name": "success",
          "type": "bool"
        },
        {
          "indexed": false,
          "internalType": "bool",
          "name": "onlyPremium",
          "type": "bool"
        }
      ],
      "name": "RandomWordsFulfilled",
      "type": "event"
    },
    {
      "anonymous": false,
      "inputs": [
        {
          "indexed": true,
          "internalType": "bytes32",
          "name": "keyHash",
          "type": "bytes32"
        },
        {
          "indexed": false,
          "internalType": "uint256",
          "name": "requestId",
          "type": "uint256"
        },
        {
          "indexed": false,
          "internalType": "uint256",
          "name": "preSeed",
          "type": "uint256"
        },
        {
          "indexed": true,
          "internalType": "uint256",
          "name": "subId",
          "type": "uint256"
        },
        {
          "indexed": false,
          "internalType": "uint16",
          "name": "minimumRequestConfirmations",
          "type": "uint16"
        },
        {
          "indexed": false,
          "internalType": "uint32",
          "name": "callbackGasLimit",
          "type": "uint32"
        },
        {
          "indexed": false,
          "internalType": "uint32",
          "name": "numWords",
          "type": "uint32"
        },
        {
          "indexed": false,
          "internalType": "bytes",
          "name": "extraArgs",
          "type": "bytes"
        },
        {
          "indexed": true,
          "internalType": "address",
          "name": "sender",
          "type": "address"
        }
      ],
      "name": "RandomWordsRequested",
      "type": "event"
    },
    {
      "anonymous": false,
      "inputs": [
        {
          "indexed": true,
          "internalType": "uint256",
          "name": "subId",
          "type": "uint256"
        },
        {
          "indexed": false,
          "internalType": "address",
          "name": "to",
          "type": "address"
        },
        {
          "indexed": false,
          "internalType": "uint256",
          "name": "amountLink",
          "type": "uint256"
        },
        {
          "indexed": false,
          "internalType": "uint256",
          "name": "amountNative",
          "type": "uint256"
        }
      ],
      "name": "SubscriptionCanceled",
      "type": "event"
    },
    {
      "anonymous": false,
      "inputs": [
        {
          "indexed": true,
          "internalType": "uint256",
          "name": "subId",
          "type": "uint256"
        },
        {
          "indexed": false,
          "internalType": "address",
          "name": "consumer",
          "type": "address"
        }
      ],
      "name": "SubscriptionConsumerAdded",
      "type": "event"
    },
    {
      "anonymous": false,
      "inputs": [
        {
          "indexed": true,
          "internalType": "uint256",
          "name": "subId",
          "type": "uint256"
        },
        {
          "indexed": false,
          "internalType": "address",
          "name": "consumer",
          "type": "address"
        }
      ],
      "name": "SubscriptionConsumerRemoved",
      "type": "event"
    },
    {
      "anonymous": false,
      "inputs": [
        {
          "indexed": true,
          "internalType": "uint256",
          "name": "subId",
          "type": "uint256"
        },
        {
          "indexed": false,
          "internalType": "address",
          "name": "owner",
          "type": "address"
        }
      ],
      "name": "SubscriptionCreated",
      "type": "event"
    },
    {
      "anonymous": false,
      "inputs": [
        {
          "indexed": true,
          "internalType": "uint256",
          "name": "subId",
          "type": "uint256"
        },
        {
          "indexed": false,
          "internalType": "uint256",
          "name": "oldBalance",
          "type": "uint256"
        },
        {
          "indexed": false,
          "internalType": "uint256",
          "name": "newBalance",
          "type": "uint256"
        }
      ],
      "name": "SubscriptionFunded",
      "type": "event"
    },
    {
      "anonymous": false,
      "inputs": [
        {
          "indexed": true,
          "internalType": "uint256",
          "name": "subId",
          "type": "uint256"
        },
        {
          "indexed": false,
          "internalType": "uint256",
          "name": "oldNativeBalance",
          "type": "uint256"
        },
        {
          "indexed": false,
          "internalType": "uint256",
          "name": "newNativeBalance",
          "type": "uint256"
        }
      ],
      "name": "SubscriptionFundedWithNative",
      "type": "event"
    },
    {
      "anonymous": false,
      "inputs": [
        {
          "indexed": true,
          "internalType": "uint256",
          "name": "subId",
          "type": "uint256"
        },
        {
          "indexed": false,
          "internalType": "address",
          "name": "from",
          "type": "address"
        },
        {
          "indexed": false,
          "internalType": "address",
          "name": "to",
          "type": "address"
        }
      ],
      "name": "SubscriptionOwnerTransferRequested",
      "type": "event"
    },
    {
      "anonymous": false,
      "inputs": [
        {
          "indexed": true,
          "internalType": "uint256",
          "name": "subId",
          "type": "uint256"
        },
        {
          "indexed": false,
          "internalType": "address",
          "name": "from",
          "type": "address"
        },
        {
          "indexed": false,
          "internalType": "address",
          "name": "to",
          "type": "address"
        }
      ],
      "name": "SubscriptionOwnerTransferred",
      "type": "event"
    },
    {
      "inputs": [],
      "name": "LINK",
      "outputs": [
        {
          "internalType": "contract LinkTokenInterface",
          "name": "",
          "type": "address"
        }
      ],
      "stateMutability": "view",
      "type": "function"
    },
    {
      "inputs": [],
      "name": "LINK_NATIVE_FEED",
      "outputs": [
        {
          "internalType": "contract AggregatorV3Interface",
          "name": "",
          "type": "address"
        }
      ],
      "stateMutability": "view",
      "type": "function"
    },
    {
      "inputs": [],
      "name": "MAX_CONSUMERS",
      "outputs": [
        {
          "internalType": "uint16",
          "name": "",
          "type": "uint16"
        }
      ],
      "stateMutability": "view",
      "type": "function"
    },
    {
      "inputs": [],
      "name": "acceptOwnership",
      "outputs": [],
      "stateMutability": "nonpayable",
      "type": "function"
    },
    {
      "inputs": [
        {
          "internalType": "uint256",
          "name": "subId",
          "type": "uint256"
        }
      ],
      "name": "acceptSubscriptionOwnerTransfer",
      "outputs": [],
      "stateMutability": "nonpayable",
      "type": "function"
    },
    {
      "inputs": [
        {
          "internalType": "uint256",
          "name": "subId",
          "type": "uint256"
        },
        {
          "internalType": "address",
          "name": "consumer",
          "type": "address"
        }
      ],
      "name": "addConsumer",
      "outputs": [],
      "stateMutability": "nonpayable",
      "type": "function"
    },
    {
      "inputs": [
        {
          "internalType": "uint256",
          "name": "_subId",
          "type": "uint256"
        },
        {
          "internalType": "address",
          "name": "_to",
          "type": "address"
        }
      ],
      "name": "cancelSubscription",
      "outputs": [],
      "stateMutability": "nonpayable",
      "type": "function"
    },
    {
      "inputs": [
        {
          "internalType": "uint256",
          "name": "_subId",
          "type": "uint256"
        },
        {
          "internalType": "address",
          "name": "_consumer",
          "type": "address"
        }
      ],
      "name": "consumerIsAdded",
      "outputs": [
        {
          "internalType": "bool",
          "name": "",
          "type": "bool"
        }
      ],
      "stateMutability": "view",
      "type": "function"
    },
    {
      "inputs": [],
      "name": "createSubscription",
      "outputs": [
        {
          "internalType": "uint256",
          "name": "subId",
          "type": "uint256"
        }
      ],
      "stateMutability": "nonpayable",
      "type": "function"
    },
    {
      "inputs": [
        {
          "internalType": "uint256",
          "name": "_requestId",
          "type": "uint256"
        },
        {
          "internalType": "address",
          "name": "_consumer",
          "type": "address"
        }
      ],
      "name": "fulfillRandomWords",
      "outputs": [],
      "stateMutability": "nonpayable",
      "type": "function"
    },
    {
      "inputs": [
        {
          "internalType": "uint256",
          "name": "_requestId",
          "type": "uint256"
        },
        {
          "internalType": "address",
          "name": "_consumer",
          "type": "address"
        },
        {
          "internalType": "uint256[]",
          "name": "_words",
          "type": "uint256[]"
        }
      ],
      "name": "fulfillRandomWordsWithOverride",
      "outputs": [],
      "stateMutability": "nonpayable",
      "type": "function"
    },
    {
      "inputs": [
        {
          "internalType": "uint256",
          "name": "_subId",
          "type": "uint256"
        },
        {
          "internalType": "uint256",
          "name": "_amount",
          "type": "uint256"
        }
      ],
      "name": "fundSubscription",
      "outputs": [],
      "stateMutability": "nonpayable",
      "type": "function"
    },
    {
      "inputs": [
        {
          "internalType": "uint256",
          "name": "subId",
          "type": "uint256"
        }
      ],
      "name": "fundSubscriptionWithNative",
      "outputs": [],
      "stateMutability": "payable",
      "type": "function"
    },
    {
      "inputs": [
        {
          "internalType": "uint256",
          "name": "startIndex",
          "type": "uint256"
        },
        {
          "internalType": "uint256",
          "name": "maxCount",
          "type": "uint256"
        }
      ],
      "name": "getActiveSubscriptionIds",
      "outputs": [
        {
          "internalType": "uint256[]",
          "name": "ids",
          "type": "uint256[]"
        }
      ],
      "stateMutability": "view",
      "type": "function"
    },
    {
      "inputs": [
        {
          "internalType": "uint256",
          "name": "subId",
          "type": "uint256"
        }
      ],
      "name": "getSubscription",
      "outputs": [
        {
          "internalType": "uint96",
          "name": "balance",
          "type": "uint96"
        },
        {
          "internalType": "uint96",
          "name": "nativeBalance",
          "type": "uint96"
        },
        {
          "internalType": "uint64",
          "name": "reqCount",
          "type": "uint64"
        },
        {
          "internalType": "address",
          "name": "subOwner",
          "type": "address"
        },
        {
          "internalType": "address[]",
          "name": "consumers",
          "type": "address[]"
        }
      ],
      "stateMutability": "view",
      "type": "function"
    },
    {
      "inputs": [],
      "name": "i_base_fee",
      "outputs": [
        {
          "internalType": "uint96",
          "name": "",
          "type": "uint96"
        }
      ],
      "stateMutability": "view",
      "type": "function"
    },
    {
      "inputs": [],
      "name": "i_gas_price",
      "outputs": [
        {
          "internalType": "uint96",
          "name": "",
          "type": "uint96"
        }
      ],
      "stateMutability": "view",
      "type": "function"
    },
    {
      "inputs": [],
      "name": "i_wei_per_unit_link",
      "outputs": [
        {
          "internalType": "int256",
          "name": "",
          "type": "int256"
        }
      ],
      "stateMutability": "view",
      "type": "function"
    },
    {
      "inputs": [
        {
          "internalType": "address",
          "name": "",
          "type": "address"
        },
        {
          "internalType": "uint256",
          "name": "amount",
          "type": "uint256"
        },
        {
          "internalType": "bytes",
          "name": "data",
          "type": "bytes"
        }
      ],
      "name": "onTokenTransfer",
      "outputs": [],
      "stateMutability": "nonpayable",
      "type": "function"
    },
    {
      "inputs": [],
      "name": "owner",
      "outputs": [
        {
          "internalType": "address",
          "name": "",
          "type": "address"
        }
      ],
      "stateMutability": "view",
      "type": "function"
    },
    {
      "inputs": [
        {
          "internalType": "uint256",
          "name": "subId",
          "type": "uint256"
        }
      ],
      "name": "ownerCancelSubscription",
      "outputs": [],
      "stateMutability": "nonpayable",
      "type": "function"
    },
    {
      "inputs": [
        {
          "internalType": "uint256",
          "name": "",
          "type": "uint256"
        }
      ],
      "name": "pendingRequestExists",
      "outputs": [
        {
          "internalType": "bool",
          "name": "",
          "type": "bool"
        }
      ],
      "stateMutability": "pure",
      "type": "function"
    },
    {
      "inputs": [
        {
          "internalType": "address",
          "name": "to",
          "type": "address"
        }
      ],
      "name": "recoverFunds",
      "outputs": [],
      "stateMutability": "nonpayable",
      "type": "function"
    },
    {
      "inputs": [
        {
          "internalType": "address payable",
          "name": "to",
          "type": "address"
        }
      ],
      "name": "recoverNativeFunds",
      "outputs": [],
      "stateMutability": "nonpayable",
      "type": "function"
    },
    {
      "inputs": [
        {
          "internalType": "uint256",
          "name": "_subId",
          "type": "uint256"
        },
        {
          "internalType": "address",
          "name": "_consumer",
          "type": "address"
        }
      ],
      "name": "removeConsumer",
      "outputs": [],
      "stateMutability": "nonpayable",
      "type": "function"
    },
    {
      "inputs": [
        {
          "components": [
            {
              "internalType": "bytes32",
              "name": "keyHash",
              "type": "bytes32"
            },
            {
              "internalType": "uint256",
              "name": "subId",
              "type": "uint256"
            },
            {
              "internalType": "uint16",
              "name": "requestConfirmations",
              "type": "uint16"
            },
            {
              "internalType": "uint32",
              "name": "callbackGasLimit",
              "type": "uint32"
            },
            {
              "internalType": "uint32",
              "name": "numWords",
              "type": "uint32"
            },
            {
              "internalType": "bytes",
              "name": "extraArgs",
              "type": "bytes"
            }
          ],
          "internalType": "struct VRFV2PlusClient.RandomWordsRequest",
          "name": "_req",
          "type": "tuple"
        }
      ],
      "name": "requestRandomWords",
      "outputs": [
        {
          "internalType": "uint256",
          "name": "",
          "type": "uint256"
        }
      ],
      "stateMutability": "nonpayable",
      "type": "function"
    },
    {
      "inputs": [
        {
          "internalType": "uint256",
          "name": "subId",
          "type": "uint256"
        },
        {
          "internalType": "address",
          "name": "newOwner",
          "type": "address"
        }
      ],
      "name": "requestSubscriptionOwnerTransfer",
      "outputs": [],
      "stateMutability": "nonpayable",
      "type": "function"
    },
    {
      "inputs": [],
      "name": "s_config",
      "outputs": [
        {
          "internalType": "uint16",
          "name": "minimumRequestConfirmations",
          "type": "uint16"
        },
        {
          "internalType": "uint32",
          "name": "maxGasLimit",
          "type": "uint32"
        },
        {
          "internalType": "bool",
          "name": "reentrancyLock",
          "type": "bool"
        },
        {
          "internalType": "uint32",
          "name": "stalenessSeconds",
          "type": "uint32"
        },
        {
          "internalType": "uint32",
          "name": "gasAfterPaymentCalculation",
          "type": "uint32"
        },
        {
          "internalType": "uint32",
          "name": "fulfillmentFlatFeeNativePPM",
          "type": "uint32"
        },
        {
          "internalType": "uint32",
          "name": "fulfillmentFlatFeeLinkDiscountPPM",
          "type": "uint32"
        },
        {
          "internalType": "uint8",
          "name": "nativePremiumPercentage",
          "type": "uint8"
        },
        {
          "internalType": "uint8",
          "name": "linkPremiumPercentage",
          "type": "uint8"
        }
      ],
      "stateMutability": "view",
      "type": "function"
    },
    {
      "inputs": [],
      "name": "s_currentSubNonce",
      "outputs": [
        {
          "internalType": "uint64",
          "name": "",
          "type": "uint64"
        }
      ],
      "stateMutability": "view",
      "type": "function"
    },
    {
      "inputs": [],
      "name": "s_totalBalance",
      "outputs": [
        {
          "internalType": "uint96",
          "name": "",
          "type": "uint96"
        }
      ],
      "stateMutability": "view",
      "type": "function"
    },
    {
      "inputs": [],
      "name": "s_totalNativeBalance",
      "outputs": [
        {
          "internalType": "uint96",
          "name": "",
          "type": "uint96"
        }
      ],
      "stateMutability": "view",
      "type": "function"
    },
    {
      "inputs": [],
      "name": "setConfig",
      "outputs": [],
      "stateMutability": "nonpayable",
      "type": "function"
    },
    {
      "inputs": [
        {
          "internalType": "address",
          "name": "link",
          "type": "address"
        },
        {
          "internalType": "address",
          "name": "linkNativeFeed",
          "type": "address"
        }
      ],
      "name": "setLINKAndLINKNativeFeed",
      "outputs": [],
      "stateMutability": "nonpayable",
      "type": "function"
    },
    {
      "inputs": [
        {
          "internalType": "address",
          "name": "to",
          "type": "address"
        }
      ],
      "name": "transferOwnership",
      "outputs": [],
      "stateMutability": "nonpayable",
      "type": "function"
    },
    {
      "inputs": [
        {
          "internalType": "address",
          "name": "recipient",
          "type": "address"
        }
      ],
      "name": "withdraw",
      "outputs": [],
      "stateMutability": "nonpayable",
      "type": "function"
    },
    {
      "inputs": [
        {
          "internalType": "address payable",
          "name": "recipient",
          "type": "address"
        }
      ],
      "name": "withdrawNative",
      "outputs": [],
      "stateMutability": "nonpayable",
      "type": "function"
    }
  ],
  "bytecode": "0x60e06040526001600e556064600f5534801561001a57600080fd5b506040516137e93803806137e983398101604081905261003991610294565b338060008161008f5760405162461bcd60e51b815260206004820152601860248201527f43616e6e6f7420736574206f776e657220746f207a65726f000000000000000060448201526064015b60405180910390fd5b600080546001600160a01b0319166001600160a01b03848116919091179091558116156100bf576100bf816100ea565b5050506001600160601b03808416608052821660a05260c08190526100e2610193565b5050506102d0565b336001600160a01b038216036101425760405162461bcd60e51b815260206004820152601760248201527f43616e6e6f74207472616e7366657220746f2073656c660000000000000000006044820152606401610086565b600180546001600160a01b0319166001600160a01b0383811691821790925560008054604051929316917fed8889f560326eb138920d842192f0eb3dd22b4f139c87a2c57538e05bae12789190a350565b61019b61021c565b6040805161012081018252600080825260208201819052818301819052606082018190526080820181905260a0820181905260c0820181905260e08201819052610100909101819052600c80546001600160c81b031916905590517f4b2974a542484cba2783812ff8033f7fc682cac2fe0905c28c5e27869b3155be9190a1565b6000546001600160a01b031633146102765760405162461bcd60e51b815260206004820152601660248201527f4f6e6c792063616c6c61626c65206279206f776e6572000000000000000000006044820152606401610086565b565b80516001600160601b038116811461028f57600080fd5b919050565b6000806000606084860312156102a957600080fd5b6102b284610278565b92506102c060208501610278565b9150604084015190509250925092565b60805160a05160c0516134d56103146000396000818161035f0152610b8501526000818161078a0152610b0c0152600081816104180152610b5701526134d56000f3fe60806040526004361061020f5760003560e01c80638b673e7a11610118578063aefb212f116100a0578063dac83d291161006f578063dac83d2914610727578063dc311dd314610747578063dcab3dcf14610778578063e72f6e30146107ac578063f2fde38b146107cc57600080fd5b8063aefb212f1461069a578063b2a7cac5146106c7578063bec4c08c146106e7578063cb6317971461070757600080fd5b80639b1c385e116100e75780639b1c385e146105ed5780639d40a6fd1461060d578063a21a23e414610645578063a4c0ed361461065a578063aa433aff1461067a57600080fd5b80638b673e7a146105875780638da5cb5b1461059c578063953e9c75146105ba57806395b55cfc146105da57600080fd5b806341af6c871161019b57806372e9d5651161016a57806372e9d565146104f257806379ba509714610512578063808974ff146105275780638402595e1461054757806386fe91c71461056757600080fd5b806341af6c871461045a57806351cff8d91461048a57806364d51a2a146104aa57806365982744146104d257600080fd5b806313478329116101e2578063134783291461034d57806318e3dd271461038f5780631b6b6d23146103ce5780631eebc117146104065780632f622e6b1461043a57600080fd5b8063088070f51461021457806308e3898e146102eb5780630ae095401461030d578063115e3c0d1461032d575b600080fd5b34801561022057600080fd5b50600c546102899061ffff81169063ffffffff62010000820481169160ff600160301b82048116926701000000000000008304811692600160581b8104821692600160781b8204831692600160981b83041691600160b81b8104821691600160c01b9091041689565b6040805161ffff909a168a5263ffffffff98891660208b01529615159689019690965293861660608801529185166080870152841660a08601529290921660c084015260ff91821660e084015216610100820152610120015b60405180910390f35b3480156102f757600080fd5b5061030b610306366004612cd3565b6107ec565b005b34801561031957600080fd5b5061030b610328366004612da0565b610c72565b34801561033957600080fd5b5061030b610348366004612dd0565b610d72565b34801561035957600080fd5b506103817f000000000000000000000000000000000000000000000000000000000000000081565b6040519081526020016102e2565b34801561039b57600080fd5b50600a546103b690600160601b90046001600160601b031681565b6040516001600160601b0390911681526020016102e2565b3480156103da57600080fd5b506002546103ee906001600160a01b031681565b6040516001600160a01b0390911681526020016102e2565b34801561041257600080fd5b506103b67f000000000000000000000000000000000000000000000000000000000000000081565b34801561044657600080fd5b5061030b610455366004612df2565b610e86565b34801561046657600080fd5b5061047a610475366004612e0f565b610f2c565b60405190151581526020016102e2565b34801561049657600080fd5b5061030b6104a5366004612df2565b610f47565b3480156104b657600080fd5b506104bf606481565b60405161ffff90911681526020016102e2565b3480156104de57600080fd5b5061030b6104ed366004612e28565b611067565b3480156104fe57600080fd5b506003546103ee906001600160a01b031681565b34801561051e57600080fd5b5061030b6110c7565b34801561053357600080fd5b5061030b610542366004612da0565b611176565b34801561055357600080fd5b5061030b610562366004612df2565b61119a565b34801561057357600080fd5b50600a546103b6906001600160601b031681565b34801561059357600080fd5b5061030b6112b6565b3480156105a857600080fd5b506000546001600160a01b03166103ee565b3480156105c657600080fd5b5061047a6105d5366004612da0565b61133f565b61030b6105e8366004612e0f565b61136d565b3480156105f957600080fd5b50610381610608366004612e56565b61147d565b34801561061957600080fd5b5060075461062d906001600160401b031681565b6040516001600160401b0390911681526020016102e2565b34801561065157600080fd5b506103816116e1565b34801561066657600080fd5b5061030b610675366004612e90565b6118b2565b34801561068657600080fd5b5061030b610695366004612e0f565b611a0f565b3480156106a657600080fd5b506106ba6106b5366004612dd0565b611a42565b6040516102e29190612f56565b3480156106d357600080fd5b5061030b6106e2366004612e0f565b611b3b565b3480156106f357600080fd5b5061030b610702366004612da0565b611c2a565b34801561071357600080fd5b5061030b610722366004612da0565b611d1c565b34801561073357600080fd5b5061030b610742366004612da0565b611fa2565b34801561075357600080fd5b50610767610762366004612e0f565b61203d565b6040516102e2959493929190612f69565b34801561078457600080fd5b506103b67f000000000000000000000000000000000000000000000000000000000000000081565b3480156107b857600080fd5b5061030b6107c7366004612df2565b612116565b3480156107d857600080fd5b5061030b6107e7366004612df2565b6122e0565b60005a6000858152601060205260408120549192500361081f576040516341abc80160e01b815260040160405180910390fd5b6000848152601060209081526040808320815160808101835281548152600182015463ffffffff8082169583019590955264010000000090049093169183019190915260028101805460608401919061087790612ff3565b80601f01602080910402602001604051908101604052809291908181526020018280546108a390612ff3565b80156108f05780601f106108c5576101008083540402835291602001916108f0565b820191906000526020600020905b8154815290600101906020018083116108d357829003601f168201915b505050505081525050905082516000036109bf57806040015163ffffffff166001600160401b0381111561092657610926612c8d565b60405190808252806020026020018201604052801561094f578160200160208202803683370190505b50925060005b816040015163ffffffff168110156109b95760408051602081018890529081018290526060016040516020818303038152906040528051906020012060001c8482815181106109a6576109a661302d565b6020908102919091010152600101610955565b506109ea565b806040015163ffffffff168351146109ea57604051631f9efadb60e11b815260040160405180910390fd5b600080631fe543e360e01b8786604051602401610a08929190613043565b60408051601f19818403018152918152602080830180516001600160e01b03166001600160e01b031990951694909417909352600c805466ff0000000000001916600160301b1790559185015191519092506000916001600160a01b0389169163ffffffff90911690610a7c908590613088565b60006040518083038160008787f1925050503d8060008114610aba576040519150601f19603f3d011682016040523d82523d6000602084013e610abf565b606091505b5050600c805466ff0000000000001916905560608501518051919250600091610aea906001906130ba565b81518110610afa57610afa61302d565b60209101015160f81c600114905060007f00000000000000000000000000000000000000000000000000000000000000006001600160601b03165a610b3f90896130ba565b610b4991906130cd565b610b7c906001600160601b037f0000000000000000000000000000000000000000000000000000000000000000166130e4565b905081610bc3577f0000000000000000000000000000000000000000000000000000000000000000610bb682670de0b6b3a76400006130cd565b610bc091906130f7565b90505b85518190610bd490829085906122f4565b60008b815260106020526040812081815560018101805467ffffffffffffffff1916905590610c066002830182612baa565b50508651604080518d81526001600160601b03841660208201528515158183015286151560608201526000608082015290518d917faeb4b4786571e184246d39587f659abf0e26f41f6a3358692250382c0cdb47b7919081900360a00190a35050505050505050505050565b81610c7c8161244c565b610c846124a1565b600080610c90856124ce565b915091506000846001600160a01b0316826001600160601b031660405160006040518083038185875af1925050503d8060008114610cea576040519150601f19603f3d011682016040523d82523d6000602084013e610cef565b606091505b5050905080610d115760405163950b247960e01b815260040160405180910390fd5b604080516001600160a01b03871681526001600160601b03808616602083015284169181019190915286907f8c74ce8b8cf87f5eb001275c8be27eb34ea2b62bfab6814fcc62192bb63e81c4906060015b60405180910390a2505050505050565b6000828152600560205260409020546001600160a01b0316610da757604051630fb532db60e11b815260040160405180910390fd5b600082815260066020526040812080546001600160601b031691839190610dce8385613119565b92506101000a8154816001600160601b0302191690836001600160601b0316021790555081600a60008282829054906101000a90046001600160601b0316610e169190613119565b92506101000a8154816001600160601b0302191690836001600160601b03160217905550827f1ced9348ff549fceab2ac57cd3a9de38edaaab274b725ee82c23e8fc8c4eec7a828484610e6991906130e4565b6040805192835260208301919091520160405180910390a2505050565b610e8e6124a1565b610e96612678565b600b54600160601b90046001600160601b0316610eb48115156126cb565b600b80546bffffffffffffffffffffffff60601b19169055600a8054829190600c90610ef1908490600160601b90046001600160601b0316613138565b92506101000a8154816001600160601b0302191690836001600160601b03160217905550610f2882826001600160601b03166126e9565b5050565b600060405163d623472560e01b815260040160405180910390fd5b610f4f6124a1565b610f57612678565b6002546001600160a01b0316610f805760405163c1f0c0a160e01b815260040160405180910390fd5b600b546001600160601b0316610f978115156126cb565b600b80546001600160601b0319169055600a8054829190600090610fc59084906001600160601b0316613138565b82546101009290920a6001600160601b0381810219909316918316021790915560025460405163a9059cbb60e01b81526001600160a01b0386811660048301529285166024820152610f28935091169063a9059cbb906044015b6020604051808303816000875af115801561103e573d6000803e3d6000fd5b505050506040513d601f19601f820116820180604052508101906110629190613165565b6126cb565b61106f612678565b6002546001600160a01b03161561109957604051631688c53760e11b815260040160405180910390fd5b600280546001600160a01b039384166001600160a01b03199182161790915560038054929093169116179055565b6001546001600160a01b0316331461111f5760405162461bcd60e51b815260206004820152601660248201527526bab9ba10313290383937b837b9b2b21037bbb732b960511b60448201526064015b60405180910390fd5b60008054336001600160a01b0319808316821784556001805490911690556040516001600160a01b0390921692909183917f8be0079c531659141344cd1fd0a4f28419497f9722a3daafe3b4186f6b6457e091a350565b61117e6124a1565b604080516000815260208101909152610f2890839083906107ec565b6111a2612678565b600a544790600160601b90046001600160601b0316818111156111e2576040516354ced18160e11b81526004810182905260248101839052604401611116565b818110156112b15760006111f682846130ba565b90506000846001600160a01b03168260405160006040518083038185875af1925050503d8060008114611245576040519150601f19603f3d011682016040523d82523d6000602084013e61124a565b606091505b505090508061126c5760405163950b247960e01b815260040160405180910390fd5b604080516001600160a01b0387168152602081018490527f4aed7c8eed0496c8c19ea2681fcca25741c1602342e38b045d9f1e8e905d2e9c910160405180910390a150505b505050565b6112be612678565b6040805161012081018252600080825260208201819052818301819052606082018190526080820181905260a0820181905260c0820181905260e08201819052610100909101819052600c80546001600160c81b031916905590517f4b2974a542484cba2783812ff8033f7fc682cac2fe0905c28c5e27869b3155be9190a1565b6001600160a01b038116600090815260046020908152604080832085845290915290205460ff165b92915050565b6113756124a1565b600081815260056020526040902054611396906001600160a01b031661275d565b60008181526006602052604090208054600160601b90046001600160601b0316903490600c6113c58385613119565b92506101000a8154816001600160601b0302191690836001600160601b0316021790555034600a600c8282829054906101000a90046001600160601b031661140d9190613119565b92506101000a8154816001600160601b0302191690836001600160601b03160217905550817f7603b205d03651ee812f803fccde89f1012e545a9c99f0abfea9cedd0fd8e90282348461146091906130e4565b604080519283526020830191909152015b60405180910390a25050565b60006114876124a1565b816020013533611497828261133f565b6114c6576040516379bfd40160e01b8152600481018390526001600160a01b0382166024820152604401611116565b602080850135600081815260059092526040909120546001600160a01b031661150257604051630fb532db60e11b815260040160405180910390fd5b600e80546000918261151383613182565b90915550600f8054919250600091908261152c83613182565b909155509050600061155161154c61154760a08b018b61319b565b612784565b61280c565b905060405180608001604052808960200135815260200189606001602081019061157b91906131e8565b63ffffffff16815260200161159660a08b0160808c016131e8565b63ffffffff1681526020016115ae60a08b018b61319b565b8080601f01602080910402602001604051908101604052809392919081815260200183838082843760009201829052509390945250508581526010602090815260409182902084518155908401516001820180549386015163ffffffff9081166401000000000267ffffffffffffffff199095169216919091179290921790915560608301519091506002820190611646908261325c565b50905050336001600160a01b0316886020013589600001357feb0e3652e0f44f417695e6e90f2f42c99b65cd7169074c5a654b16b9748c3a4e86868d6040016020810190611694919061331a565b8e60600160208101906116a791906131e8565b8f60800160208101906116ba91906131e8565b896040516116cd9695949392919061333e565b60405180910390a450909695505050505050565b60006116eb6124a1565b6007546001600160401b0316336117036001436130ba565b6040516001600160601b0319606093841b81166020830152914060348201523090921b1660548201526001600160c01b031960c083901b16606882015260700160408051601f19818403018152919052805160209091012091506117688160016133a4565b6007805467ffffffffffffffff19166001600160401b03928316179055604080516000808252608082018352602080830182815283850183815260608086018581528a86526006855287862093518454935191516001600160601b039182166001600160c01b031990951694909417600160601b9190921602176001600160c01b0316600160c01b9290981691909102969096179055835194850184523385528481018281528585018481528884526005835294909220855181546001600160a01b03199081166001600160a01b0392831617835593516001830180549095169116179092559251805192949391926118679260028501920190612be4565b506118779150600890508461287d565b5060405133815283907f1d3015d7ba850fa198dc7b1a3f5d42779313a681035f77c8c03764c61005518d9060200160405180910390a2505090565b6118ba6124a1565b6002546001600160a01b031633146118e5576040516344b0e3c360e01b815260040160405180910390fd5b6020811461190657604051638129bbcd60e01b815260040160405180910390fd5b600061191482840184612e0f565b600081815260056020526040902054909150611938906001600160a01b031661275d565b600081815260066020526040812080546001600160601b03169186919061195f8385613119565b92506101000a8154816001600160601b0302191690836001600160601b0316021790555084600a60008282829054906101000a90046001600160601b03166119a79190613119565b92506101000a8154816001600160601b0302191690836001600160601b03160217905550817f1ced9348ff549fceab2ac57cd3a9de38edaaab274b725ee82c23e8fc8c4eec7a8287846119fa91906130e4565b60408051928352602083019190915201610d62565b611a17612678565b6000818152600560205260409020546001600160a01b0316611a388161275d565b610f288282612889565b60606000611a50600861296c565b9050808410611a7257604051631390f2a160e01b815260040160405180910390fd5b6000611a7e84866130e4565b905081811180611a8c575083155b611a965780611a98565b815b90506000611aa686836130ba565b9050806001600160401b03811115611ac057611ac0612c8d565b604051908082528060200260200182016040528015611ae9578160200160208202803683370190505b50935060005b81811015611b3157611b0c611b0488836130e4565b600890612976565b858281518110611b1e57611b1e61302d565b6020908102919091010152600101611aef565b5050505092915050565b611b436124a1565b6000818152600560205260409020546001600160a01b0316611b648161275d565b6000828152600560205260409020600101546001600160a01b03163314611bbd576000828152600560205260409081902060010154905163d084e97560e01b81526001600160a01b039091166004820152602401611116565b6000828152600560209081526040918290208054336001600160a01b03199182168117835560019092018054909116905582516001600160a01b03851681529182015283917fd4114ab6e9af9f597c52041f32d62dc57c5c4e4c0d4427006069635e216c93869101611471565b81611c348161244c565b611c3c6124a1565b6001600160a01b03821660009081526004602090815260408083208684529091529020805460ff1615611c6f5750505050565b6000848152600560205260409020600201805460631901611ca3576040516305a48e0f60e01b815260040160405180910390fd5b8154600160ff199091168117835581549081018255600082815260209081902090910180546001600160a01b0319166001600160a01b03871690811790915560405190815286917f1e980d04aa7648e205713e5e8ea3808672ac163d10936d36f91b2c88ac1575e1910160405180910390a25050505050565b81611d268161244c565b8282611d32828261133f565b611d61576040516379bfd40160e01b8152600481018390526001600160a01b0382166024820152604401611116565b611d696124a1565b6001600160a01b038416600090815260046020908152604080832088845290915290205460ff16611dbf576040516379bfd40160e01b8152600481018690526001600160a01b0385166024820152604401611116565b600085815260056020908152604080832060020180548251818502810185019093528083529192909190830182828015611e2257602002820191906000526020600020905b81546001600160a01b03168152600190910190602001808311611e04575b50505050509050600060018251611e3991906130ba565b905060005b8251811015611f3a57866001600160a01b0316838281518110611e6357611e6361302d565b60200260200101516001600160a01b031603611f32576000838381518110611e8d57611e8d61302d565b6020026020010151905080600560008b81526020019081526020016000206002018381548110611ebf57611ebf61302d565b600091825260208083209190910180546001600160a01b0319166001600160a01b0394909416939093179092558a8152600590915260409020600201805480611f0a57611f0a6133c3565b600082815260209020810160001990810180546001600160a01b031916905501905550611f3a565b600101611e3e565b506001600160a01b03861660008181526004602090815260408083208b8452825291829020805460ff19169055905191825288917f32158c6058347c1601b2d12bc696ac6901d8a9a9aa3ba10c27ab0a983e8425a7910160405180910390a250505050505050565b81611fac8161244c565b611fb46124a1565b600083815260056020526040902060018101546001600160a01b03848116911614612037576001810180546001600160a01b0319166001600160a01b03851690811790915560408051338152602081019290925285917f21a4dad170a6bf476c31bbcf4a16628295b0e450672eec25d7c93308e05344a191015b60405180910390a25b50505050565b600081815260056020526040812054819081906001600160a01b031660606120648261275d565b600086815260066020908152604080832054600583529281902060020180548251818502810185019093528083526001600160601b0380861695600160601b810490911694600160c01b9091046001600160401b03169388939290918391908301828280156120fc57602002820191906000526020600020905b81546001600160a01b031681526001909101906020018083116120de575b505050505090509450945094509450945091939590929450565b61211e612678565b6002546001600160a01b03166121475760405163c1f0c0a160e01b815260040160405180910390fd5b6002546040516370a0823160e01b81523060048201526000916001600160a01b0316906370a0823190602401602060405180830381865afa158015612190573d6000803e3d6000fd5b505050506040513d601f19601f820116820180604052508101906121b491906133d9565b600a549091506001600160601b0316818111156121ee576040516354ced18160e11b81526004810182905260248101839052604401611116565b818110156112b157600061220282846130ba565b60025460405163a9059cbb60e01b81526001600160a01b0387811660048301526024820184905292935091169063a9059cbb906044016020604051808303816000875af1158015612257573d6000803e3d6000fd5b505050506040513d601f19601f8201168201806040525081019061227b9190613165565b61229857604051631f01ff1360e21b815260040160405180910390fd5b604080516001600160a01b0386168152602081018390527f59bfc682b673f8cbf945f1e454df9334834abf7dfe7f92237ca29ecb9b436600910160405180910390a150505050565b6122e8612678565b6122f181612982565b50565b600081815260066020526040902082156123b85780546001600160601b03600160601b909104811690851681101561233f57604051631e9acf1760e31b815260040160405180910390fd5b6123498582613138565b82546bffffffffffffffffffffffff60601b1916600160601b6001600160601b039283168102919091178455600b805488939192600c9261238e928692900416613119565b92506101000a8154816001600160601b0302191690836001600160601b0316021790555050612037565b80546001600160601b039081169085168110156123e857604051631e9acf1760e31b815260040160405180910390fd5b6123f28582613138565b82546001600160601b0319166001600160601b03918216178355600b8054879260009161242191859116613119565b92506101000a8154816001600160601b0302191690836001600160601b031602179055505050505050565b6000818152600560205260409020546001600160a01b031661246d8161275d565b336001600160a01b03821614610f2857604051636c51fda960e11b81526001600160a01b0382166004820152602401611116565b600c54600160301b900460ff16156124cc5760405163769dd35360e11b815260040160405180910390fd5b565b60008181526005602090815260408083206006909252822054600290910180546001600160601b0380841694600160601b90940416925b8181101561257257600460008483815481106125235761252361302d565b60009182526020808320909101546001600160a01b0316835282810193909352604091820181208982529092529020805470ffffffffffffffffffffffffffffffffff19169055600101612505565b50600085815260056020526040812080546001600160a01b031990811682556001820180549091169055906125aa6002830182612c49565b50506000858152600660205260408120556125c6600886612a2b565b506001600160601b0384161561261957600a80548591906000906125f49084906001600160601b0316613138565b92506101000a8154816001600160601b0302191690836001600160601b031602179055505b6001600160601b038316156126715782600a600c8282829054906101000a90046001600160601b031661264c9190613138565b92506101000a8154816001600160601b0302191690836001600160601b031602179055505b5050915091565b6000546001600160a01b031633146124cc5760405162461bcd60e51b815260206004820152601660248201527527b7363c9031b0b63630b1363290313c9037bbb732b960511b6044820152606401611116565b806122f157604051631e9acf1760e31b815260040160405180910390fd5b6000826001600160a01b03168260405160006040518083038185875af1925050503d8060008114612736576040519150601f19603f3d011682016040523d82523d6000602084013e61273b565b606091505b50509050806112b15760405163950b247960e01b815260040160405180910390fd5b6001600160a01b0381166122f157604051630fb532db60e11b815260040160405180910390fd5b60408051602081019091526000815260008290036127b15750604080516020810190915260008152611367565b63125fa26760e31b6127c383856133f2565b6001600160e01b031916146127eb57604051632923fee760e11b815260040160405180910390fd5b6127f88260048186613428565b8101906128059190613452565b9392505050565b60607f92fd13387c7fe7befbc38d303d6468778fb9731bc4583f17d92989c6fcfdeaaa8260405160240161284591511515815260200190565b60408051601f198184030181529190526020810180516001600160e01b03166001600160e01b03199093169290921790915292915050565b60006128058383612a37565b600080612895846124ce565b60025491935091506001600160a01b0316158015906128bc57506001600160601b03821615155b156129045760025460405163a9059cbb60e01b81526001600160a01b0385811660048301526001600160601b038516602483015261290492169063a9059cbb9060440161101f565b61291783826001600160601b03166126e9565b604080516001600160a01b03851681526001600160601b03808516602083015283169181019190915284907f8c74ce8b8cf87f5eb001275c8be27eb34ea2b62bfab6814fcc62192bb63e81c49060600161202e565b6000611367825490565b60006128058383612a86565b336001600160a01b038216036129da5760405162461bcd60e51b815260206004820152601760248201527f43616e6e6f74207472616e7366657220746f2073656c660000000000000000006044820152606401611116565b600180546001600160a01b0319166001600160a01b0383811691821790925560008054604051929316917fed8889f560326eb138920d842192f0eb3dd22b4f139c87a2c57538e05bae12789190a350565b60006128058383612ab0565b6000818152600183016020526040812054612a7e57508154600181810184556000848152602080822090930184905584548482528286019093526040902091909155611367565b506000611367565b6000826000018281548110612a9d57612a9d61302d565b9060005260206000200154905092915050565b60008181526001830160205260408120548015612b99576000612ad46001836130ba565b8554909150600090612ae8906001906130ba565b9050808214612b4d576000866000018281548110612b0857612b0861302d565b9060005260206000200154905080876000018481548110612b2b57612b2b61302d565b6000918252602080832090910192909255918252600188019052604090208390555b8554869080612b5e57612b5e6133c3565b600190038181906000526020600020016000905590558560010160008681526020019081526020016000206000905560019350505050611367565b6000915050611367565b5092915050565b508054612bb690612ff3565b6000825580601f10612bc6575050565b601f0160209004906000526020600020908101906122f19190612c63565b828054828255906000526020600020908101928215612c39579160200282015b82811115612c3957825182546001600160a01b0319166001600160a01b03909116178255602090920191600190910190612c04565b50612c45929150612c63565b5090565b50805460008255906000526020600020908101906122f191905b5b80821115612c455760008155600101612c64565b6001600160a01b03811681146122f157600080fd5b634e487b7160e01b600052604160045260246000fd5b604051601f8201601f191681016001600160401b0381118282101715612ccb57612ccb612c8d565b604052919050565b600080600060608486031215612ce857600080fd5b833592506020840135612cfa81612c78565b915060408401356001600160401b03811115612d1557600080fd5b8401601f81018613612d2657600080fd5b80356001600160401b03811115612d3f57612d3f612c8d565b8060051b612d4f60208201612ca3565b91825260208184018101929081019089841115612d6b57600080fd5b6020850194505b83851015612d9157843580835260209586019590935090910190612d72565b80955050505050509250925092565b60008060408385031215612db357600080fd5b823591506020830135612dc581612c78565b809150509250929050565b60008060408385031215612de357600080fd5b50508035926020909101359150565b600060208284031215612e0457600080fd5b813561280581612c78565b600060208284031215612e2157600080fd5b5035919050565b60008060408385031215612e3b57600080fd5b8235612e4681612c78565b91506020830135612dc581612c78565b600060208284031215612e6857600080fd5b81356001600160401b03811115612e7e57600080fd5b820160c0818503121561280557600080fd5b60008060008060608587031215612ea657600080fd5b8435612eb181612c78565b93506020850135925060408501356001600160401b03811115612ed357600080fd5b8501601f81018713612ee457600080fd5b80356001600160401b03811115612efa57600080fd5b876020828401011115612f0c57600080fd5b949793965060200194505050565b600081518084526020840193506020830160005b82811015612f4c578151865260209586019590910190600101612f2e565b5093949350505050565b6020815260006128056020830184612f1a565b6001600160601b03868116825285166020808301919091526001600160401b03851660408301526001600160a01b038416606083015260a060808301819052835190830181905260009184019060c0840190835b81811015612fe45783516001600160a01b0316835260209384019390920191600101612fbd565b50909998505050505050505050565b600181811c9082168061300757607f821691505b60208210810361302757634e487b7160e01b600052602260045260246000fd5b50919050565b634e487b7160e01b600052603260045260246000fd5b82815260406020820152600061305c6040830184612f1a565b949350505050565b60005b8381101561307f578181015183820152602001613067565b50506000910152565b6000825161309a818460208701613064565b9190910192915050565b634e487b7160e01b600052601160045260246000fd5b81810381811115611367576113676130a4565b8082028115828204841417611367576113676130a4565b80820180821115611367576113676130a4565b60008261311457634e487b7160e01b600052601260045260246000fd5b500490565b6001600160601b038181168382160190811115611367576113676130a4565b6001600160601b038281168282160390811115611367576113676130a4565b80151581146122f157600080fd5b60006020828403121561317757600080fd5b815161280581613157565b600060018201613194576131946130a4565b5060010190565b6000808335601e198436030181126131b257600080fd5b8301803591506001600160401b038211156131cc57600080fd5b6020019150368190038213156131e157600080fd5b9250929050565b6000602082840312156131fa57600080fd5b813563ffffffff8116811461280557600080fd5b601f8211156112b157806000526020600020601f840160051c810160208510156132355750805b601f840160051c820191505b818110156132555760008155600101613241565b5050505050565b81516001600160401b0381111561327557613275612c8d565b613289816132838454612ff3565b8461320e565b6020601f8211600181146132bd57600083156132a55750848201515b600019600385901b1c1916600184901b178455613255565b600084815260208120601f198516915b828110156132ed57878501518255602094850194600190920191016132cd565b508482101561330b5786840151600019600387901b60f8161c191681555b50505050600190811b01905550565b60006020828403121561332c57600080fd5b813561ffff8116811461280557600080fd5b86815285602082015261ffff8516604082015263ffffffff8416606082015263ffffffff8316608082015260c060a0820152600082518060c084015261338b8160e0850160208701613064565b601f01601f19169190910160e001979650505050505050565b6001600160401b038181168382160190811115611367576113676130a4565b634e487b7160e01b600052603160045260246000fd5b6000602082840312156133eb57600080fd5b5051919050565b80356001600160e01b03198116906004841015612ba3576001600160e01b031960049490940360031b84901b1690921692915050565b6000808585111561343857600080fd5b8386111561344557600080fd5b5050820193919092039150565b6000602082840312801561346557600080fd5b50604051602081016001600160401b038111828210171561348857613488612c8d565b604052823561349681613157565b8152939250505056fea2646970667358221220107a9b964f22833b90c05f2b6c0907e938a7d1210fd5ad7235a60a451a9a44a364736f6c634300081a0033",
  "linkReferences": {},
  "deployedLinkReferences": {}
}